{
  "contractName": "InsuranceClaim",
  "abi": [
    {
      "inputs": [],
      "stateMutability": "nonpayable",
      "type": "constructor"
    },
    {
      "inputs": [
        {
          "internalType": "address",
          "name": "wallet",
          "type": "address"
        },
        {
          "internalType": "string",
          "name": "insuranceType",
          "type": "string"
        },
        {
          "internalType": "string",
          "name": "policyId",
          "type": "string"
        },
        {
          "internalType": "string",
          "name": "adharNumber",
          "type": "string"
        },
        {
          "internalType": "string",
          "name": "phoneNumber",
          "type": "string"
        }
      ],
      "name": "addUserDetails",
      "outputs": [],
      "stateMutability": "nonpayable",
      "type": "function"
    },
    {
      "inputs": [
        {
          "internalType": "address",
          "name": "wallet",
          "type": "address"
        }
      ],
      "name": "viewUserDetailsByWallet",
      "outputs": [
        {
          "components": [
            {
              "internalType": "address",
              "name": "_wallet",
              "type": "address"
            },
            {
              "internalType": "string",
              "name": "_insuranceType",
              "type": "string"
            },
            {
              "internalType": "string",
              "name": "_policyId",
              "type": "string"
            },
            {
              "internalType": "string",
              "name": "_adharNumber",
              "type": "string"
            },
            {
              "internalType": "string",
              "name": "_phoneNumber",
              "type": "string"
            },
            {
              "internalType": "bool",
              "name": "_exist",
              "type": "bool"
            },
            {
              "internalType": "string",
              "name": "_status",
              "type": "string"
            }
          ],
          "internalType": "struct InsuranceClaim.UserDetails",
          "name": "",
          "type": "tuple"
        }
      ],
      "stateMutability": "view",
      "type": "function"
    },
    {
      "inputs": [],
      "name": "viewAllUserDetails",
      "outputs": [
        {
          "components": [
            {
              "internalType": "address",
              "name": "_wallet",
              "type": "address"
            },
            {
              "internalType": "string",
              "name": "_insuranceType",
              "type": "string"
            },
            {
              "internalType": "string",
              "name": "_policyId",
              "type": "string"
            },
            {
              "internalType": "string",
              "name": "_adharNumber",
              "type": "string"
            },
            {
              "internalType": "string",
              "name": "_phoneNumber",
              "type": "string"
            },
            {
              "internalType": "bool",
              "name": "_exist",
              "type": "bool"
            },
            {
              "internalType": "string",
              "name": "_status",
              "type": "string"
            }
          ],
          "internalType": "struct InsuranceClaim.UserDetails[]",
          "name": "",
          "type": "tuple[]"
        }
      ],
      "stateMutability": "view",
      "type": "function"
    },
    {
      "inputs": [
        {
          "internalType": "address",
          "name": "wallet",
          "type": "address"
        },
        {
          "internalType": "string",
          "name": "newStatus",
          "type": "string"
        }
      ],
      "name": "updateApplicationStatus",
      "outputs": [],
      "stateMutability": "nonpayable",
      "type": "function"
    },
    {
      "inputs": [
        {
          "internalType": "address",
          "name": "wallet",
          "type": "address"
        }
      ],
      "name": "getApplicationStatus",
      "outputs": [
        {
          "internalType": "string",
          "name": "",
          "type": "string"
        }
      ],
      "stateMutability": "view",
      "type": "function"
    },
    {
      "inputs": [
        {
          "internalType": "address",
          "name": "wallet",
          "type": "address"
        },
        {
          "internalType": "string",
          "name": "nomineeName",
          "type": "string"
        },
        {
          "internalType": "string",
          "name": "nomineeAdhar",
          "type": "string"
        },
        {
          "internalType": "string",
          "name": "nomineePhoneNumber",
          "type": "string"
        }
      ],
      "name": "addNomineeDetails",
      "outputs": [],
      "stateMutability": "nonpayable",
      "type": "function"
    },
    {
      "inputs": [
        {
          "internalType": "address",
          "name": "wallet",
          "type": "address"
        }
      ],
      "name": "viewNomineeDetailsByWallet",
      "outputs": [
        {
          "components": [
            {
              "internalType": "address",
              "name": "_wallet",
              "type": "address"
            },
            {
              "internalType": "string",
              "name": "_nomineeName",
              "type": "string"
            },
            {
              "internalType": "string",
              "name": "_nomineeAdhar",
              "type": "string"
            },
            {
              "internalType": "string",
              "name": "_nomineePhoneNumber",
              "type": "string"
            },
            {
              "internalType": "bool",
              "name": "_exist",
              "type": "bool"
            }
          ],
          "internalType": "struct InsuranceClaim.NomineeDetails",
          "name": "",
          "type": "tuple"
        }
      ],
      "stateMutability": "view",
      "type": "function"
    },
    {
      "inputs": [],
      "name": "viewAllNomineeDetails",
      "outputs": [
        {
          "components": [
            {
              "internalType": "address",
              "name": "_wallet",
              "type": "address"
            },
            {
              "internalType": "string",
              "name": "_nomineeName",
              "type": "string"
            },
            {
              "internalType": "string",
              "name": "_nomineeAdhar",
              "type": "string"
            },
            {
              "internalType": "string",
              "name": "_nomineePhoneNumber",
              "type": "string"
            },
            {
              "internalType": "bool",
              "name": "_exist",
              "type": "bool"
            }
          ],
          "internalType": "struct InsuranceClaim.NomineeDetails[]",
          "name": "",
          "type": "tuple[]"
        }
      ],
      "stateMutability": "view",
      "type": "function"
    },
    {
      "inputs": [
        {
          "internalType": "address",
          "name": "wallet",
          "type": "address"
        },
        {
          "internalType": "string",
          "name": "bankName",
          "type": "string"
        },
        {
          "internalType": "string",
          "name": "accountNumber",
          "type": "string"
        },
        {
          "internalType": "string",
          "name": "ifscCode",
          "type": "string"
        }
      ],
      "name": "addBankDetails",
      "outputs": [],
      "stateMutability": "nonpayable",
      "type": "function"
    },
    {
      "inputs": [
        {
          "internalType": "address",
          "name": "wallet",
          "type": "address"
        }
      ],
      "name": "viewBankDetailsByWallet",
      "outputs": [
        {
          "components": [
            {
              "internalType": "address",
              "name": "_wallet",
              "type": "address"
            },
            {
              "internalType": "string",
              "name": "_bankName",
              "type": "string"
            },
            {
              "internalType": "string",
              "name": "_accountNumber",
              "type": "string"
            },
            {
              "internalType": "string",
              "name": "_ifscCode",
              "type": "string"
            },
            {
              "internalType": "bool",
              "name": "_exist",
              "type": "bool"
            }
          ],
          "internalType": "struct InsuranceClaim.BankDetails",
          "name": "",
          "type": "tuple"
        }
      ],
      "stateMutability": "view",
      "type": "function"
    },
    {
      "inputs": [],
      "name": "viewAllBankDetails",
      "outputs": [
        {
          "components": [
            {
              "internalType": "address",
              "name": "_wallet",
              "type": "address"
            },
            {
              "internalType": "string",
              "name": "_bankName",
              "type": "string"
            },
            {
              "internalType": "string",
              "name": "_accountNumber",
              "type": "string"
            },
            {
              "internalType": "string",
              "name": "_ifscCode",
              "type": "string"
            },
            {
              "internalType": "bool",
              "name": "_exist",
              "type": "bool"
            }
          ],
          "internalType": "struct InsuranceClaim.BankDetails[]",
          "name": "",
          "type": "tuple[]"
        }
      ],
      "stateMutability": "view",
      "type": "function"
    },
    {
      "inputs": [
        {
          "internalType": "address",
          "name": "wallet",
          "type": "address"
        },
        {
          "internalType": "string",
          "name": "policyPaperPath",
          "type": "string"
        },
        {
          "internalType": "string",
          "name": "policyPaperHash",
          "type": "string"
        },
        {
          "internalType": "string",
          "name": "reportPaperPath",
          "type": "string"
        },
        {
          "internalType": "string",
          "name": "reportPaperHash",
          "type": "string"
        }
      ],
      "name": "addCertificateDetails",
      "outputs": [],
      "stateMutability": "nonpayable",
      "type": "function"
    },
    {
      "inputs": [
        {
          "internalType": "address",
          "name": "wallet",
          "type": "address"
        }
      ],
      "name": "viewCertificateDetailsByWallet",
      "outputs": [
        {
          "components": [
            {
              "internalType": "address",
              "name": "_wallet",
              "type": "address"
            },
            {
              "internalType": "string",
              "name": "_policyPaperPath",
              "type": "string"
            },
            {
              "internalType": "string",
              "name": "_policyPaperHash",
              "type": "string"
            },
            {
              "internalType": "string",
              "name": "_reportPaperPath",
              "type": "string"
            },
            {
              "internalType": "string",
              "name": "_reportPaperHash",
              "type": "string"
            },
            {
              "internalType": "bool",
              "name": "_exist",
              "type": "bool"
            }
          ],
          "internalType": "struct InsuranceClaim.certificateDetails",
          "name": "",
          "type": "tuple"
        }
      ],
      "stateMutability": "view",
      "type": "function"
    },
    {
      "inputs": [],
      "name": "viewAllCertificateDetails",
      "outputs": [
        {
          "components": [
            {
              "internalType": "address",
              "name": "_wallet",
              "type": "address"
            },
            {
              "internalType": "string",
              "name": "_policyPaperPath",
              "type": "string"
            },
            {
              "internalType": "string",
              "name": "_policyPaperHash",
              "type": "string"
            },
            {
              "internalType": "string",
              "name": "_reportPaperPath",
              "type": "string"
            },
            {
              "internalType": "string",
              "name": "_reportPaperHash",
              "type": "string"
            },
            {
              "internalType": "bool",
              "name": "_exist",
              "type": "bool"
            }
          ],
          "internalType": "struct InsuranceClaim.certificateDetails[]",
          "name": "",
          "type": "tuple[]"
        }
      ],
      "stateMutability": "view",
      "type": "function"
    },
    {
      "inputs": [
        {
          "internalType": "string",
          "name": "policyId",
          "type": "string"
        },
        {
          "internalType": "string",
          "name": "policeName",
          "type": "string"
        },
        {
          "internalType": "string",
          "name": "policeContactNumber",
          "type": "string"
        },
        {
          "internalType": "string",
          "name": "policeFIRPath",
          "type": "string"
        },
        {
          "internalType": "string",
          "name": "policeFIRHash",
          "type": "string"
        }
      ],
      "name": "addPoliceDetails",
      "outputs": [],
      "stateMutability": "nonpayable",
      "type": "function"
    },
    {
      "inputs": [
        {
          "internalType": "string",
          "name": "policyId",
          "type": "string"
        }
      ],
      "name": "viewPoliceDetailsByPolicyId",
      "outputs": [
        {
          "components": [
            {
              "internalType": "address",
              "name": "_wallet",
              "type": "address"
            },
            {
              "internalType": "string",
              "name": "_policyId",
              "type": "string"
            },
            {
              "internalType": "string",
              "name": "_policeName",
              "type": "string"
            },
            {
              "internalType": "string",
              "name": "_policeContactNumber",
              "type": "string"
            },
            {
              "internalType": "string",
              "name": "_policeFIRPath",
              "type": "string"
            },
            {
              "internalType": "string",
              "name": "_policeFIRHash",
              "type": "string"
            },
            {
              "internalType": "bool",
              "name": "_exist",
              "type": "bool"
            }
          ],
          "internalType": "struct InsuranceClaim.PoliceDetails",
          "name": "",
          "type": "tuple"
        }
      ],
      "stateMutability": "view",
      "type": "function"
    },
    {
      "inputs": [],
      "name": "viewAllPoliceDetails",
      "outputs": [
        {
          "components": [
            {
              "internalType": "address",
              "name": "_wallet",
              "type": "address"
            },
            {
              "internalType": "string",
              "name": "_policyId",
              "type": "string"
            },
            {
              "internalType": "string",
              "name": "_policeName",
              "type": "string"
            },
            {
              "internalType": "string",
              "name": "_policeContactNumber",
              "type": "string"
            },
            {
              "internalType": "string",
              "name": "_policeFIRPath",
              "type": "string"
            },
            {
              "internalType": "string",
              "name": "_policeFIRHash",
              "type": "string"
            },
            {
              "internalType": "bool",
              "name": "_exist",
              "type": "bool"
            }
          ],
          "internalType": "struct InsuranceClaim.PoliceDetails[]",
          "name": "",
          "type": "tuple[]"
        }
      ],
      "stateMutability": "view",
      "type": "function"
    },
    {
      "inputs": [
        {
          "internalType": "string",
          "name": "policyId",
          "type": "string"
        },
        {
          "internalType": "string",
          "name": "doctorName",
          "type": "string"
        },
        {
          "internalType": "string",
          "name": "doctorContactNumber",
          "type": "string"
        },
        {
          "internalType": "string",
          "name": "doctorReportPath",
          "type": "string"
        },
        {
          "internalType": "string",
          "name": "doctorReportHash",
          "type": "string"
        }
      ],
      "name": "addHospitalDetails",
      "outputs": [],
      "stateMutability": "nonpayable",
      "type": "function"
    },
    {
      "inputs": [
        {
          "internalType": "string",
          "name": "policyId",
          "type": "string"
        }
      ],
      "name": "viewHospitalDetailsByPolicyId",
      "outputs": [
        {
          "components": [
            {
              "internalType": "address",
              "name": "_wallet",
              "type": "address"
            },
            {
              "internalType": "string",
              "name": "_policyId",
              "type": "string"
            },
            {
              "internalType": "string",
              "name": "_doctorName",
              "type": "string"
            },
            {
              "internalType": "string",
              "name": "_doctorContactNumber",
              "type": "string"
            },
            {
              "internalType": "string",
              "name": "_doctorreportPath",
              "type": "string"
            },
            {
              "internalType": "string",
              "name": "_doctorreportHash",
              "type": "string"
            },
            {
              "internalType": "bool",
              "name": "_exist",
              "type": "bool"
            }
          ],
          "internalType": "struct InsuranceClaim.HospitalDetails",
          "name": "",
          "type": "tuple"
        }
      ],
      "stateMutability": "view",
      "type": "function"
    },
    {
      "inputs": [],
      "name": "viewAllHospitalDetails",
      "outputs": [
        {
          "components": [
            {
              "internalType": "address",
              "name": "_wallet",
              "type": "address"
            },
            {
              "internalType": "string",
              "name": "_policyId",
              "type": "string"
            },
            {
              "internalType": "string",
              "name": "_doctorName",
              "type": "string"
            },
            {
              "internalType": "string",
              "name": "_doctorContactNumber",
              "type": "string"
            },
            {
              "internalType": "string",
              "name": "_doctorreportPath",
              "type": "string"
            },
            {
              "internalType": "string",
              "name": "_doctorreportHash",
              "type": "string"
            },
            {
              "internalType": "bool",
              "name": "_exist",
              "type": "bool"
            }
          ],
          "internalType": "struct InsuranceClaim.HospitalDetails[]",
          "name": "",
          "type": "tuple[]"
        }
      ],
      "stateMutability": "view",
      "type": "function"
    }
  ],
  "bytecode": "0x608060405234801561001057600080fd5b50336000806101000a81548173ffffffffffffffffffffffffffffffffffffffff021916908373ffffffffffffffffffffffffffffffffffffffff160217905550615f3080620000616000396000f3fe608060405234801561001057600080fd5b506004361061012c5760003560e01c8063731fd675116100ad578063c11de18011610071578063c11de18014610341578063c6b6694c14610371578063ce4f2b57146103a1578063d64a2a24146103bd578063f19b47aa146103db5761012c565b8063731fd675146102895780639783f700146102a7578063b311cf3c146102d7578063bd9e617814610307578063bdba43d8146103255761012c565b806346eb141a116100f457806346eb141a146101d557806350b4a379146101f157806355f99e331461022157806359e92f0d1461023d5780635b1d1645146102595761012c565b806308959ec11461013157806320abaf061461014d5780632519eba1146101695780632a2e9c5a146101995780634393ed90146101b7575b600080fd5b61014b600480360381019061014691906145a3565b6103f9565b005b610167600480360381019061016291906145a3565b610623565b005b610183600480360381019061017e919061465e565b61084d565b604051610190919061470a565b60405180910390f35b6101a16109b0565b6040516101ae919061491a565b60405180910390f35b6101bf610de9565b6040516101cc9190614a9c565b60405180910390f35b6101ef60048036038101906101ea9190614abe565b6111d2565b005b61020b6004803603810190610206919061465e565b611419565b6040516102189190614c47565b60405180910390f35b61023b60048036038101906102369190614c69565b6117ba565b005b61025760048036038101906102529190614d70565b6119ad565b005b610273600480360381019061026e919061465e565b611bf0565b6040516102809190614e84565b60405180910390f35b610291612023565b60405161029e9190615020565b60405180910390f35b6102c160048036038101906102bc919061465e565b61249e565b6040516102ce91906150c6565b60405180910390f35b6102f160048036038101906102ec91906150e8565b6127ad565b6040516102fe91906151e9565b60405180910390f35b61030f612b9e565b60405161031c9190615351565b60405180910390f35b61033f600480360381019061033a9190614abe565b612ef5565b005b61035b600480360381019061035691906150e8565b61318d565b604051610368919061542b565b60405180910390f35b61038b6004803603810190610386919061465e565b61357e565b60405161039891906154d1565b60405180910390f35b6103bb60048036038101906103b69190614c69565b61388d565b005b6103c5613a80565b6040516103d29190615639565b60405180910390f35b6103e3613dd7565b6040516103f091906157d5565b60405180910390f35b600560008573ffffffffffffffffffffffffffffffffffffffff1673ffffffffffffffffffffffffffffffffffffffff16815260200190815260200160002060040160009054906101000a900460ff1615610489576040517f08c379a000000000000000000000000000000000000000000000000000000000815260040161048090615843565b60405180910390fd5b60006040518060a001604052808673ffffffffffffffffffffffffffffffffffffffff16815260200185815260200184815260200183815260200160011515815250905080600560008773ffffffffffffffffffffffffffffffffffffffff1673ffffffffffffffffffffffffffffffffffffffff16815260200190815260200160002060008201518160000160006101000a81548173ffffffffffffffffffffffffffffffffffffffff021916908373ffffffffffffffffffffffffffffffffffffffff16021790555060208201518160010190816105699190615a79565b50604082015181600201908161057f9190615a79565b5060608201518160030190816105959190615a79565b5060808201518160040160006101000a81548160ff0219169083151502179055509050506006859080600181540180825580915050600190039060005260206000200160009091909190916101000a81548173ffffffffffffffffffffffffffffffffffffffff021916908373ffffffffffffffffffffffffffffffffffffffff1602179055505050505050565b600360008573ffffffffffffffffffffffffffffffffffffffff1673ffffffffffffffffffffffffffffffffffffffff16815260200190815260200160002060040160009054906101000a900460ff16156106b3576040517f08c379a00000000000000000000000000000000000000000000000000000000081526004016106aa90615843565b60405180910390fd5b60006040518060a001604052808673ffffffffffffffffffffffffffffffffffffffff16815260200185815260200184815260200183815260200160011515815250905080600360008773ffffffffffffffffffffffffffffffffffffffff1673ffffffffffffffffffffffffffffffffffffffff16815260200190815260200160002060008201518160000160006101000a81548173ffffffffffffffffffffffffffffffffffffffff021916908373ffffffffffffffffffffffffffffffffffffffff16021790555060208201518160010190816107939190615a79565b5060408201518160020190816107a99190615a79565b5060608201518160030190816107bf9190615a79565b5060808201518160040160006101000a81548160ff0219169083151502179055509050506004859080600181540180825580915050600190039060005260206000200160009091909190916101000a81548173ffffffffffffffffffffffffffffffffffffffff021916908373ffffffffffffffffffffffffffffffffffffffff1602179055505050505050565b6060600160008373ffffffffffffffffffffffffffffffffffffffff1673ffffffffffffffffffffffffffffffffffffffff16815260200190815260200160002060050160009054906101000a900460ff166108de576040517f08c379a00000000000000000000000000000000000000000000000000000000081526004016108d590615b97565b60405180910390fd5b600160008373ffffffffffffffffffffffffffffffffffffffff1673ffffffffffffffffffffffffffffffffffffffff168152602001908152602001600020600601805461092b90615892565b80601f016020809104026020016040519081016040528092919081815260200182805461095790615892565b80156109a45780601f10610979576101008083540402835291602001916109a4565b820191906000526020600020905b81548152906001019060200180831161098757829003601f168201915b50505050509050919050565b60606000600a8054905067ffffffffffffffff8111156109d3576109d2614478565b5b604051908082528060200260200182016040528015610a0c57816020015b6109f9614210565b8152602001906001900390816109f15790505b50905060005b600a80549050811015610de1576009600a8281548110610a3557610a34615bb7565b5b90600052602060002001604051610a4c9190615c74565b90815260200160405180910390206040518060e00160405290816000820160009054906101000a900473ffffffffffffffffffffffffffffffffffffffff1673ffffffffffffffffffffffffffffffffffffffff1673ffffffffffffffffffffffffffffffffffffffff168152602001600182018054610acb90615892565b80601f0160208091040260200160405190810160405280929190818152602001828054610af790615892565b8015610b445780601f10610b1957610100808354040283529160200191610b44565b820191906000526020600020905b815481529060010190602001808311610b2757829003601f168201915b50505050508152602001600282018054610b5d90615892565b80601f0160208091040260200160405190810160405280929190818152602001828054610b8990615892565b8015610bd65780601f10610bab57610100808354040283529160200191610bd6565b820191906000526020600020905b815481529060010190602001808311610bb957829003601f168201915b50505050508152602001600382018054610bef90615892565b80601f0160208091040260200160405190810160405280929190818152602001828054610c1b90615892565b8015610c685780601f10610c3d57610100808354040283529160200191610c68565b820191906000526020600020905b815481529060010190602001808311610c4b57829003601f168201915b50505050508152602001600482018054610c8190615892565b80601f0160208091040260200160405190810160405280929190818152602001828054610cad90615892565b8015610cfa5780601f10610ccf57610100808354040283529160200191610cfa565b820191906000526020600020905b815481529060010190602001808311610cdd57829003601f168201915b50505050508152602001600582018054610d1390615892565b80601f0160208091040260200160405190810160405280929190818152602001828054610d3f90615892565b8015610d8c5780601f10610d6157610100808354040283529160200191610d8c565b820191906000526020600020905b815481529060010190602001808311610d6f57829003601f168201915b505050505081526020016006820160009054906101000a900460ff161515151581525050828281518110610dc357610dc2615bb7565b5b60200260200101819052508080610dd990615cba565b915050610a12565b508091505090565b6060600060088054905067ffffffffffffffff811115610e0c57610e0b614478565b5b604051908082528060200260200182016040528015610e4557816020015b610e32614265565b815260200190600190039081610e2a5790505b50905060005b6008805490508110156111ca576007600060088381548110610e7057610e6f615bb7565b5b9060005260206000200160009054906101000a900473ffffffffffffffffffffffffffffffffffffffff1673ffffffffffffffffffffffffffffffffffffffff1673ffffffffffffffffffffffffffffffffffffffff1681526020019081526020016000206040518060c00160405290816000820160009054906101000a900473ffffffffffffffffffffffffffffffffffffffff1673ffffffffffffffffffffffffffffffffffffffff1673ffffffffffffffffffffffffffffffffffffffff168152602001600182018054610f4690615892565b80601f0160208091040260200160405190810160405280929190818152602001828054610f7290615892565b8015610fbf5780601f10610f9457610100808354040283529160200191610fbf565b820191906000526020600020905b815481529060010190602001808311610fa257829003601f168201915b50505050508152602001600282018054610fd890615892565b80601f016020809104026020016040519081016040528092919081815260200182805461100490615892565b80156110515780601f1061102657610100808354040283529160200191611051565b820191906000526020600020905b81548152906001019060200180831161103457829003601f168201915b5050505050815260200160038201805461106a90615892565b80601f016020809104026020016040519081016040528092919081815260200182805461109690615892565b80156110e35780601f106110b8576101008083540402835291602001916110e3565b820191906000526020600020905b8154815290600101906020018083116110c657829003601f168201915b505050505081526020016004820180546110fc90615892565b80601f016020809104026020016040519081016040528092919081815260200182805461112890615892565b80156111755780601f1061114a57610100808354040283529160200191611175565b820191906000526020600020905b81548152906001019060200180831161115857829003601f168201915b505050505081526020016005820160009054906101000a900460ff1615151515815250508282815181106111ac576111ab615bb7565b5b602002602001018190525080806111c290615cba565b915050610e4b565b508091505090565b600760008673ffffffffffffffffffffffffffffffffffffffff1673ffffffffffffffffffffffffffffffffffffffff16815260200190815260200160002060050160009054906101000a900460ff1615611262576040517f08c379a000000000000000000000000000000000000000000000000000000000815260040161125990615843565b60405180910390fd5b60006040518060c001604052808773ffffffffffffffffffffffffffffffffffffffff16815260200186815260200185815260200184815260200183815260200160011515815250905080600760008873ffffffffffffffffffffffffffffffffffffffff1673ffffffffffffffffffffffffffffffffffffffff16815260200190815260200160002060008201518160000160006101000a81548173ffffffffffffffffffffffffffffffffffffffff021916908373ffffffffffffffffffffffffffffffffffffffff16021790555060208201518160010190816113489190615a79565b50604082015181600201908161135e9190615a79565b5060608201518160030190816113749190615a79565b50608082015181600401908161138a9190615a79565b5060a08201518160050160006101000a81548160ff0219169083151502179055509050506008869080600181540180825580915050600190039060005260206000200160009091909190916101000a81548173ffffffffffffffffffffffffffffffffffffffff021916908373ffffffffffffffffffffffffffffffffffffffff160217905550505050505050565b611421614265565b600760008373ffffffffffffffffffffffffffffffffffffffff1673ffffffffffffffffffffffffffffffffffffffff16815260200190815260200160002060050160009054906101000a900460ff166114b0576040517f08c379a00000000000000000000000000000000000000000000000000000000081526004016114a790615b97565b60405180910390fd5b600760008373ffffffffffffffffffffffffffffffffffffffff1673ffffffffffffffffffffffffffffffffffffffff1681526020019081526020016000206040518060c00160405290816000820160009054906101000a900473ffffffffffffffffffffffffffffffffffffffff1673ffffffffffffffffffffffffffffffffffffffff1673ffffffffffffffffffffffffffffffffffffffff16815260200160018201805461156090615892565b80601f016020809104026020016040519081016040528092919081815260200182805461158c90615892565b80156115d95780601f106115ae576101008083540402835291602001916115d9565b820191906000526020600020905b8154815290600101906020018083116115bc57829003601f168201915b505050505081526020016002820180546115f290615892565b80601f016020809104026020016040519081016040528092919081815260200182805461161e90615892565b801561166b5780601f106116405761010080835404028352916020019161166b565b820191906000526020600020905b81548152906001019060200180831161164e57829003601f168201915b5050505050815260200160038201805461168490615892565b80601f01602080910402602001604051908101604052809291908181526020018280546116b090615892565b80156116fd5780601f106116d2576101008083540402835291602001916116fd565b820191906000526020600020905b8154815290600101906020018083116116e057829003601f168201915b5050505050815260200160048201805461171690615892565b80601f016020809104026020016040519081016040528092919081815260200182805461174290615892565b801561178f5780601f106117645761010080835404028352916020019161178f565b820191906000526020600020905b81548152906001019060200180831161177257829003601f168201915b505050505081526020016005820160009054906101000a900460ff1615151515815250509050919050565b6009856040516117ca9190615d33565b908152602001604051809103902060060160009054906101000a900460ff1615611829576040517f08c379a000000000000000000000000000000000000000000000000000000000815260040161182090615843565b60405180910390fd5b60006040518060e001604052803373ffffffffffffffffffffffffffffffffffffffff1681526020018781526020018681526020018581526020018481526020018381526020016001151581525090508060098760405161188a9190615d33565b908152602001604051809103902060008201518160000160006101000a81548173ffffffffffffffffffffffffffffffffffffffff021916908373ffffffffffffffffffffffffffffffffffffffff16021790555060208201518160010190816118f49190615a79565b50604082015181600201908161190a9190615a79565b5060608201518160030190816119209190615a79565b5060808201518160040190816119369190615a79565b5060a082015181600501908161194c9190615a79565b5060c08201518160060160006101000a81548160ff021916908315150217905550905050600a869080600181540180825580915050600190039060005260206000200160009091909190915090816119a49190615a79565b50505050505050565b60008054906101000a900473ffffffffffffffffffffffffffffffffffffffff1673ffffffffffffffffffffffffffffffffffffffff163373ffffffffffffffffffffffffffffffffffffffff1614611a3b576040517f08c379a0000000000000000000000000000000000000000000000000000000008152600401611a3290615d96565b60405180910390fd5b600160008373ffffffffffffffffffffffffffffffffffffffff1673ffffffffffffffffffffffffffffffffffffffff16815260200190815260200160002060050160009054906101000a900460ff16611aca576040517f08c379a0000000000000000000000000000000000000000000000000000000008152600401611ac190615e02565b60405180910390fd5b6040518060400160405280600881526020017f417070726f7665640000000000000000000000000000000000000000000000008152508051906020012081805190602001201480611b5d57506040518060400160405280600881526020017f52656a6563746564000000000000000000000000000000000000000000000000815250805190602001208180519060200120145b611b9c576040517f08c379a0000000000000000000000000000000000000000000000000000000008152600401611b9390615e6e565b60405180910390fd5b80600160008473ffffffffffffffffffffffffffffffffffffffff1673ffffffffffffffffffffffffffffffffffffffff1681526020019081526020016000206006019081611beb9190615a79565b505050565b611bf86142b3565b600160008373ffffffffffffffffffffffffffffffffffffffff1673ffffffffffffffffffffffffffffffffffffffff16815260200190815260200160002060050160009054906101000a900460ff16611c87576040517f08c379a0000000000000000000000000000000000000000000000000000000008152600401611c7e90615b97565b60405180910390fd5b600160008373ffffffffffffffffffffffffffffffffffffffff1673ffffffffffffffffffffffffffffffffffffffff1681526020019081526020016000206040518060e00160405290816000820160009054906101000a900473ffffffffffffffffffffffffffffffffffffffff1673ffffffffffffffffffffffffffffffffffffffff1673ffffffffffffffffffffffffffffffffffffffff168152602001600182018054611d3790615892565b80601f0160208091040260200160405190810160405280929190818152602001828054611d6390615892565b8015611db05780601f10611d8557610100808354040283529160200191611db0565b820191906000526020600020905b815481529060010190602001808311611d9357829003601f168201915b50505050508152602001600282018054611dc990615892565b80601f0160208091040260200160405190810160405280929190818152602001828054611df590615892565b8015611e425780601f10611e1757610100808354040283529160200191611e42565b820191906000526020600020905b815481529060010190602001808311611e2557829003601f168201915b50505050508152602001600382018054611e5b90615892565b80601f0160208091040260200160405190810160405280929190818152602001828054611e8790615892565b8015611ed45780601f10611ea957610100808354040283529160200191611ed4565b820191906000526020600020905b815481529060010190602001808311611eb757829003601f168201915b50505050508152602001600482018054611eed90615892565b80601f0160208091040260200160405190810160405280929190818152602001828054611f1990615892565b8015611f665780601f10611f3b57610100808354040283529160200191611f66565b820191906000526020600020905b815481529060010190602001808311611f4957829003601f168201915b505050505081526020016005820160009054906101000a900460ff16151515158152602001600682018054611f9a90615892565b80601f0160208091040260200160405190810160405280929190818152602001828054611fc690615892565b80156120135780601f10611fe857610100808354040283529160200191612013565b820191906000526020600020905b815481529060010190602001808311611ff657829003601f168201915b5050505050815250509050919050565b6060600060028054905067ffffffffffffffff81111561204657612045614478565b5b60405190808252806020026020018201604052801561207f57816020015b61206c6142b3565b8152602001906001900390816120645790505b50905060005b6002805490508110156124965760016000600283815481106120aa576120a9615bb7565b5b9060005260206000200160009054906101000a900473ffffffffffffffffffffffffffffffffffffffff1673ffffffffffffffffffffffffffffffffffffffff1673ffffffffffffffffffffffffffffffffffffffff1681526020019081526020016000206040518060e00160405290816000820160009054906101000a900473ffffffffffffffffffffffffffffffffffffffff1673ffffffffffffffffffffffffffffffffffffffff1673ffffffffffffffffffffffffffffffffffffffff16815260200160018201805461218090615892565b80601f01602080910402602001604051908101604052809291908181526020018280546121ac90615892565b80156121f95780601f106121ce576101008083540402835291602001916121f9565b820191906000526020600020905b8154815290600101906020018083116121dc57829003601f168201915b5050505050815260200160028201805461221290615892565b80601f016020809104026020016040519081016040528092919081815260200182805461223e90615892565b801561228b5780601f106122605761010080835404028352916020019161228b565b820191906000526020600020905b81548152906001019060200180831161226e57829003601f168201915b505050505081526020016003820180546122a490615892565b80601f01602080910402602001604051908101604052809291908181526020018280546122d090615892565b801561231d5780601f106122f25761010080835404028352916020019161231d565b820191906000526020600020905b81548152906001019060200180831161230057829003601f168201915b5050505050815260200160048201805461233690615892565b80601f016020809104026020016040519081016040528092919081815260200182805461236290615892565b80156123af5780601f10612384576101008083540402835291602001916123af565b820191906000526020600020905b81548152906001019060200180831161239257829003601f168201915b505050505081526020016005820160009054906101000a900460ff161515151581526020016006820180546123e390615892565b80601f016020809104026020016040519081016040528092919081815260200182805461240f90615892565b801561245c5780601f106124315761010080835404028352916020019161245c565b820191906000526020600020905b81548152906001019060200180831161243f57829003601f168201915b50505050508152505082828151811061247857612477615bb7565b5b6020026020010181905250808061248e90615cba565b915050612085565b508091505090565b6124a6614308565b600360008373ffffffffffffffffffffffffffffffffffffffff1673ffffffffffffffffffffffffffffffffffffffff16815260200190815260200160002060040160009054906101000a900460ff16612535576040517f08c379a000000000000000000000000000000000000000000000000000000000815260040161252c90615b97565b60405180910390fd5b600360008373ffffffffffffffffffffffffffffffffffffffff1673ffffffffffffffffffffffffffffffffffffffff1681526020019081526020016000206040518060a00160405290816000820160009054906101000a900473ffffffffffffffffffffffffffffffffffffffff1673ffffffffffffffffffffffffffffffffffffffff1673ffffffffffffffffffffffffffffffffffffffff1681526020016001820180546125e590615892565b80601f016020809104026020016040519081016040528092919081815260200182805461261190615892565b801561265e5780601f106126335761010080835404028352916020019161265e565b820191906000526020600020905b81548152906001019060200180831161264157829003601f168201915b5050505050815260200160028201805461267790615892565b80601f01602080910402602001604051908101604052809291908181526020018280546126a390615892565b80156126f05780601f106126c5576101008083540402835291602001916126f0565b820191906000526020600020905b8154815290600101906020018083116126d357829003601f168201915b5050505050815260200160038201805461270990615892565b80601f016020809104026020016040519081016040528092919081815260200182805461273590615892565b80156127825780601f1061275757610100808354040283529160200191612782565b820191906000526020600020905b81548152906001019060200180831161276557829003601f168201915b505050505081526020016004820160009054906101000a900460ff1615151515815250509050919050565b6127b5614210565b6009826040516127c59190615d33565b908152602001604051809103902060060160009054906101000a900460ff16612823576040517f08c379a000000000000000000000000000000000000000000000000000000000815260040161281a90615eda565b60405180910390fd5b6009826040516128339190615d33565b90815260200160405180910390206040518060e00160405290816000820160009054906101000a900473ffffffffffffffffffffffffffffffffffffffff1673ffffffffffffffffffffffffffffffffffffffff1673ffffffffffffffffffffffffffffffffffffffff1681526020016001820180546128b290615892565b80601f01602080910402602001604051908101604052809291908181526020018280546128de90615892565b801561292b5780601f106129005761010080835404028352916020019161292b565b820191906000526020600020905b81548152906001019060200180831161290e57829003601f168201915b5050505050815260200160028201805461294490615892565b80601f016020809104026020016040519081016040528092919081815260200182805461297090615892565b80156129bd5780601f10612992576101008083540402835291602001916129bd565b820191906000526020600020905b8154815290600101906020018083116129a057829003601f168201915b505050505081526020016003820180546129d690615892565b80601f0160208091040260200160405190810160405280929190818152602001828054612a0290615892565b8015612a4f5780601f10612a2457610100808354040283529160200191612a4f565b820191906000526020600020905b815481529060010190602001808311612a3257829003601f168201915b50505050508152602001600482018054612a6890615892565b80601f0160208091040260200160405190810160405280929190818152602001828054612a9490615892565b8015612ae15780601f10612ab657610100808354040283529160200191612ae1565b820191906000526020600020905b815481529060010190602001808311612ac457829003601f168201915b50505050508152602001600582018054612afa90615892565b80601f0160208091040260200160405190810160405280929190818152602001828054612b2690615892565b8015612b735780601f10612b4857610100808354040283529160200191612b73565b820191906000526020600020905b815481529060010190602001808311612b5657829003601f168201915b505050505081526020016006820160009054906101000a900460ff1615151515815250509050919050565b6060600060048054905067ffffffffffffffff811115612bc157612bc0614478565b5b604051908082528060200260200182016040528015612bfa57816020015b612be7614308565b815260200190600190039081612bdf5790505b50905060005b600480549050811015612eed576003600060048381548110612c2557612c24615bb7565b5b9060005260206000200160009054906101000a900473ffffffffffffffffffffffffffffffffffffffff1673ffffffffffffffffffffffffffffffffffffffff1673ffffffffffffffffffffffffffffffffffffffff1681526020019081526020016000206040518060a00160405290816000820160009054906101000a900473ffffffffffffffffffffffffffffffffffffffff1673ffffffffffffffffffffffffffffffffffffffff1673ffffffffffffffffffffffffffffffffffffffff168152602001600182018054612cfb90615892565b80601f0160208091040260200160405190810160405280929190818152602001828054612d2790615892565b8015612d745780601f10612d4957610100808354040283529160200191612d74565b820191906000526020600020905b815481529060010190602001808311612d5757829003601f168201915b50505050508152602001600282018054612d8d90615892565b80601f0160208091040260200160405190810160405280929190818152602001828054612db990615892565b8015612e065780601f10612ddb57610100808354040283529160200191612e06565b820191906000526020600020905b815481529060010190602001808311612de957829003601f168201915b50505050508152602001600382018054612e1f90615892565b80601f0160208091040260200160405190810160405280929190818152602001828054612e4b90615892565b8015612e985780601f10612e6d57610100808354040283529160200191612e98565b820191906000526020600020905b815481529060010190602001808311612e7b57829003601f168201915b505050505081526020016004820160009054906101000a900460ff161515151581525050828281518110612ecf57612ece615bb7565b5b60200260200101819052508080612ee590615cba565b915050612c00565b508091505090565b600160008673ffffffffffffffffffffffffffffffffffffffff1673ffffffffffffffffffffffffffffffffffffffff16815260200190815260200160002060050160009054906101000a900460ff1615612f85576040517f08c379a0000000000000000000000000000000000000000000000000000000008152600401612f7c90615843565b60405180910390fd5b60006040518060e001604052808773ffffffffffffffffffffffffffffffffffffffff1681526020018681526020018581526020018481526020018381526020016001151581526020016040518060400160405280600781526020017f50656e64696e6700000000000000000000000000000000000000000000000000815250815250905080600160008873ffffffffffffffffffffffffffffffffffffffff1673ffffffffffffffffffffffffffffffffffffffff16815260200190815260200160002060008201518160000160006101000a81548173ffffffffffffffffffffffffffffffffffffffff021916908373ffffffffffffffffffffffffffffffffffffffff16021790555060208201518160010190816130a69190615a79565b5060408201518160020190816130bc9190615a79565b5060608201518160030190816130d29190615a79565b5060808201518160040190816130e89190615a79565b5060a08201518160050160006101000a81548160ff02191690831515021790555060c082015181600601908161311e9190615a79565b509050506002869080600181540180825580915050600190039060005260206000200160009091909190916101000a81548173ffffffffffffffffffffffffffffffffffffffff021916908373ffffffffffffffffffffffffffffffffffffffff160217905550505050505050565b61319561434f565b600b826040516131a59190615d33565b908152602001604051809103902060060160009054906101000a900460ff16613203576040517f08c379a00000000000000000000000000000000000000000000000000000000081526004016131fa90615eda565b60405180910390fd5b600b826040516132139190615d33565b90815260200160405180910390206040518060e00160405290816000820160009054906101000a900473ffffffffffffffffffffffffffffffffffffffff1673ffffffffffffffffffffffffffffffffffffffff1673ffffffffffffffffffffffffffffffffffffffff16815260200160018201805461329290615892565b80601f01602080910402602001604051908101604052809291908181526020018280546132be90615892565b801561330b5780601f106132e05761010080835404028352916020019161330b565b820191906000526020600020905b8154815290600101906020018083116132ee57829003601f168201915b5050505050815260200160028201805461332490615892565b80601f016020809104026020016040519081016040528092919081815260200182805461335090615892565b801561339d5780601f106133725761010080835404028352916020019161339d565b820191906000526020600020905b81548152906001019060200180831161338057829003601f168201915b505050505081526020016003820180546133b690615892565b80601f01602080910402602001604051908101604052809291908181526020018280546133e290615892565b801561342f5780601f106134045761010080835404028352916020019161342f565b820191906000526020600020905b81548152906001019060200180831161341257829003601f168201915b5050505050815260200160048201805461344890615892565b80601f016020809104026020016040519081016040528092919081815260200182805461347490615892565b80156134c15780601f10613496576101008083540402835291602001916134c1565b820191906000526020600020905b8154815290600101906020018083116134a457829003601f168201915b505050505081526020016005820180546134da90615892565b80601f016020809104026020016040519081016040528092919081815260200182805461350690615892565b80156135535780601f1061352857610100808354040283529160200191613553565b820191906000526020600020905b81548152906001019060200180831161353657829003601f168201915b505050505081526020016006820160009054906101000a900460ff1615151515815250509050919050565b6135866143a4565b600560008373ffffffffffffffffffffffffffffffffffffffff1673ffffffffffffffffffffffffffffffffffffffff16815260200190815260200160002060040160009054906101000a900460ff16613615576040517f08c379a000000000000000000000000000000000000000000000000000000000815260040161360c90615b97565b60405180910390fd5b600560008373ffffffffffffffffffffffffffffffffffffffff1673ffffffffffffffffffffffffffffffffffffffff1681526020019081526020016000206040518060a00160405290816000820160009054906101000a900473ffffffffffffffffffffffffffffffffffffffff1673ffffffffffffffffffffffffffffffffffffffff1673ffffffffffffffffffffffffffffffffffffffff1681526020016001820180546136c590615892565b80601f01602080910402602001604051908101604052809291908181526020018280546136f190615892565b801561373e5780601f106137135761010080835404028352916020019161373e565b820191906000526020600020905b81548152906001019060200180831161372157829003601f168201915b5050505050815260200160028201805461375790615892565b80601f016020809104026020016040519081016040528092919081815260200182805461378390615892565b80156137d05780601f106137a5576101008083540402835291602001916137d0565b820191906000526020600020905b8154815290600101906020018083116137b357829003601f168201915b505050505081526020016003820180546137e990615892565b80601f016020809104026020016040519081016040528092919081815260200182805461381590615892565b80156138625780601f1061383757610100808354040283529160200191613862565b820191906000526020600020905b81548152906001019060200180831161384557829003601f168201915b505050505081526020016004820160009054906101000a900460ff1615151515815250509050919050565b600b8560405161389d9190615d33565b908152602001604051809103902060060160009054906101000a900460ff16156138fc576040517f08c379a00000000000000000000000000000000000000000000000000000000081526004016138f390615843565b60405180910390fd5b60006040518060e001604052803373ffffffffffffffffffffffffffffffffffffffff16815260200187815260200186815260200185815260200184815260200183815260200160011515815250905080600b8760405161395d9190615d33565b908152602001604051809103902060008201518160000160006101000a81548173ffffffffffffffffffffffffffffffffffffffff021916908373ffffffffffffffffffffffffffffffffffffffff16021790555060208201518160010190816139c79190615a79565b5060408201518160020190816139dd9190615a79565b5060608201518160030190816139f39190615a79565b506080820151816004019081613a099190615a79565b5060a0820151816005019081613a1f9190615a79565b5060c08201518160060160006101000a81548160ff021916908315150217905550905050600c86908060018154018082558091505060019003906000526020600020016000909190919091509081613a779190615a79565b50505050505050565b6060600060068054905067ffffffffffffffff811115613aa357613aa2614478565b5b604051908082528060200260200182016040528015613adc57816020015b613ac96143a4565b815260200190600190039081613ac15790505b50905060005b600680549050811015613dcf576005600060068381548110613b0757613b06615bb7565b5b9060005260206000200160009054906101000a900473ffffffffffffffffffffffffffffffffffffffff1673ffffffffffffffffffffffffffffffffffffffff1673ffffffffffffffffffffffffffffffffffffffff1681526020019081526020016000206040518060a00160405290816000820160009054906101000a900473ffffffffffffffffffffffffffffffffffffffff1673ffffffffffffffffffffffffffffffffffffffff1673ffffffffffffffffffffffffffffffffffffffff168152602001600182018054613bdd90615892565b80601f0160208091040260200160405190810160405280929190818152602001828054613c0990615892565b8015613c565780601f10613c2b57610100808354040283529160200191613c56565b820191906000526020600020905b815481529060010190602001808311613c3957829003601f168201915b50505050508152602001600282018054613c6f90615892565b80601f0160208091040260200160405190810160405280929190818152602001828054613c9b90615892565b8015613ce85780601f10613cbd57610100808354040283529160200191613ce8565b820191906000526020600020905b815481529060010190602001808311613ccb57829003601f168201915b50505050508152602001600382018054613d0190615892565b80601f0160208091040260200160405190810160405280929190818152602001828054613d2d90615892565b8015613d7a5780601f10613d4f57610100808354040283529160200191613d7a565b820191906000526020600020905b815481529060010190602001808311613d5d57829003601f168201915b505050505081526020016004820160009054906101000a900460ff161515151581525050828281518110613db157613db0615bb7565b5b60200260200101819052508080613dc790615cba565b915050613ae2565b508091505090565b60606000600c8054905067ffffffffffffffff811115613dfa57613df9614478565b5b604051908082528060200260200182016040528015613e3357816020015b613e2061434f565b815260200190600190039081613e185790505b50905060005b600c8054905081101561420857600b600c8281548110613e5c57613e5b615bb7565b5b90600052602060002001604051613e739190615c74565b90815260200160405180910390206040518060e00160405290816000820160009054906101000a900473ffffffffffffffffffffffffffffffffffffffff1673ffffffffffffffffffffffffffffffffffffffff1673ffffffffffffffffffffffffffffffffffffffff168152602001600182018054613ef290615892565b80601f0160208091040260200160405190810160405280929190818152602001828054613f1e90615892565b8015613f6b5780601f10613f4057610100808354040283529160200191613f6b565b820191906000526020600020905b815481529060010190602001808311613f4e57829003601f168201915b50505050508152602001600282018054613f8490615892565b80601f0160208091040260200160405190810160405280929190818152602001828054613fb090615892565b8015613ffd5780601f10613fd257610100808354040283529160200191613ffd565b820191906000526020600020905b815481529060010190602001808311613fe057829003601f168201915b5050505050815260200160038201805461401690615892565b80601f016020809104026020016040519081016040528092919081815260200182805461404290615892565b801561408f5780601f106140645761010080835404028352916020019161408f565b820191906000526020600020905b81548152906001019060200180831161407257829003601f168201915b505050505081526020016004820180546140a890615892565b80601f01602080910402602001604051908101604052809291908181526020018280546140d490615892565b80156141215780601f106140f657610100808354040283529160200191614121565b820191906000526020600020905b81548152906001019060200180831161410457829003601f168201915b5050505050815260200160058201805461413a90615892565b80601f016020809104026020016040519081016040528092919081815260200182805461416690615892565b80156141b35780601f10614188576101008083540402835291602001916141b3565b820191906000526020600020905b81548152906001019060200180831161419657829003601f168201915b505050505081526020016006820160009054906101000a900460ff1615151515815250508282815181106141ea576141e9615bb7565b5b6020026020010181905250808061420090615cba565b915050613e39565b508091505090565b6040518060e00160405280600073ffffffffffffffffffffffffffffffffffffffff16815260200160608152602001606081526020016060815260200160608152602001606081526020016000151581525090565b6040518060c00160405280600073ffffffffffffffffffffffffffffffffffffffff168152602001606081526020016060815260200160608152602001606081526020016000151581525090565b6040518060e00160405280600073ffffffffffffffffffffffffffffffffffffffff16815260200160608152602001606081526020016060815260200160608152602001600015158152602001606081525090565b6040518060a00160405280600073ffffffffffffffffffffffffffffffffffffffff1681526020016060815260200160608152602001606081526020016000151581525090565b6040518060e00160405280600073ffffffffffffffffffffffffffffffffffffffff16815260200160608152602001606081526020016060815260200160608152602001606081526020016000151581525090565b6040518060a00160405280600073ffffffffffffffffffffffffffffffffffffffff1681526020016060815260200160608152602001606081526020016000151581525090565b6000604051905090565b600080fd5b600080fd5b600073ffffffffffffffffffffffffffffffffffffffff82169050919050565b600061442a826143ff565b9050919050565b61443a8161441f565b811461444557600080fd5b50565b60008135905061445781614431565b92915050565b600080fd5b600080fd5b6000601f19601f8301169050919050565b7f4e487b7100000000000000000000000000000000000000000000000000000000600052604160045260246000fd5b6144b082614467565b810181811067ffffffffffffffff821117156144cf576144ce614478565b5b80604052505050565b60006144e26143eb565b90506144ee82826144a7565b919050565b600067ffffffffffffffff82111561450e5761450d614478565b5b61451782614467565b9050602081019050919050565b82818337600083830152505050565b6000614546614541846144f3565b6144d8565b90508281526020810184848401111561456257614561614462565b5b61456d848285614524565b509392505050565b600082601f83011261458a5761458961445d565b5b813561459a848260208601614533565b91505092915050565b600080600080608085870312156145bd576145bc6143f5565b5b60006145cb87828801614448565b945050602085013567ffffffffffffffff8111156145ec576145eb6143fa565b5b6145f887828801614575565b935050604085013567ffffffffffffffff811115614619576146186143fa565b5b61462587828801614575565b925050606085013567ffffffffffffffff811115614646576146456143fa565b5b61465287828801614575565b91505092959194509250565b600060208284031215614674576146736143f5565b5b600061468284828501614448565b91505092915050565b600081519050919050565b600082825260208201905092915050565b60005b838110156146c55780820151818401526020810190506146aa565b60008484015250505050565b60006146dc8261468b565b6146e68185614696565b93506146f68185602086016146a7565b6146ff81614467565b840191505092915050565b6000602082019050818103600083015261472481846146d1565b905092915050565b600081519050919050565b600082825260208201905092915050565b6000819050602082019050919050565b6147618161441f565b82525050565b600082825260208201905092915050565b60006147838261468b565b61478d8185614767565b935061479d8185602086016146a7565b6147a681614467565b840191505092915050565b60008115159050919050565b6147c6816147b1565b82525050565b600060e0830160008301516147e46000860182614758565b50602083015184820360208601526147fc8282614778565b915050604083015184820360408601526148168282614778565b915050606083015184820360608601526148308282614778565b9150506080830151848203608086015261484a8282614778565b91505060a083015184820360a08601526148648282614778565b91505060c083015161487960c08601826147bd565b508091505092915050565b600061489083836147cc565b905092915050565b6000602082019050919050565b60006148b08261472c565b6148ba8185614737565b9350836020820285016148cc85614748565b8060005b8581101561490857848403895281516148e98582614884565b94506148f483614898565b925060208a019950506001810190506148d0565b50829750879550505050505092915050565b6000602082019050818103600083015261493481846148a5565b905092915050565b600081519050919050565b600082825260208201905092915050565b6000819050602082019050919050565b600060c0830160008301516149806000860182614758565b50602083015184820360208601526149988282614778565b915050604083015184820360408601526149b28282614778565b915050606083015184820360608601526149cc8282614778565b915050608083015184820360808601526149e68282614778565b91505060a08301516149fb60a08601826147bd565b508091505092915050565b6000614a128383614968565b905092915050565b6000602082019050919050565b6000614a328261493c565b614a3c8185614947565b935083602082028501614a4e85614958565b8060005b85811015614a8a5784840389528151614a6b8582614a06565b9450614a7683614a1a565b925060208a01995050600181019050614a52565b50829750879550505050505092915050565b60006020820190508181036000830152614ab68184614a27565b905092915050565b600080600080600060a08688031215614ada57614ad96143f5565b5b6000614ae888828901614448565b955050602086013567ffffffffffffffff811115614b0957614b086143fa565b5b614b1588828901614575565b945050604086013567ffffffffffffffff811115614b3657614b356143fa565b5b614b4288828901614575565b935050606086013567ffffffffffffffff811115614b6357614b626143fa565b5b614b6f88828901614575565b925050608086013567ffffffffffffffff811115614b9057614b8f6143fa565b5b614b9c88828901614575565b9150509295509295909350565b600060c083016000830151614bc16000860182614758565b5060208301518482036020860152614bd98282614778565b91505060408301518482036040860152614bf38282614778565b91505060608301518482036060860152614c0d8282614778565b91505060808301518482036080860152614c278282614778565b91505060a0830151614c3c60a08601826147bd565b508091505092915050565b60006020820190508181036000830152614c618184614ba9565b905092915050565b600080600080600060a08688031215614c8557614c846143f5565b5b600086013567ffffffffffffffff811115614ca357614ca26143fa565b5b614caf88828901614575565b955050602086013567ffffffffffffffff811115614cd057614ccf6143fa565b5b614cdc88828901614575565b945050604086013567ffffffffffffffff811115614cfd57614cfc6143fa565b5b614d0988828901614575565b935050606086013567ffffffffffffffff811115614d2a57614d296143fa565b5b614d3688828901614575565b925050608086013567ffffffffffffffff811115614d5757614d566143fa565b5b614d6388828901614575565b9150509295509295909350565b60008060408385031215614d8757614d866143f5565b5b6000614d9585828601614448565b925050602083013567ffffffffffffffff811115614db657614db56143fa565b5b614dc285828601614575565b9150509250929050565b600060e083016000830151614de46000860182614758565b5060208301518482036020860152614dfc8282614778565b91505060408301518482036040860152614e168282614778565b91505060608301518482036060860152614e308282614778565b91505060808301518482036080860152614e4a8282614778565b91505060a0830151614e5f60a08601826147bd565b5060c083015184820360c0860152614e778282614778565b9150508091505092915050565b60006020820190508181036000830152614e9e8184614dcc565b905092915050565b600081519050919050565b600082825260208201905092915050565b6000819050602082019050919050565b600060e083016000830151614eea6000860182614758565b5060208301518482036020860152614f028282614778565b91505060408301518482036040860152614f1c8282614778565b91505060608301518482036060860152614f368282614778565b91505060808301518482036080860152614f508282614778565b91505060a0830151614f6560a08601826147bd565b5060c083015184820360c0860152614f7d8282614778565b9150508091505092915050565b6000614f968383614ed2565b905092915050565b6000602082019050919050565b6000614fb682614ea6565b614fc08185614eb1565b935083602082028501614fd285614ec2565b8060005b8581101561500e5784840389528151614fef8582614f8a565b9450614ffa83614f9e565b925060208a01995050600181019050614fd6565b50829750879550505050505092915050565b6000602082019050818103600083015261503a8184614fab565b905092915050565b600060a08301600083015161505a6000860182614758565b50602083015184820360208601526150728282614778565b9150506040830151848203604086015261508c8282614778565b915050606083015184820360608601526150a68282614778565b91505060808301516150bb60808601826147bd565b508091505092915050565b600060208201905081810360008301526150e08184615042565b905092915050565b6000602082840312156150fe576150fd6143f5565b5b600082013567ffffffffffffffff81111561511c5761511b6143fa565b5b61512884828501614575565b91505092915050565b600060e0830160008301516151496000860182614758565b50602083015184820360208601526151618282614778565b9150506040830151848203604086015261517b8282614778565b915050606083015184820360608601526151958282614778565b915050608083015184820360808601526151af8282614778565b91505060a083015184820360a08601526151c98282614778565b91505060c08301516151de60c08601826147bd565b508091505092915050565b600060208201905081810360008301526152038184615131565b905092915050565b600081519050919050565b600082825260208201905092915050565b6000819050602082019050919050565b600060a08301600083015161524f6000860182614758565b50602083015184820360208601526152678282614778565b915050604083015184820360408601526152818282614778565b9150506060830151848203606086015261529b8282614778565b91505060808301516152b060808601826147bd565b508091505092915050565b60006152c78383615237565b905092915050565b6000602082019050919050565b60006152e78261520b565b6152f18185615216565b93508360208202850161530385615227565b8060005b8581101561533f578484038952815161532085826152bb565b945061532b836152cf565b925060208a01995050600181019050615307565b50829750879550505050505092915050565b6000602082019050818103600083015261536b81846152dc565b905092915050565b600060e08301600083015161538b6000860182614758565b50602083015184820360208601526153a38282614778565b915050604083015184820360408601526153bd8282614778565b915050606083015184820360608601526153d78282614778565b915050608083015184820360808601526153f18282614778565b91505060a083015184820360a086015261540b8282614778565b91505060c083015161542060c08601826147bd565b508091505092915050565b600060208201905081810360008301526154458184615373565b905092915050565b600060a0830160008301516154656000860182614758565b506020830151848203602086015261547d8282614778565b915050604083015184820360408601526154978282614778565b915050606083015184820360608601526154b18282614778565b91505060808301516154c660808601826147bd565b508091505092915050565b600060208201905081810360008301526154eb818461544d565b905092915050565b600081519050919050565b600082825260208201905092915050565b6000819050602082019050919050565b600060a0830160008301516155376000860182614758565b506020830151848203602086015261554f8282614778565b915050604083015184820360408601526155698282614778565b915050606083015184820360608601526155838282614778565b915050608083015161559860808601826147bd565b508091505092915050565b60006155af838361551f565b905092915050565b6000602082019050919050565b60006155cf826154f3565b6155d981856154fe565b9350836020820285016155eb8561550f565b8060005b85811015615627578484038952815161560885826155a3565b9450615613836155b7565b925060208a019950506001810190506155ef565b50829750879550505050505092915050565b6000602082019050818103600083015261565381846155c4565b905092915050565b600081519050919050565b600082825260208201905092915050565b6000819050602082019050919050565b600060e08301600083015161569f6000860182614758565b50602083015184820360208601526156b78282614778565b915050604083015184820360408601526156d18282614778565b915050606083015184820360608601526156eb8282614778565b915050608083015184820360808601526157058282614778565b91505060a083015184820360a086015261571f8282614778565b91505060c083015161573460c08601826147bd565b508091505092915050565b600061574b8383615687565b905092915050565b6000602082019050919050565b600061576b8261565b565b6157758185615666565b93508360208202850161578785615677565b8060005b858110156157c357848403895281516157a4858261573f565b94506157af83615753565b925060208a0199505060018101905061578b565b50829750879550505050505092915050565b600060208201905081810360008301526157ef8184615760565b905092915050565b7f44657461696c7320416c72656164792045786973746564000000000000000000600082015250565b600061582d601783614696565b9150615838826157f7565b602082019050919050565b6000602082019050818103600083015261585c81615820565b9050919050565b7f4e487b7100000000000000000000000000000000000000000000000000000000600052602260045260246000fd5b600060028204905060018216806158aa57607f821691505b6020821081036158bd576158bc615863565b5b50919050565b60008190508160005260206000209050919050565b60006020601f8301049050919050565b600082821b905092915050565b6000600883026159257fffffffffffffffffffffffffffffffffffffffffffffffffffffffffffffffff826158e8565b61592f86836158e8565b95508019841693508086168417925050509392505050565b6000819050919050565b6000819050919050565b600061597661597161596c84615947565b615951565b615947565b9050919050565b6000819050919050565b6159908361595b565b6159a461599c8261597d565b8484546158f5565b825550505050565b600090565b6159b96159ac565b6159c4818484615987565b505050565b5b818110156159e8576159dd6000826159b1565b6001810190506159ca565b5050565b601f821115615a2d576159fe816158c3565b615a07846158d8565b81016020851015615a16578190505b615a2a615a22856158d8565b8301826159c9565b50505b505050565b600082821c905092915050565b6000615a5060001984600802615a32565b1980831691505092915050565b6000615a698383615a3f565b9150826002028217905092915050565b615a828261468b565b67ffffffffffffffff811115615a9b57615a9a614478565b5b615aa58254615892565b615ab08282856159ec565b600060209050601f831160018114615ae35760008415615ad1578287015190505b615adb8582615a5d565b865550615b43565b601f198416615af1866158c3565b60005b82811015615b1957848901518255600182019150602085019450602081019050615af4565b86831015615b365784890151615b32601f891682615a3f565b8355505b6001600288020188555050505b505050505050565b7f4e6f207265636f7264207769746820746869732077616c6c6574000000000000600082015250565b6000615b81601a83614696565b9150615b8c82615b4b565b602082019050919050565b60006020820190508181036000830152615bb081615b74565b9050919050565b7f4e487b7100000000000000000000000000000000000000000000000000000000600052603260045260246000fd5b600081905092915050565b60008154615bfe81615892565b615c088186615be6565b94506001821660008114615c235760018114615c3857615c6b565b60ff1983168652811515820286019350615c6b565b615c41856158c3565b60005b83811015615c6357815481890152600182019150602081019050615c44565b838801955050505b50505092915050565b6000615c808284615bf1565b915081905092915050565b7f4e487b7100000000000000000000000000000000000000000000000000000000600052601160045260246000fd5b6000615cc582615947565b91507fffffffffffffffffffffffffffffffffffffffffffffffffffffffffffffffff8203615cf757615cf6615c8b565b5b600182019050919050565b6000615d0d8261468b565b615d178185615be6565b9350615d278185602086016146a7565b80840191505092915050565b6000615d3f8284615d02565b915081905092915050565b7f4f6e6c792061646d696e2063616e207570646174652074686520737461747573600082015250565b6000615d80602083614696565b9150615d8b82615d4a565b602082019050919050565b60006020820190508181036000830152615daf81615d73565b9050919050565b7f5573657220646f6573206e6f7420657869737400000000000000000000000000600082015250565b6000615dec601383614696565b9150615df782615db6565b602082019050919050565b60006020820190508181036000830152615e1b81615ddf565b9050919050565b7f496e76616c696420737461747573000000000000000000000000000000000000600082015250565b6000615e58600e83614696565b9150615e6382615e22565b602082019050919050565b60006020820190508181036000830152615e8781615e4b565b9050919050565b7f4e6f207265636f72642077697468207468697320706f6c696379496400000000600082015250565b6000615ec4601c83614696565b9150615ecf82615e8e565b602082019050919050565b60006020820190508181036000830152615ef381615eb7565b905091905056fea2646970667358221220e246aa1100cde550034f7435515bb07b4666e22b05c2f32f497209d9a5d1916764736f6c63430008130033",
  "immutableReferences": {},
  "source": "// SPDX-License-Identifier: MIT\npragma solidity >=0.4.22 <0.9.0;\n\ncontract InsuranceClaim {\n    address admin;\n\n    constructor() {\n        admin = msg.sender;\n    }\n\n    struct UserDetails {\n        address _wallet;\n        string _insuranceType;\n        string _policyId;\n        string _adharNumber;\n        string _phoneNumber;\n        bool _exist;\n        string _status;\n    }\n\n    mapping(address => UserDetails) userDetails;\n    address[] userAddresses;\n\n    struct NomineeDetails {\n        address _wallet;\n        string _nomineeName;\n        string _nomineeAdhar;\n        string _nomineePhoneNumber;\n        bool _exist;\n    }\n\n    mapping(address => NomineeDetails) nomineeDetails;\n    address[] nomineeAddresses;\n\n    struct BankDetails {\n        address _wallet;\n        string _bankName;\n        string _accountNumber;\n        string _ifscCode;\n        bool _exist;\n    }\n\n    mapping(address => BankDetails) bankDetails;\n    address[] bankAddresses;\n\n    struct certificateDetails {\n        address _wallet;\n        string _policyPaperPath;\n        string _policyPaperHash;\n        string _reportPaperPath;\n        string _reportPaperHash;\n        bool _exist;\n    }\n\n    mapping(address => certificateDetails) certificates;\n    address[] certificateAddresses;\n\n    struct PoliceDetails{\n      address _wallet;\n      string _policyId;\n      string _policeName;\n      string _policeContactNumber;\n      string _policeFIRPath;\n      string _policeFIRHash;\n      bool _exist;\n    }\n\n    // mapping(address => PoliceDetails) policeDetails;\n    // address[] policeAddresses;\n\n    mapping(string => PoliceDetails) policeDetails;  // Use policyId as the key\n    string[] policeAddresses;  // Store policyId instead of wallet\n\n    struct HospitalDetails{\n      address _wallet;\n      string _policyId;\n      string _doctorName;\n      string _doctorContactNumber;\n      string _doctorreportPath;\n      string _doctorreportHash; \n      bool _exist;\n    }\n\n    // mapping(address => HospitalDetails) hospitalDetails;\n    // address[] hospitalAddresses;\n\n    mapping(string => HospitalDetails) hospitalDetails;  // Use policyId as the key\n    string[] hospitalAddresses;  // Store policyId instead of wallet\n\n    // UserDetails Functions\n    function addUserDetails(\n        address wallet,\n        string memory insuranceType,\n        string memory policyId,\n        string memory adharNumber,\n        string memory phoneNumber\n    ) public {\n        require(!userDetails[wallet]._exist, \"Details Already Existed\");\n\n        UserDetails memory new_user = UserDetails(wallet, insuranceType, policyId, adharNumber, phoneNumber, true,\"Pending\");\n        userDetails[wallet] = new_user;\n        userAddresses.push(wallet);\n    }\n\n    function viewUserDetailsByWallet(address wallet) public view returns (UserDetails memory) {\n        require(userDetails[wallet]._exist, \"No record with this wallet\");\n        return userDetails[wallet];\n    }\n\n    function viewAllUserDetails() public view returns (UserDetails[] memory) {\n        UserDetails[] memory userArray = new UserDetails[](userAddresses.length);\n\n        for (uint i = 0; i < userAddresses.length; i++) {\n            userArray[i] = userDetails[userAddresses[i]];\n        }\n        return userArray;\n    }\n\n    function updateApplicationStatus(address wallet, string memory newStatus) public {\n        require(msg.sender == admin, \"Only admin can update the status\");\n        require(userDetails[wallet]._exist, \"User does not exist\");\n        require(keccak256(bytes(newStatus)) == keccak256(bytes(\"Approved\")) || keccak256(bytes(newStatus)) == keccak256(bytes(\"Rejected\")), \"Invalid status\");\n\n        userDetails[wallet]._status = newStatus;\n    }\n\n    // Get Application Status for a user\n    function getApplicationStatus(address wallet) public view returns (string memory) {\n        require(userDetails[wallet]._exist, \"No record with this wallet\");\n        return userDetails[wallet]._status;\n    }\n\n    // NomineeDetails Functions\n    function addNomineeDetails(\n        address wallet,\n        string memory nomineeName,\n        string memory nomineeAdhar,\n        string memory nomineePhoneNumber\n    ) public {\n        require(!nomineeDetails[wallet]._exist, \"Details Already Existed\");\n\n        NomineeDetails memory new_nominee = NomineeDetails(wallet, nomineeName, nomineeAdhar, nomineePhoneNumber, true);\n        nomineeDetails[wallet] = new_nominee;\n        nomineeAddresses.push(wallet);\n    }\n\n    function viewNomineeDetailsByWallet(address wallet) public view returns (NomineeDetails memory) {\n        require(nomineeDetails[wallet]._exist, \"No record with this wallet\");\n        return nomineeDetails[wallet];\n    }\n\n    function viewAllNomineeDetails() public view returns (NomineeDetails[] memory) {\n        NomineeDetails[] memory nomineeArray = new NomineeDetails[](nomineeAddresses.length);\n\n        for (uint i = 0; i < nomineeAddresses.length; i++) {\n            nomineeArray[i] = nomineeDetails[nomineeAddresses[i]];\n        }\n        return nomineeArray;\n    }\n\n    // BankDetails Functions\n    function addBankDetails(\n        address wallet,\n        string memory bankName,\n        string memory accountNumber,\n        string memory ifscCode\n    ) public {\n        require(!bankDetails[wallet]._exist, \"Details Already Existed\");\n\n        BankDetails memory new_bank = BankDetails(wallet, bankName, accountNumber, ifscCode, true);\n        bankDetails[wallet] = new_bank;\n        bankAddresses.push(wallet);\n    }\n\n    function viewBankDetailsByWallet(address wallet) public view returns (BankDetails memory) {\n        require(bankDetails[wallet]._exist, \"No record with this wallet\");\n        return bankDetails[wallet];\n    }\n\n    function viewAllBankDetails() public view returns (BankDetails[] memory) {\n        BankDetails[] memory bankArray = new BankDetails[](bankAddresses.length);\n\n        for (uint i = 0; i < bankAddresses.length; i++) {\n            bankArray[i] = bankDetails[bankAddresses[i]];\n        }\n        return bankArray;\n    }\n\n    // CertificateDetails Functions\n    function addCertificateDetails(\n        address wallet,\n        string memory policyPaperPath,\n        string memory policyPaperHash,\n        string memory reportPaperPath,\n        string memory reportPaperHash\n    ) public {\n        require(!certificates[wallet]._exist, \"Details Already Existed\");\n\n        certificateDetails memory new_certificate = certificateDetails(\n            wallet,\n            policyPaperPath,\n            policyPaperHash,\n            reportPaperPath,\n            reportPaperHash,\n            true\n        );\n        certificates[wallet] = new_certificate;\n        certificateAddresses.push(wallet);\n    }\n\n    function viewCertificateDetailsByWallet(address wallet) public view returns (certificateDetails memory) {\n        require(certificates[wallet]._exist, \"No record with this wallet\");\n        return certificates[wallet];\n    }\n\n    function viewAllCertificateDetails() public view returns (certificateDetails[] memory) {\n        certificateDetails[] memory certificateArray = new certificateDetails[](certificateAddresses.length);\n\n        for (uint i = 0; i < certificateAddresses.length; i++) {\n            certificateArray[i] = certificates[certificateAddresses[i]];\n        }\n        return certificateArray;\n    }\n\n    // function addPoliceDetails(\n    //     address wallet,\n    //     string memory policyId,\n    //     string memory policeName,\n    //     string memory policeContactNumber,\n    //     string memory policeFIRPath,\n    //     string memory policeFIRHash\n    // ) public {\n    //     require(!policeDetails[wallet]._exist, \"Details Already Existed\");\n\n    //     PoliceDetails memory new_police = PoliceDetails(\n    //         wallet,\n    //         policyId,\n    //         policeName,\n    //         policeContactNumber,\n    //         policeFIRPath,\n    //         policeFIRHash,\n    //         true\n    //     );\n    //     policeDetails[wallet] = new_police;\n    //     policeAddresses.push(wallet);\n    // }\n\n    // function viewPoliceDetailsByWallet(address wallet) public view returns (PoliceDetails memory) {\n    //     require(policeDetails[wallet]._exist, \"No record with this wallet\");\n    //     return policeDetails[wallet];\n    // }\n\n    // function viewAllPoliceDetails() public view returns (PoliceDetails[] memory) {\n    //     PoliceDetails[] memory policeArray = new PoliceDetails[](policeAddresses.length);\n\n    //     for (uint i = 0; i < policeAddresses.length; i++) {\n    //         policeArray[i] = policeDetails[policeAddresses[i]];\n    //     }\n    //     return policeArray;\n    // }\n\n    // // HospitalDetails Functions\n    // function addHospitalDetails(\n    //     address wallet,\n    //     string memory policyId,\n    //     string memory doctorName,\n    //     string memory doctorContactNumber,\n    //     string memory doctorReportPath,\n    //     string memory doctorReportHash\n    // ) public {\n    //     require(!hospitalDetails[wallet]._exist, \"Details Already Existed\");\n\n    //     HospitalDetails memory new_hospital = HospitalDetails(\n    //         wallet,\n    //         policyId,\n    //         doctorName,\n    //         doctorContactNumber,\n    //         doctorReportPath,\n    //         doctorReportHash,\n    //         true\n    //     );\n    //     hospitalDetails[wallet] = new_hospital;\n    //     hospitalAddresses.push(wallet);\n    // }\n\n    // function viewHospitalDetailsByWallet(address wallet) public view returns (HospitalDetails memory) {\n    //     require(hospitalDetails[wallet]._exist, \"No record with this wallet\");\n    //     return hospitalDetails[wallet];\n    // }\n\n    // function viewAllHospitalDetails() public view returns (HospitalDetails[] memory) {\n    //     HospitalDetails[] memory hospitalArray = new HospitalDetails[](hospitalAddresses.length);\n\n    //     for (uint i = 0; i < hospitalAddresses.length; i++) {\n    //         hospitalArray[i] = hospitalDetails[hospitalAddresses[i]];\n    //     }\n    //     return hospitalArray;\n    // }\n    function addPoliceDetails(\n    string memory policyId, // Use policyId instead of wallet\n    string memory policeName,\n    string memory policeContactNumber,\n    string memory policeFIRPath,\n    string memory policeFIRHash\n) public {\n    require(!policeDetails[policyId]._exist, \"Details Already Existed\");\n\n    PoliceDetails memory new_police = PoliceDetails(\n        msg.sender, // wallet (msg.sender) is now implied as it's the sender\n        policyId,\n        policeName,\n        policeContactNumber,\n        policeFIRPath,\n        policeFIRHash,\n        true\n    );\n    policeDetails[policyId] = new_police; // Use policyId as the key\n    policeAddresses.push(policyId); // Store policyId instead of wallet\n}\nfunction viewPoliceDetailsByPolicyId(string memory policyId) public view returns (PoliceDetails memory) {\n    require(policeDetails[policyId]._exist, \"No record with this policyId\");\n    return policeDetails[policyId];\n}\nfunction viewAllPoliceDetails() public view returns (PoliceDetails[] memory) {\n    PoliceDetails[] memory policeArray = new PoliceDetails[](policeAddresses.length);\n\n    for (uint i = 0; i < policeAddresses.length; i++) {\n        policeArray[i] = policeDetails[policeAddresses[i]]; // Access police details by policyId\n    }\n    return policeArray;\n}\n\nfunction addHospitalDetails(\n    string memory policyId, // Use policyId instead of wallet\n    string memory doctorName,\n    string memory doctorContactNumber,\n    string memory doctorReportPath,\n    string memory doctorReportHash\n) public {\n    require(!hospitalDetails[policyId]._exist, \"Details Already Existed\");\n\n    HospitalDetails memory new_hospital = HospitalDetails(\n        msg.sender, // wallet (msg.sender) is now implied as it's the sender\n        policyId,\n        doctorName,\n        doctorContactNumber,\n        doctorReportPath,\n        doctorReportHash,\n        true\n    );\n    hospitalDetails[policyId] = new_hospital; // Use policyId as the key\n    hospitalAddresses.push(policyId); // Store policyId instead of wallet\n}\n\nfunction viewHospitalDetailsByPolicyId(string memory policyId) public view returns (HospitalDetails memory) {\n    require(hospitalDetails[policyId]._exist, \"No record with this policyId\");\n    return hospitalDetails[policyId];\n}\n\nfunction viewAllHospitalDetails() public view returns (HospitalDetails[] memory) {\n    HospitalDetails[] memory hospitalArray = new HospitalDetails[](hospitalAddresses.length);\n\n    for (uint i = 0; i < hospitalAddresses.length; i++) {\n        hospitalArray[i] = hospitalDetails[hospitalAddresses[i]]; // Access hospital details by policyId\n    }\n    return hospitalArray;\n}\n\n\n}\n\n",
  "sourcePath": "C:\\Users\\Sudheer\\Downloads\\Blockchain-KT-Project\\Blockchain-KT-Project\\contracts\\InsuranceClaim.sol",
  "compiler": {
    "name": "solc",
    "version": "0.8.19+commit.7dd6d404.Emscripten.clang"
  },
  "schemaVersion": "3.4.16",
  "updatedAt": "2025-01-11T18:16:53.198Z",
  "devdoc": {
    "kind": "dev",
    "methods": {},
    "version": 1
  },
  "userdoc": {
    "kind": "user",
    "methods": {},
    "version": 1
  }
}