{
  "contractName": "InsuranceClaim",
  "abi": [
    {
      "inputs": [],
      "stateMutability": "nonpayable",
      "type": "constructor"
    },
    {
      "inputs": [
        {
          "internalType": "address",
          "name": "wallet",
          "type": "address"
        },
        {
          "internalType": "string",
          "name": "insuranceType",
          "type": "string"
        },
        {
          "internalType": "string",
          "name": "policyId",
          "type": "string"
        },
        {
          "internalType": "string",
          "name": "adharNumber",
          "type": "string"
        },
        {
          "internalType": "string",
          "name": "phoneNumber",
          "type": "string"
        }
      ],
      "name": "addUserDetails",
      "outputs": [],
      "stateMutability": "nonpayable",
      "type": "function"
    },
    {
      "inputs": [
        {
          "internalType": "address",
          "name": "wallet",
          "type": "address"
        }
      ],
      "name": "viewUserDetailsByWallet",
      "outputs": [
        {
          "components": [
            {
              "internalType": "address",
              "name": "_wallet",
              "type": "address"
            },
            {
              "internalType": "string",
              "name": "_insuranceType",
              "type": "string"
            },
            {
              "internalType": "string",
              "name": "_policyId",
              "type": "string"
            },
            {
              "internalType": "string",
              "name": "_adharNumber",
              "type": "string"
            },
            {
              "internalType": "string",
              "name": "_phoneNumber",
              "type": "string"
            },
            {
              "internalType": "bool",
              "name": "_exist",
              "type": "bool"
            }
          ],
          "internalType": "struct InsuranceClaim.UserDetails",
          "name": "",
          "type": "tuple"
        }
      ],
      "stateMutability": "view",
      "type": "function",
      "constant": true
    },
    {
      "inputs": [],
      "name": "viewAllUserDetails",
      "outputs": [
        {
          "components": [
            {
              "internalType": "address",
              "name": "_wallet",
              "type": "address"
            },
            {
              "internalType": "string",
              "name": "_insuranceType",
              "type": "string"
            },
            {
              "internalType": "string",
              "name": "_policyId",
              "type": "string"
            },
            {
              "internalType": "string",
              "name": "_adharNumber",
              "type": "string"
            },
            {
              "internalType": "string",
              "name": "_phoneNumber",
              "type": "string"
            },
            {
              "internalType": "bool",
              "name": "_exist",
              "type": "bool"
            }
          ],
          "internalType": "struct InsuranceClaim.UserDetails[]",
          "name": "",
          "type": "tuple[]"
        }
      ],
      "stateMutability": "view",
      "type": "function",
      "constant": true
    },
    {
      "inputs": [
        {
          "internalType": "address",
          "name": "wallet",
          "type": "address"
        },
        {
          "internalType": "string",
          "name": "nomineeName",
          "type": "string"
        },
        {
          "internalType": "string",
          "name": "nomineeAdhar",
          "type": "string"
        },
        {
          "internalType": "string",
          "name": "nomineePhoneNumber",
          "type": "string"
        }
      ],
      "name": "addNomineeDetails",
      "outputs": [],
      "stateMutability": "nonpayable",
      "type": "function"
    },
    {
      "inputs": [
        {
          "internalType": "address",
          "name": "wallet",
          "type": "address"
        }
      ],
      "name": "viewNomineeDetailsByWallet",
      "outputs": [
        {
          "components": [
            {
              "internalType": "address",
              "name": "_wallet",
              "type": "address"
            },
            {
              "internalType": "string",
              "name": "_nomineeName",
              "type": "string"
            },
            {
              "internalType": "string",
              "name": "_nomineeAdhar",
              "type": "string"
            },
            {
              "internalType": "string",
              "name": "_nomineePhoneNumber",
              "type": "string"
            },
            {
              "internalType": "bool",
              "name": "_exist",
              "type": "bool"
            }
          ],
          "internalType": "struct InsuranceClaim.NomineeDetails",
          "name": "",
          "type": "tuple"
        }
      ],
      "stateMutability": "view",
      "type": "function",
      "constant": true
    },
    {
      "inputs": [],
      "name": "viewAllNomineeDetails",
      "outputs": [
        {
          "components": [
            {
              "internalType": "address",
              "name": "_wallet",
              "type": "address"
            },
            {
              "internalType": "string",
              "name": "_nomineeName",
              "type": "string"
            },
            {
              "internalType": "string",
              "name": "_nomineeAdhar",
              "type": "string"
            },
            {
              "internalType": "string",
              "name": "_nomineePhoneNumber",
              "type": "string"
            },
            {
              "internalType": "bool",
              "name": "_exist",
              "type": "bool"
            }
          ],
          "internalType": "struct InsuranceClaim.NomineeDetails[]",
          "name": "",
          "type": "tuple[]"
        }
      ],
      "stateMutability": "view",
      "type": "function",
      "constant": true
    },
    {
      "inputs": [
        {
          "internalType": "address",
          "name": "wallet",
          "type": "address"
        },
        {
          "internalType": "string",
          "name": "bankName",
          "type": "string"
        },
        {
          "internalType": "string",
          "name": "accountNumber",
          "type": "string"
        },
        {
          "internalType": "string",
          "name": "ifscCode",
          "type": "string"
        }
      ],
      "name": "addBankDetails",
      "outputs": [],
      "stateMutability": "nonpayable",
      "type": "function"
    },
    {
      "inputs": [
        {
          "internalType": "address",
          "name": "wallet",
          "type": "address"
        }
      ],
      "name": "viewBankDetailsByWallet",
      "outputs": [
        {
          "components": [
            {
              "internalType": "address",
              "name": "_wallet",
              "type": "address"
            },
            {
              "internalType": "string",
              "name": "_bankName",
              "type": "string"
            },
            {
              "internalType": "string",
              "name": "_accountNumber",
              "type": "string"
            },
            {
              "internalType": "string",
              "name": "_ifscCode",
              "type": "string"
            },
            {
              "internalType": "bool",
              "name": "_exist",
              "type": "bool"
            }
          ],
          "internalType": "struct InsuranceClaim.BankDetails",
          "name": "",
          "type": "tuple"
        }
      ],
      "stateMutability": "view",
      "type": "function",
      "constant": true
    },
    {
      "inputs": [],
      "name": "viewAllBankDetails",
      "outputs": [
        {
          "components": [
            {
              "internalType": "address",
              "name": "_wallet",
              "type": "address"
            },
            {
              "internalType": "string",
              "name": "_bankName",
              "type": "string"
            },
            {
              "internalType": "string",
              "name": "_accountNumber",
              "type": "string"
            },
            {
              "internalType": "string",
              "name": "_ifscCode",
              "type": "string"
            },
            {
              "internalType": "bool",
              "name": "_exist",
              "type": "bool"
            }
          ],
          "internalType": "struct InsuranceClaim.BankDetails[]",
          "name": "",
          "type": "tuple[]"
        }
      ],
      "stateMutability": "view",
      "type": "function",
      "constant": true
    },
    {
      "inputs": [
        {
          "internalType": "address",
          "name": "wallet",
          "type": "address"
        },
        {
          "internalType": "string",
          "name": "policyPaperPath",
          "type": "string"
        },
        {
          "internalType": "string",
          "name": "policyPaperHash",
          "type": "string"
        },
        {
          "internalType": "string",
          "name": "reportPaperPath",
          "type": "string"
        },
        {
          "internalType": "string",
          "name": "reportPaperHash",
          "type": "string"
        }
      ],
      "name": "addCertificateDetails",
      "outputs": [],
      "stateMutability": "nonpayable",
      "type": "function"
    },
    {
      "inputs": [
        {
          "internalType": "address",
          "name": "wallet",
          "type": "address"
        }
      ],
      "name": "viewCertificateDetailsByWallet",
      "outputs": [
        {
          "components": [
            {
              "internalType": "address",
              "name": "_wallet",
              "type": "address"
            },
            {
              "internalType": "string",
              "name": "_policyPaperPath",
              "type": "string"
            },
            {
              "internalType": "string",
              "name": "_policyPaperHash",
              "type": "string"
            },
            {
              "internalType": "string",
              "name": "_reportPaperPath",
              "type": "string"
            },
            {
              "internalType": "string",
              "name": "_reportPaperHash",
              "type": "string"
            },
            {
              "internalType": "bool",
              "name": "_exist",
              "type": "bool"
            }
          ],
          "internalType": "struct InsuranceClaim.certificateDetails",
          "name": "",
          "type": "tuple"
        }
      ],
      "stateMutability": "view",
      "type": "function",
      "constant": true
    },
    {
      "inputs": [],
      "name": "viewAllCertificateDetails",
      "outputs": [
        {
          "components": [
            {
              "internalType": "address",
              "name": "_wallet",
              "type": "address"
            },
            {
              "internalType": "string",
              "name": "_policyPaperPath",
              "type": "string"
            },
            {
              "internalType": "string",
              "name": "_policyPaperHash",
              "type": "string"
            },
            {
              "internalType": "string",
              "name": "_reportPaperPath",
              "type": "string"
            },
            {
              "internalType": "string",
              "name": "_reportPaperHash",
              "type": "string"
            },
            {
              "internalType": "bool",
              "name": "_exist",
              "type": "bool"
            }
          ],
          "internalType": "struct InsuranceClaim.certificateDetails[]",
          "name": "",
          "type": "tuple[]"
        }
      ],
      "stateMutability": "view",
      "type": "function",
      "constant": true
    }
  ],
  "bytecode": "0x608060405234801561001057600080fd5b50336000806101000a81548173ffffffffffffffffffffffffffffffffffffffff021916908373ffffffffffffffffffffffffffffffffffffffff1602179055506139ce806100606000396000f3fe608060405234801561001057600080fd5b50600436106100b45760003560e01c8063731fd67511610071578063731fd6751461018b5780639783f700146101a9578063bd9e6178146101d9578063bdba43d8146101f7578063c6b6694c14610213578063d64a2a2414610243576100b4565b806308959ec1146100b957806320abaf06146100d55780634393ed90146100f157806346eb141a1461010f57806350b4a3791461012b5780635b1d16451461015b575b600080fd5b6100d360048036038101906100ce9190612a05565b610261565b005b6100ef60048036038101906100ea9190612a05565b61048b565b005b6100f96106b5565b6040516101069190612cc9565b60405180910390f35b61012960048036038101906101249190612ceb565b610a9e565b005b61014560048036038101906101409190612dd6565b610ce5565b6040516101529190612ea1565b60405180910390f35b61017560048036038101906101709190612dd6565b611086565b6040516101829190612f61565b60405180910390f35b610193611427565b6040516101a091906130e3565b60405180910390f35b6101c360048036038101906101be9190612dd6565b611810565b6040516101d09190613189565b60405180910390f35b6101e1611b1f565b6040516101ee91906132f1565b60405180910390f35b610211600480360381019061020c9190612ceb565b611e76565b005b61022d60048036038101906102289190612dd6565b6120bd565b60405161023a9190613397565b60405180910390f35b61024b6123cc565b60405161025891906134ff565b60405180910390f35b600560008573ffffffffffffffffffffffffffffffffffffffff1673ffffffffffffffffffffffffffffffffffffffff16815260200190815260200160002060040160009054906101000a900460ff16156102f1576040517f08c379a00000000000000000000000000000000000000000000000000000000081526004016102e89061357e565b60405180910390fd5b60006040518060a001604052808673ffffffffffffffffffffffffffffffffffffffff16815260200185815260200184815260200183815260200160011515815250905080600560008773ffffffffffffffffffffffffffffffffffffffff1673ffffffffffffffffffffffffffffffffffffffff16815260200190815260200160002060008201518160000160006101000a81548173ffffffffffffffffffffffffffffffffffffffff021916908373ffffffffffffffffffffffffffffffffffffffff16021790555060208201518160010190816103d191906137b4565b5060408201518160020190816103e791906137b4565b5060608201518160030190816103fd91906137b4565b5060808201518160040160006101000a81548160ff0219169083151502179055509050506006859080600181540180825580915050600190039060005260206000200160009091909190916101000a81548173ffffffffffffffffffffffffffffffffffffffff021916908373ffffffffffffffffffffffffffffffffffffffff1602179055505050505050565b600360008573ffffffffffffffffffffffffffffffffffffffff1673ffffffffffffffffffffffffffffffffffffffff16815260200190815260200160002060040160009054906101000a900460ff161561051b576040517f08c379a00000000000000000000000000000000000000000000000000000000081526004016105129061357e565b60405180910390fd5b60006040518060a001604052808673ffffffffffffffffffffffffffffffffffffffff16815260200185815260200184815260200183815260200160011515815250905080600360008773ffffffffffffffffffffffffffffffffffffffff1673ffffffffffffffffffffffffffffffffffffffff16815260200190815260200160002060008201518160000160006101000a81548173ffffffffffffffffffffffffffffffffffffffff021916908373ffffffffffffffffffffffffffffffffffffffff16021790555060208201518160010190816105fb91906137b4565b50604082015181600201908161061191906137b4565b50606082015181600301908161062791906137b4565b5060808201518160040160006101000a81548160ff0219169083151502179055509050506004859080600181540180825580915050600190039060005260206000200160009091909190916101000a81548173ffffffffffffffffffffffffffffffffffffffff021916908373ffffffffffffffffffffffffffffffffffffffff1602179055505050505050565b6060600060088054905067ffffffffffffffff8111156106d8576106d76128da565b5b60405190808252806020026020018201604052801561071157816020015b6106fe612723565b8152602001906001900390816106f65790505b50905060005b600880549050811015610a9657600760006008838154811061073c5761073b613886565b5b9060005260206000200160009054906101000a900473ffffffffffffffffffffffffffffffffffffffff1673ffffffffffffffffffffffffffffffffffffffff1673ffffffffffffffffffffffffffffffffffffffff1681526020019081526020016000206040518060c00160405290816000820160009054906101000a900473ffffffffffffffffffffffffffffffffffffffff1673ffffffffffffffffffffffffffffffffffffffff1673ffffffffffffffffffffffffffffffffffffffff168152602001600182018054610812906135cd565b80601f016020809104026020016040519081016040528092919081815260200182805461083e906135cd565b801561088b5780601f106108605761010080835404028352916020019161088b565b820191906000526020600020905b81548152906001019060200180831161086e57829003601f168201915b505050505081526020016002820180546108a4906135cd565b80601f01602080910402602001604051908101604052809291908181526020018280546108d0906135cd565b801561091d5780601f106108f25761010080835404028352916020019161091d565b820191906000526020600020905b81548152906001019060200180831161090057829003601f168201915b50505050508152602001600382018054610936906135cd565b80601f0160208091040260200160405190810160405280929190818152602001828054610962906135cd565b80156109af5780601f10610984576101008083540402835291602001916109af565b820191906000526020600020905b81548152906001019060200180831161099257829003601f168201915b505050505081526020016004820180546109c8906135cd565b80601f01602080910402602001604051908101604052809291908181526020018280546109f4906135cd565b8015610a415780601f10610a1657610100808354040283529160200191610a41565b820191906000526020600020905b815481529060010190602001808311610a2457829003601f168201915b505050505081526020016005820160009054906101000a900460ff161515151581525050828281518110610a7857610a77613886565b5b60200260200101819052508080610a8e906138e4565b915050610717565b508091505090565b600760008673ffffffffffffffffffffffffffffffffffffffff1673ffffffffffffffffffffffffffffffffffffffff16815260200190815260200160002060050160009054906101000a900460ff1615610b2e576040517f08c379a0000000000000000000000000000000000000000000000000000000008152600401610b259061357e565b60405180910390fd5b60006040518060c001604052808773ffffffffffffffffffffffffffffffffffffffff16815260200186815260200185815260200184815260200183815260200160011515815250905080600760008873ffffffffffffffffffffffffffffffffffffffff1673ffffffffffffffffffffffffffffffffffffffff16815260200190815260200160002060008201518160000160006101000a81548173ffffffffffffffffffffffffffffffffffffffff021916908373ffffffffffffffffffffffffffffffffffffffff1602179055506020820151816001019081610c1491906137b4565b506040820151816002019081610c2a91906137b4565b506060820151816003019081610c4091906137b4565b506080820151816004019081610c5691906137b4565b5060a08201518160050160006101000a81548160ff0219169083151502179055509050506008869080600181540180825580915050600190039060005260206000200160009091909190916101000a81548173ffffffffffffffffffffffffffffffffffffffff021916908373ffffffffffffffffffffffffffffffffffffffff160217905550505050505050565b610ced612723565b600760008373ffffffffffffffffffffffffffffffffffffffff1673ffffffffffffffffffffffffffffffffffffffff16815260200190815260200160002060050160009054906101000a900460ff16610d7c576040517f08c379a0000000000000000000000000000000000000000000000000000000008152600401610d7390613978565b60405180910390fd5b600760008373ffffffffffffffffffffffffffffffffffffffff1673ffffffffffffffffffffffffffffffffffffffff1681526020019081526020016000206040518060c00160405290816000820160009054906101000a900473ffffffffffffffffffffffffffffffffffffffff1673ffffffffffffffffffffffffffffffffffffffff1673ffffffffffffffffffffffffffffffffffffffff168152602001600182018054610e2c906135cd565b80601f0160208091040260200160405190810160405280929190818152602001828054610e58906135cd565b8015610ea55780601f10610e7a57610100808354040283529160200191610ea5565b820191906000526020600020905b815481529060010190602001808311610e8857829003601f168201915b50505050508152602001600282018054610ebe906135cd565b80601f0160208091040260200160405190810160405280929190818152602001828054610eea906135cd565b8015610f375780601f10610f0c57610100808354040283529160200191610f37565b820191906000526020600020905b815481529060010190602001808311610f1a57829003601f168201915b50505050508152602001600382018054610f50906135cd565b80601f0160208091040260200160405190810160405280929190818152602001828054610f7c906135cd565b8015610fc95780601f10610f9e57610100808354040283529160200191610fc9565b820191906000526020600020905b815481529060010190602001808311610fac57829003601f168201915b50505050508152602001600482018054610fe2906135cd565b80601f016020809104026020016040519081016040528092919081815260200182805461100e906135cd565b801561105b5780601f106110305761010080835404028352916020019161105b565b820191906000526020600020905b81548152906001019060200180831161103e57829003601f168201915b505050505081526020016005820160009054906101000a900460ff1615151515815250509050919050565b61108e612771565b600160008373ffffffffffffffffffffffffffffffffffffffff1673ffffffffffffffffffffffffffffffffffffffff16815260200190815260200160002060050160009054906101000a900460ff1661111d576040517f08c379a000000000000000000000000000000000000000000000000000000000815260040161111490613978565b60405180910390fd5b600160008373ffffffffffffffffffffffffffffffffffffffff1673ffffffffffffffffffffffffffffffffffffffff1681526020019081526020016000206040518060c00160405290816000820160009054906101000a900473ffffffffffffffffffffffffffffffffffffffff1673ffffffffffffffffffffffffffffffffffffffff1673ffffffffffffffffffffffffffffffffffffffff1681526020016001820180546111cd906135cd565b80601f01602080910402602001604051908101604052809291908181526020018280546111f9906135cd565b80156112465780601f1061121b57610100808354040283529160200191611246565b820191906000526020600020905b81548152906001019060200180831161122957829003601f168201915b5050505050815260200160028201805461125f906135cd565b80601f016020809104026020016040519081016040528092919081815260200182805461128b906135cd565b80156112d85780601f106112ad576101008083540402835291602001916112d8565b820191906000526020600020905b8154815290600101906020018083116112bb57829003601f168201915b505050505081526020016003820180546112f1906135cd565b80601f016020809104026020016040519081016040528092919081815260200182805461131d906135cd565b801561136a5780601f1061133f5761010080835404028352916020019161136a565b820191906000526020600020905b81548152906001019060200180831161134d57829003601f168201915b50505050508152602001600482018054611383906135cd565b80601f01602080910402602001604051908101604052809291908181526020018280546113af906135cd565b80156113fc5780601f106113d1576101008083540402835291602001916113fc565b820191906000526020600020905b8154815290600101906020018083116113df57829003601f168201915b505050505081526020016005820160009054906101000a900460ff1615151515815250509050919050565b6060600060028054905067ffffffffffffffff81111561144a576114496128da565b5b60405190808252806020026020018201604052801561148357816020015b611470612771565b8152602001906001900390816114685790505b50905060005b6002805490508110156118085760016000600283815481106114ae576114ad613886565b5b9060005260206000200160009054906101000a900473ffffffffffffffffffffffffffffffffffffffff1673ffffffffffffffffffffffffffffffffffffffff1673ffffffffffffffffffffffffffffffffffffffff1681526020019081526020016000206040518060c00160405290816000820160009054906101000a900473ffffffffffffffffffffffffffffffffffffffff1673ffffffffffffffffffffffffffffffffffffffff1673ffffffffffffffffffffffffffffffffffffffff168152602001600182018054611584906135cd565b80601f01602080910402602001604051908101604052809291908181526020018280546115b0906135cd565b80156115fd5780601f106115d2576101008083540402835291602001916115fd565b820191906000526020600020905b8154815290600101906020018083116115e057829003601f168201915b50505050508152602001600282018054611616906135cd565b80601f0160208091040260200160405190810160405280929190818152602001828054611642906135cd565b801561168f5780601f106116645761010080835404028352916020019161168f565b820191906000526020600020905b81548152906001019060200180831161167257829003601f168201915b505050505081526020016003820180546116a8906135cd565b80601f01602080910402602001604051908101604052809291908181526020018280546116d4906135cd565b80156117215780601f106116f657610100808354040283529160200191611721565b820191906000526020600020905b81548152906001019060200180831161170457829003601f168201915b5050505050815260200160048201805461173a906135cd565b80601f0160208091040260200160405190810160405280929190818152602001828054611766906135cd565b80156117b35780601f10611788576101008083540402835291602001916117b3565b820191906000526020600020905b81548152906001019060200180831161179657829003601f168201915b505050505081526020016005820160009054906101000a900460ff1615151515815250508282815181106117ea576117e9613886565b5b60200260200101819052508080611800906138e4565b915050611489565b508091505090565b6118186127bf565b600360008373ffffffffffffffffffffffffffffffffffffffff1673ffffffffffffffffffffffffffffffffffffffff16815260200190815260200160002060040160009054906101000a900460ff166118a7576040517f08c379a000000000000000000000000000000000000000000000000000000000815260040161189e90613978565b60405180910390fd5b600360008373ffffffffffffffffffffffffffffffffffffffff1673ffffffffffffffffffffffffffffffffffffffff1681526020019081526020016000206040518060a00160405290816000820160009054906101000a900473ffffffffffffffffffffffffffffffffffffffff1673ffffffffffffffffffffffffffffffffffffffff1673ffffffffffffffffffffffffffffffffffffffff168152602001600182018054611957906135cd565b80601f0160208091040260200160405190810160405280929190818152602001828054611983906135cd565b80156119d05780601f106119a5576101008083540402835291602001916119d0565b820191906000526020600020905b8154815290600101906020018083116119b357829003601f168201915b505050505081526020016002820180546119e9906135cd565b80601f0160208091040260200160405190810160405280929190818152602001828054611a15906135cd565b8015611a625780601f10611a3757610100808354040283529160200191611a62565b820191906000526020600020905b815481529060010190602001808311611a4557829003601f168201915b50505050508152602001600382018054611a7b906135cd565b80601f0160208091040260200160405190810160405280929190818152602001828054611aa7906135cd565b8015611af45780601f10611ac957610100808354040283529160200191611af4565b820191906000526020600020905b815481529060010190602001808311611ad757829003601f168201915b505050505081526020016004820160009054906101000a900460ff1615151515815250509050919050565b6060600060048054905067ffffffffffffffff811115611b4257611b416128da565b5b604051908082528060200260200182016040528015611b7b57816020015b611b686127bf565b815260200190600190039081611b605790505b50905060005b600480549050811015611e6e576003600060048381548110611ba657611ba5613886565b5b9060005260206000200160009054906101000a900473ffffffffffffffffffffffffffffffffffffffff1673ffffffffffffffffffffffffffffffffffffffff1673ffffffffffffffffffffffffffffffffffffffff1681526020019081526020016000206040518060a00160405290816000820160009054906101000a900473ffffffffffffffffffffffffffffffffffffffff1673ffffffffffffffffffffffffffffffffffffffff1673ffffffffffffffffffffffffffffffffffffffff168152602001600182018054611c7c906135cd565b80601f0160208091040260200160405190810160405280929190818152602001828054611ca8906135cd565b8015611cf55780601f10611cca57610100808354040283529160200191611cf5565b820191906000526020600020905b815481529060010190602001808311611cd857829003601f168201915b50505050508152602001600282018054611d0e906135cd565b80601f0160208091040260200160405190810160405280929190818152602001828054611d3a906135cd565b8015611d875780601f10611d5c57610100808354040283529160200191611d87565b820191906000526020600020905b815481529060010190602001808311611d6a57829003601f168201915b50505050508152602001600382018054611da0906135cd565b80601f0160208091040260200160405190810160405280929190818152602001828054611dcc906135cd565b8015611e195780601f10611dee57610100808354040283529160200191611e19565b820191906000526020600020905b815481529060010190602001808311611dfc57829003601f168201915b505050505081526020016004820160009054906101000a900460ff161515151581525050828281518110611e5057611e4f613886565b5b60200260200101819052508080611e66906138e4565b915050611b81565b508091505090565b600160008673ffffffffffffffffffffffffffffffffffffffff1673ffffffffffffffffffffffffffffffffffffffff16815260200190815260200160002060050160009054906101000a900460ff1615611f06576040517f08c379a0000000000000000000000000000000000000000000000000000000008152600401611efd9061357e565b60405180910390fd5b60006040518060c001604052808773ffffffffffffffffffffffffffffffffffffffff16815260200186815260200185815260200184815260200183815260200160011515815250905080600160008873ffffffffffffffffffffffffffffffffffffffff1673ffffffffffffffffffffffffffffffffffffffff16815260200190815260200160002060008201518160000160006101000a81548173ffffffffffffffffffffffffffffffffffffffff021916908373ffffffffffffffffffffffffffffffffffffffff1602179055506020820151816001019081611fec91906137b4565b50604082015181600201908161200291906137b4565b50606082015181600301908161201891906137b4565b50608082015181600401908161202e91906137b4565b5060a08201518160050160006101000a81548160ff0219169083151502179055509050506002869080600181540180825580915050600190039060005260206000200160009091909190916101000a81548173ffffffffffffffffffffffffffffffffffffffff021916908373ffffffffffffffffffffffffffffffffffffffff160217905550505050505050565b6120c5612806565b600560008373ffffffffffffffffffffffffffffffffffffffff1673ffffffffffffffffffffffffffffffffffffffff16815260200190815260200160002060040160009054906101000a900460ff16612154576040517f08c379a000000000000000000000000000000000000000000000000000000000815260040161214b90613978565b60405180910390fd5b600560008373ffffffffffffffffffffffffffffffffffffffff1673ffffffffffffffffffffffffffffffffffffffff1681526020019081526020016000206040518060a00160405290816000820160009054906101000a900473ffffffffffffffffffffffffffffffffffffffff1673ffffffffffffffffffffffffffffffffffffffff1673ffffffffffffffffffffffffffffffffffffffff168152602001600182018054612204906135cd565b80601f0160208091040260200160405190810160405280929190818152602001828054612230906135cd565b801561227d5780601f106122525761010080835404028352916020019161227d565b820191906000526020600020905b81548152906001019060200180831161226057829003601f168201915b50505050508152602001600282018054612296906135cd565b80601f01602080910402602001604051908101604052809291908181526020018280546122c2906135cd565b801561230f5780601f106122e45761010080835404028352916020019161230f565b820191906000526020600020905b8154815290600101906020018083116122f257829003601f168201915b50505050508152602001600382018054612328906135cd565b80601f0160208091040260200160405190810160405280929190818152602001828054612354906135cd565b80156123a15780601f10612376576101008083540402835291602001916123a1565b820191906000526020600020905b81548152906001019060200180831161238457829003601f168201915b505050505081526020016004820160009054906101000a900460ff1615151515815250509050919050565b6060600060068054905067ffffffffffffffff8111156123ef576123ee6128da565b5b60405190808252806020026020018201604052801561242857816020015b612415612806565b81526020019060019003908161240d5790505b50905060005b60068054905081101561271b57600560006006838154811061245357612452613886565b5b9060005260206000200160009054906101000a900473ffffffffffffffffffffffffffffffffffffffff1673ffffffffffffffffffffffffffffffffffffffff1673ffffffffffffffffffffffffffffffffffffffff1681526020019081526020016000206040518060a00160405290816000820160009054906101000a900473ffffffffffffffffffffffffffffffffffffffff1673ffffffffffffffffffffffffffffffffffffffff1673ffffffffffffffffffffffffffffffffffffffff168152602001600182018054612529906135cd565b80601f0160208091040260200160405190810160405280929190818152602001828054612555906135cd565b80156125a25780601f10612577576101008083540402835291602001916125a2565b820191906000526020600020905b81548152906001019060200180831161258557829003601f168201915b505050505081526020016002820180546125bb906135cd565b80601f01602080910402602001604051908101604052809291908181526020018280546125e7906135cd565b80156126345780601f1061260957610100808354040283529160200191612634565b820191906000526020600020905b81548152906001019060200180831161261757829003601f168201915b5050505050815260200160038201805461264d906135cd565b80601f0160208091040260200160405190810160405280929190818152602001828054612679906135cd565b80156126c65780601f1061269b576101008083540402835291602001916126c6565b820191906000526020600020905b8154815290600101906020018083116126a957829003601f168201915b505050505081526020016004820160009054906101000a900460ff1615151515815250508282815181106126fd576126fc613886565b5b60200260200101819052508080612713906138e4565b91505061242e565b508091505090565b6040518060c00160405280600073ffffffffffffffffffffffffffffffffffffffff168152602001606081526020016060815260200160608152602001606081526020016000151581525090565b6040518060c00160405280600073ffffffffffffffffffffffffffffffffffffffff168152602001606081526020016060815260200160608152602001606081526020016000151581525090565b6040518060a00160405280600073ffffffffffffffffffffffffffffffffffffffff1681526020016060815260200160608152602001606081526020016000151581525090565b6040518060a00160405280600073ffffffffffffffffffffffffffffffffffffffff1681526020016060815260200160608152602001606081526020016000151581525090565b6000604051905090565b600080fd5b600080fd5b600073ffffffffffffffffffffffffffffffffffffffff82169050919050565b600061288c82612861565b9050919050565b61289c81612881565b81146128a757600080fd5b50565b6000813590506128b981612893565b92915050565b600080fd5b600080fd5b6000601f19601f8301169050919050565b7f4e487b7100000000000000000000000000000000000000000000000000000000600052604160045260246000fd5b612912826128c9565b810181811067ffffffffffffffff82111715612931576129306128da565b5b80604052505050565b600061294461284d565b90506129508282612909565b919050565b600067ffffffffffffffff8211156129705761296f6128da565b5b612979826128c9565b9050602081019050919050565b82818337600083830152505050565b60006129a86129a384612955565b61293a565b9050828152602081018484840111156129c4576129c36128c4565b5b6129cf848285612986565b509392505050565b600082601f8301126129ec576129eb6128bf565b5b81356129fc848260208601612995565b91505092915050565b60008060008060808587031215612a1f57612a1e612857565b5b6000612a2d878288016128aa565b945050602085013567ffffffffffffffff811115612a4e57612a4d61285c565b5b612a5a878288016129d7565b935050604085013567ffffffffffffffff811115612a7b57612a7a61285c565b5b612a87878288016129d7565b925050606085013567ffffffffffffffff811115612aa857612aa761285c565b5b612ab4878288016129d7565b91505092959194509250565b600081519050919050565b600082825260208201905092915050565b6000819050602082019050919050565b612af581612881565b82525050565b600081519050919050565b600082825260208201905092915050565b60005b83811015612b35578082015181840152602081019050612b1a565b60008484015250505050565b6000612b4c82612afb565b612b568185612b06565b9350612b66818560208601612b17565b612b6f816128c9565b840191505092915050565b60008115159050919050565b612b8f81612b7a565b82525050565b600060c083016000830151612bad6000860182612aec565b5060208301518482036020860152612bc58282612b41565b91505060408301518482036040860152612bdf8282612b41565b91505060608301518482036060860152612bf98282612b41565b91505060808301518482036080860152612c138282612b41565b91505060a0830151612c2860a0860182612b86565b508091505092915050565b6000612c3f8383612b95565b905092915050565b6000602082019050919050565b6000612c5f82612ac0565b612c698185612acb565b935083602082028501612c7b85612adc565b8060005b85811015612cb75784840389528151612c988582612c33565b9450612ca383612c47565b925060208a01995050600181019050612c7f565b50829750879550505050505092915050565b60006020820190508181036000830152612ce38184612c54565b905092915050565b600080600080600060a08688031215612d0757612d06612857565b5b6000612d15888289016128aa565b955050602086013567ffffffffffffffff811115612d3657612d3561285c565b5b612d42888289016129d7565b945050604086013567ffffffffffffffff811115612d6357612d6261285c565b5b612d6f888289016129d7565b935050606086013567ffffffffffffffff811115612d9057612d8f61285c565b5b612d9c888289016129d7565b925050608086013567ffffffffffffffff811115612dbd57612dbc61285c565b5b612dc9888289016129d7565b9150509295509295909350565b600060208284031215612dec57612deb612857565b5b6000612dfa848285016128aa565b91505092915050565b600060c083016000830151612e1b6000860182612aec565b5060208301518482036020860152612e338282612b41565b91505060408301518482036040860152612e4d8282612b41565b91505060608301518482036060860152612e678282612b41565b91505060808301518482036080860152612e818282612b41565b91505060a0830151612e9660a0860182612b86565b508091505092915050565b60006020820190508181036000830152612ebb8184612e03565b905092915050565b600060c083016000830151612edb6000860182612aec565b5060208301518482036020860152612ef38282612b41565b91505060408301518482036040860152612f0d8282612b41565b91505060608301518482036060860152612f278282612b41565b91505060808301518482036080860152612f418282612b41565b91505060a0830151612f5660a0860182612b86565b508091505092915050565b60006020820190508181036000830152612f7b8184612ec3565b905092915050565b600081519050919050565b600082825260208201905092915050565b6000819050602082019050919050565b600060c083016000830151612fc76000860182612aec565b5060208301518482036020860152612fdf8282612b41565b91505060408301518482036040860152612ff98282612b41565b915050606083015184820360608601526130138282612b41565b9150506080830151848203608086015261302d8282612b41565b91505060a083015161304260a0860182612b86565b508091505092915050565b60006130598383612faf565b905092915050565b6000602082019050919050565b600061307982612f83565b6130838185612f8e565b93508360208202850161309585612f9f565b8060005b858110156130d157848403895281516130b2858261304d565b94506130bd83613061565b925060208a01995050600181019050613099565b50829750879550505050505092915050565b600060208201905081810360008301526130fd818461306e565b905092915050565b600060a08301600083015161311d6000860182612aec565b50602083015184820360208601526131358282612b41565b9150506040830151848203604086015261314f8282612b41565b915050606083015184820360608601526131698282612b41565b915050608083015161317e6080860182612b86565b508091505092915050565b600060208201905081810360008301526131a38184613105565b905092915050565b600081519050919050565b600082825260208201905092915050565b6000819050602082019050919050565b600060a0830160008301516131ef6000860182612aec565b50602083015184820360208601526132078282612b41565b915050604083015184820360408601526132218282612b41565b9150506060830151848203606086015261323b8282612b41565b91505060808301516132506080860182612b86565b508091505092915050565b600061326783836131d7565b905092915050565b6000602082019050919050565b6000613287826131ab565b61329181856131b6565b9350836020820285016132a3856131c7565b8060005b858110156132df57848403895281516132c0858261325b565b94506132cb8361326f565b925060208a019950506001810190506132a7565b50829750879550505050505092915050565b6000602082019050818103600083015261330b818461327c565b905092915050565b600060a08301600083015161332b6000860182612aec565b50602083015184820360208601526133438282612b41565b9150506040830151848203604086015261335d8282612b41565b915050606083015184820360608601526133778282612b41565b915050608083015161338c6080860182612b86565b508091505092915050565b600060208201905081810360008301526133b18184613313565b905092915050565b600081519050919050565b600082825260208201905092915050565b6000819050602082019050919050565b600060a0830160008301516133fd6000860182612aec565b50602083015184820360208601526134158282612b41565b9150506040830151848203604086015261342f8282612b41565b915050606083015184820360608601526134498282612b41565b915050608083015161345e6080860182612b86565b508091505092915050565b600061347583836133e5565b905092915050565b6000602082019050919050565b6000613495826133b9565b61349f81856133c4565b9350836020820285016134b1856133d5565b8060005b858110156134ed57848403895281516134ce8582613469565b94506134d98361347d565b925060208a019950506001810190506134b5565b50829750879550505050505092915050565b60006020820190508181036000830152613519818461348a565b905092915050565b600082825260208201905092915050565b7f44657461696c7320416c72656164792045786973746564000000000000000000600082015250565b6000613568601783613521565b915061357382613532565b602082019050919050565b600060208201905081810360008301526135978161355b565b9050919050565b7f4e487b7100000000000000000000000000000000000000000000000000000000600052602260045260246000fd5b600060028204905060018216806135e557607f821691505b6020821081036135f8576135f761359e565b5b50919050565b60008190508160005260206000209050919050565b60006020601f8301049050919050565b600082821b905092915050565b6000600883026136607fffffffffffffffffffffffffffffffffffffffffffffffffffffffffffffffff82613623565b61366a8683613623565b95508019841693508086168417925050509392505050565b6000819050919050565b6000819050919050565b60006136b16136ac6136a784613682565b61368c565b613682565b9050919050565b6000819050919050565b6136cb83613696565b6136df6136d7826136b8565b848454613630565b825550505050565b600090565b6136f46136e7565b6136ff8184846136c2565b505050565b5b81811015613723576137186000826136ec565b600181019050613705565b5050565b601f82111561376857613739816135fe565b61374284613613565b81016020851015613751578190505b61376561375d85613613565b830182613704565b50505b505050565b600082821c905092915050565b600061378b6000198460080261376d565b1980831691505092915050565b60006137a4838361377a565b9150826002028217905092915050565b6137bd82612afb565b67ffffffffffffffff8111156137d6576137d56128da565b5b6137e082546135cd565b6137eb828285613727565b600060209050601f83116001811461381e576000841561380c578287015190505b6138168582613798565b86555061387e565b601f19841661382c866135fe565b60005b828110156138545784890151825560018201915060208501945060208101905061382f565b86831015613871578489015161386d601f89168261377a565b8355505b6001600288020188555050505b505050505050565b7f4e487b7100000000000000000000000000000000000000000000000000000000600052603260045260246000fd5b7f4e487b7100000000000000000000000000000000000000000000000000000000600052601160045260246000fd5b60006138ef82613682565b91507fffffffffffffffffffffffffffffffffffffffffffffffffffffffffffffffff8203613921576139206138b5565b5b600182019050919050565b7f4e6f207265636f7264207769746820746869732077616c6c6574000000000000600082015250565b6000613962601a83613521565b915061396d8261392c565b602082019050919050565b6000602082019050818103600083015261399181613955565b905091905056fea26469706673582212200911ec04a23758dad8435f92623c220c91fee2a6d07ee94e93cb179a7d6ee3c764736f6c63430008130033",
  "immutableReferences": {},
  "source": "// SPDX-License-Identifier: MIT\npragma solidity >=0.4.22 <0.9.0;\n\ncontract InsuranceClaim {\n    address admin;\n\n    constructor() {\n        admin = msg.sender;\n    }\n\n    struct UserDetails {\n        address _wallet;\n        string _insuranceType;\n        string _policyId;\n        string _adharNumber;\n        string _phoneNumber;\n        bool _exist;\n    }\n\n    mapping(address => UserDetails) userDetails;\n    address[] userAddresses;\n\n    struct NomineeDetails {\n        address _wallet;\n        string _nomineeName;\n        string _nomineeAdhar;\n        string _nomineePhoneNumber;\n        bool _exist;\n    }\n\n    mapping(address => NomineeDetails) nomineeDetails;\n    address[] nomineeAddresses;\n\n    struct BankDetails {\n        address _wallet;\n        string _bankName;\n        string _accountNumber;\n        string _ifscCode;\n        bool _exist;\n    }\n\n    mapping(address => BankDetails) bankDetails;\n    address[] bankAddresses;\n\n    struct certificateDetails {\n        address _wallet;\n        string _policyPaperPath;\n        string _policyPaperHash;\n        string _reportPaperPath;\n        string _reportPaperHash;\n        bool _exist;\n    }\n\n    mapping(address => certificateDetails) certificates;\n    address[] certificateAddresses;\n\n    // UserDetails Functions\n    function addUserDetails(\n        address wallet,\n        string memory insuranceType,\n        string memory policyId,\n        string memory adharNumber,\n        string memory phoneNumber\n    ) public {\n        require(!userDetails[wallet]._exist, \"Details Already Existed\");\n\n        UserDetails memory new_user = UserDetails(wallet, insuranceType, policyId, adharNumber, phoneNumber, true);\n        userDetails[wallet] = new_user;\n        userAddresses.push(wallet);\n    }\n\n    function viewUserDetailsByWallet(address wallet) public view returns (UserDetails memory) {\n        require(userDetails[wallet]._exist, \"No record with this wallet\");\n        return userDetails[wallet];\n    }\n\n    function viewAllUserDetails() public view returns (UserDetails[] memory) {\n        UserDetails[] memory userArray = new UserDetails[](userAddresses.length);\n\n        for (uint i = 0; i < userAddresses.length; i++) {\n            userArray[i] = userDetails[userAddresses[i]];\n        }\n        return userArray;\n    }\n\n    // NomineeDetails Functions\n    function addNomineeDetails(\n        address wallet,\n        string memory nomineeName,\n        string memory nomineeAdhar,\n        string memory nomineePhoneNumber\n    ) public {\n        require(!nomineeDetails[wallet]._exist, \"Details Already Existed\");\n\n        NomineeDetails memory new_nominee = NomineeDetails(wallet, nomineeName, nomineeAdhar, nomineePhoneNumber, true);\n        nomineeDetails[wallet] = new_nominee;\n        nomineeAddresses.push(wallet);\n    }\n\n    function viewNomineeDetailsByWallet(address wallet) public view returns (NomineeDetails memory) {\n        require(nomineeDetails[wallet]._exist, \"No record with this wallet\");\n        return nomineeDetails[wallet];\n    }\n\n    function viewAllNomineeDetails() public view returns (NomineeDetails[] memory) {\n        NomineeDetails[] memory nomineeArray = new NomineeDetails[](nomineeAddresses.length);\n\n        for (uint i = 0; i < nomineeAddresses.length; i++) {\n            nomineeArray[i] = nomineeDetails[nomineeAddresses[i]];\n        }\n        return nomineeArray;\n    }\n\n    // BankDetails Functions\n    function addBankDetails(\n        address wallet,\n        string memory bankName,\n        string memory accountNumber,\n        string memory ifscCode\n    ) public {\n        require(!bankDetails[wallet]._exist, \"Details Already Existed\");\n\n        BankDetails memory new_bank = BankDetails(wallet, bankName, accountNumber, ifscCode, true);\n        bankDetails[wallet] = new_bank;\n        bankAddresses.push(wallet);\n    }\n\n    function viewBankDetailsByWallet(address wallet) public view returns (BankDetails memory) {\n        require(bankDetails[wallet]._exist, \"No record with this wallet\");\n        return bankDetails[wallet];\n    }\n\n    function viewAllBankDetails() public view returns (BankDetails[] memory) {\n        BankDetails[] memory bankArray = new BankDetails[](bankAddresses.length);\n\n        for (uint i = 0; i < bankAddresses.length; i++) {\n            bankArray[i] = bankDetails[bankAddresses[i]];\n        }\n        return bankArray;\n    }\n\n    // CertificateDetails Functions\n    function addCertificateDetails(\n        address wallet,\n        string memory policyPaperPath,\n        string memory policyPaperHash,\n        string memory reportPaperPath,\n        string memory reportPaperHash\n    ) public {\n        require(!certificates[wallet]._exist, \"Details Already Existed\");\n\n        certificateDetails memory new_certificate = certificateDetails(\n            wallet,\n            policyPaperPath,\n            policyPaperHash,\n            reportPaperPath,\n            reportPaperHash,\n            true\n        );\n        certificates[wallet] = new_certificate;\n        certificateAddresses.push(wallet);\n    }\n\n    function viewCertificateDetailsByWallet(address wallet) public view returns (certificateDetails memory) {\n        require(certificates[wallet]._exist, \"No record with this wallet\");\n        return certificates[wallet];\n    }\n\n    function viewAllCertificateDetails() public view returns (certificateDetails[] memory) {\n        certificateDetails[] memory certificateArray = new certificateDetails[](certificateAddresses.length);\n\n        for (uint i = 0; i < certificateAddresses.length; i++) {\n            certificateArray[i] = certificates[certificateAddresses[i]];\n        }\n        return certificateArray;\n    }\n}\n\n",
  "sourcePath": "/Users/ms/Desktop/Blockchain-KT-Project/contracts/InsuranceClaim.sol",
  "compiler": {
    "name": "solc",
    "version": "0.8.19+commit.7dd6d404.Emscripten.clang"
  },
  "schemaVersion": "3.4.16",
  "updatedAt": "2025-01-10T11:44:56.740Z",
  "networkType": "ethereum",
  "devdoc": {
    "kind": "dev",
    "methods": {},
    "version": 1
  },
  "userdoc": {
    "kind": "user",
    "methods": {},
    "version": 1
  }
}