{
  "contractName": "InsuranceClaim",
  "abi": [
    {
      "inputs": [],
      "stateMutability": "nonpayable",
      "type": "constructor"
    },
    {
      "inputs": [
        {
          "internalType": "address",
          "name": "wallet",
          "type": "address"
        },
        {
          "internalType": "string",
          "name": "insuranceType",
          "type": "string"
        },
        {
          "internalType": "string",
          "name": "policyId",
          "type": "string"
        },
        {
          "internalType": "string",
          "name": "adharNumber",
          "type": "string"
        },
        {
          "internalType": "string",
          "name": "phoneNumber",
          "type": "string"
        }
      ],
      "name": "addUserDetails",
      "outputs": [],
      "stateMutability": "nonpayable",
      "type": "function"
    },
    {
      "inputs": [
        {
          "internalType": "address",
          "name": "wallet",
          "type": "address"
        }
      ],
      "name": "viewUserDetailsByWallet",
      "outputs": [
        {
          "components": [
            {
              "internalType": "address",
              "name": "_wallet",
              "type": "address"
            },
            {
              "internalType": "string",
              "name": "_insuranceType",
              "type": "string"
            },
            {
              "internalType": "string",
              "name": "_policyId",
              "type": "string"
            },
            {
              "internalType": "string",
              "name": "_adharNumber",
              "type": "string"
            },
            {
              "internalType": "string",
              "name": "_phoneNumber",
              "type": "string"
            },
            {
              "internalType": "bool",
              "name": "_exist",
              "type": "bool"
            },
            {
              "internalType": "string",
              "name": "_status",
              "type": "string"
            }
          ],
          "internalType": "struct InsuranceClaim.UserDetails",
          "name": "",
          "type": "tuple"
        }
      ],
      "stateMutability": "view",
      "type": "function",
      "constant": true
    },
    {
      "inputs": [],
      "name": "viewAllUserDetails",
      "outputs": [
        {
          "components": [
            {
              "internalType": "address",
              "name": "_wallet",
              "type": "address"
            },
            {
              "internalType": "string",
              "name": "_insuranceType",
              "type": "string"
            },
            {
              "internalType": "string",
              "name": "_policyId",
              "type": "string"
            },
            {
              "internalType": "string",
              "name": "_adharNumber",
              "type": "string"
            },
            {
              "internalType": "string",
              "name": "_phoneNumber",
              "type": "string"
            },
            {
              "internalType": "bool",
              "name": "_exist",
              "type": "bool"
            },
            {
              "internalType": "string",
              "name": "_status",
              "type": "string"
            }
          ],
          "internalType": "struct InsuranceClaim.UserDetails[]",
          "name": "",
          "type": "tuple[]"
        }
      ],
      "stateMutability": "view",
      "type": "function",
      "constant": true
    },
    {
      "inputs": [
        {
          "internalType": "address",
          "name": "wallet",
          "type": "address"
        },
        {
          "internalType": "string",
          "name": "nomineeName",
          "type": "string"
        },
        {
          "internalType": "string",
          "name": "nomineeAdhar",
          "type": "string"
        },
        {
          "internalType": "string",
          "name": "nomineePhoneNumber",
          "type": "string"
        }
      ],
      "name": "addNomineeDetails",
      "outputs": [],
      "stateMutability": "nonpayable",
      "type": "function"
    },
    {
      "inputs": [
        {
          "internalType": "address",
          "name": "wallet",
          "type": "address"
        }
      ],
      "name": "viewNomineeDetailsByWallet",
      "outputs": [
        {
          "components": [
            {
              "internalType": "address",
              "name": "_wallet",
              "type": "address"
            },
            {
              "internalType": "string",
              "name": "_nomineeName",
              "type": "string"
            },
            {
              "internalType": "string",
              "name": "_nomineeAdhar",
              "type": "string"
            },
            {
              "internalType": "string",
              "name": "_nomineePhoneNumber",
              "type": "string"
            },
            {
              "internalType": "bool",
              "name": "_exist",
              "type": "bool"
            }
          ],
          "internalType": "struct InsuranceClaim.NomineeDetails",
          "name": "",
          "type": "tuple"
        }
      ],
      "stateMutability": "view",
      "type": "function",
      "constant": true
    },
    {
      "inputs": [],
      "name": "viewAllNomineeDetails",
      "outputs": [
        {
          "components": [
            {
              "internalType": "address",
              "name": "_wallet",
              "type": "address"
            },
            {
              "internalType": "string",
              "name": "_nomineeName",
              "type": "string"
            },
            {
              "internalType": "string",
              "name": "_nomineeAdhar",
              "type": "string"
            },
            {
              "internalType": "string",
              "name": "_nomineePhoneNumber",
              "type": "string"
            },
            {
              "internalType": "bool",
              "name": "_exist",
              "type": "bool"
            }
          ],
          "internalType": "struct InsuranceClaim.NomineeDetails[]",
          "name": "",
          "type": "tuple[]"
        }
      ],
      "stateMutability": "view",
      "type": "function",
      "constant": true
    },
    {
      "inputs": [
        {
          "internalType": "address",
          "name": "wallet",
          "type": "address"
        },
        {
          "internalType": "string",
          "name": "bankName",
          "type": "string"
        },
        {
          "internalType": "string",
          "name": "accountNumber",
          "type": "string"
        },
        {
          "internalType": "string",
          "name": "ifscCode",
          "type": "string"
        }
      ],
      "name": "addBankDetails",
      "outputs": [],
      "stateMutability": "nonpayable",
      "type": "function"
    },
    {
      "inputs": [
        {
          "internalType": "address",
          "name": "wallet",
          "type": "address"
        }
      ],
      "name": "viewBankDetailsByWallet",
      "outputs": [
        {
          "components": [
            {
              "internalType": "address",
              "name": "_wallet",
              "type": "address"
            },
            {
              "internalType": "string",
              "name": "_bankName",
              "type": "string"
            },
            {
              "internalType": "string",
              "name": "_accountNumber",
              "type": "string"
            },
            {
              "internalType": "string",
              "name": "_ifscCode",
              "type": "string"
            },
            {
              "internalType": "bool",
              "name": "_exist",
              "type": "bool"
            }
          ],
          "internalType": "struct InsuranceClaim.BankDetails",
          "name": "",
          "type": "tuple"
        }
      ],
      "stateMutability": "view",
      "type": "function",
      "constant": true
    },
    {
      "inputs": [],
      "name": "viewAllBankDetails",
      "outputs": [
        {
          "components": [
            {
              "internalType": "address",
              "name": "_wallet",
              "type": "address"
            },
            {
              "internalType": "string",
              "name": "_bankName",
              "type": "string"
            },
            {
              "internalType": "string",
              "name": "_accountNumber",
              "type": "string"
            },
            {
              "internalType": "string",
              "name": "_ifscCode",
              "type": "string"
            },
            {
              "internalType": "bool",
              "name": "_exist",
              "type": "bool"
            }
          ],
          "internalType": "struct InsuranceClaim.BankDetails[]",
          "name": "",
          "type": "tuple[]"
        }
      ],
      "stateMutability": "view",
      "type": "function",
      "constant": true
    },
    {
      "inputs": [
        {
          "internalType": "address",
          "name": "wallet",
          "type": "address"
        },
        {
          "internalType": "string",
          "name": "policyPaperPath",
          "type": "string"
        },
        {
          "internalType": "string",
          "name": "policyPaperHash",
          "type": "string"
        },
        {
          "internalType": "string",
          "name": "reportPaperPath",
          "type": "string"
        },
        {
          "internalType": "string",
          "name": "reportPaperHash",
          "type": "string"
        }
      ],
      "name": "addCertificateDetails",
      "outputs": [],
      "stateMutability": "nonpayable",
      "type": "function"
    },
    {
      "inputs": [
        {
          "internalType": "address",
          "name": "wallet",
          "type": "address"
        }
      ],
      "name": "viewCertificateDetailsByWallet",
      "outputs": [
        {
          "components": [
            {
              "internalType": "address",
              "name": "_wallet",
              "type": "address"
            },
            {
              "internalType": "string",
              "name": "_policyPaperPath",
              "type": "string"
            },
            {
              "internalType": "string",
              "name": "_policyPaperHash",
              "type": "string"
            },
            {
              "internalType": "string",
              "name": "_reportPaperPath",
              "type": "string"
            },
            {
              "internalType": "string",
              "name": "_reportPaperHash",
              "type": "string"
            },
            {
              "internalType": "bool",
              "name": "_exist",
              "type": "bool"
            }
          ],
          "internalType": "struct InsuranceClaim.certificateDetails",
          "name": "",
          "type": "tuple"
        }
      ],
      "stateMutability": "view",
      "type": "function",
      "constant": true
    },
    {
      "inputs": [],
      "name": "viewAllCertificateDetails",
      "outputs": [
        {
          "components": [
            {
              "internalType": "address",
              "name": "_wallet",
              "type": "address"
            },
            {
              "internalType": "string",
              "name": "_policyPaperPath",
              "type": "string"
            },
            {
              "internalType": "string",
              "name": "_policyPaperHash",
              "type": "string"
            },
            {
              "internalType": "string",
              "name": "_reportPaperPath",
              "type": "string"
            },
            {
              "internalType": "string",
              "name": "_reportPaperHash",
              "type": "string"
            },
            {
              "internalType": "bool",
              "name": "_exist",
              "type": "bool"
            }
          ],
          "internalType": "struct InsuranceClaim.certificateDetails[]",
          "name": "",
          "type": "tuple[]"
        }
      ],
      "stateMutability": "view",
      "type": "function",
      "constant": true
    },
    {
      "inputs": [
        {
          "internalType": "address",
          "name": "wallet",
          "type": "address"
        },
        {
          "internalType": "string",
          "name": "policyId",
          "type": "string"
        },
        {
          "internalType": "string",
          "name": "policeName",
          "type": "string"
        },
        {
          "internalType": "string",
          "name": "policeContactNumber",
          "type": "string"
        },
        {
          "internalType": "string",
          "name": "policeFIRPath",
          "type": "string"
        },
        {
          "internalType": "string",
          "name": "policeFIRHash",
          "type": "string"
        }
      ],
      "name": "addPoliceDetails",
      "outputs": [],
      "stateMutability": "nonpayable",
      "type": "function"
    },
    {
      "inputs": [
        {
          "internalType": "address",
          "name": "wallet",
          "type": "address"
        }
      ],
      "name": "viewPoliceDetailsByWallet",
      "outputs": [
        {
          "components": [
            {
              "internalType": "address",
              "name": "_wallet",
              "type": "address"
            },
            {
              "internalType": "string",
              "name": "_policyId",
              "type": "string"
            },
            {
              "internalType": "string",
              "name": "_policeName",
              "type": "string"
            },
            {
              "internalType": "string",
              "name": "_policeContactNumber",
              "type": "string"
            },
            {
              "internalType": "string",
              "name": "_policeFIRPath",
              "type": "string"
            },
            {
              "internalType": "string",
              "name": "_policeFIRHash",
              "type": "string"
            },
            {
              "internalType": "bool",
              "name": "_exist",
              "type": "bool"
            }
          ],
          "internalType": "struct InsuranceClaim.PoliceDetails",
          "name": "",
          "type": "tuple"
        }
      ],
      "stateMutability": "view",
      "type": "function",
      "constant": true
    },
    {
      "inputs": [],
      "name": "viewAllPoliceDetails",
      "outputs": [
        {
          "components": [
            {
              "internalType": "address",
              "name": "_wallet",
              "type": "address"
            },
            {
              "internalType": "string",
              "name": "_policyId",
              "type": "string"
            },
            {
              "internalType": "string",
              "name": "_policeName",
              "type": "string"
            },
            {
              "internalType": "string",
              "name": "_policeContactNumber",
              "type": "string"
            },
            {
              "internalType": "string",
              "name": "_policeFIRPath",
              "type": "string"
            },
            {
              "internalType": "string",
              "name": "_policeFIRHash",
              "type": "string"
            },
            {
              "internalType": "bool",
              "name": "_exist",
              "type": "bool"
            }
          ],
          "internalType": "struct InsuranceClaim.PoliceDetails[]",
          "name": "",
          "type": "tuple[]"
        }
      ],
      "stateMutability": "view",
      "type": "function",
      "constant": true
    },
    {
      "inputs": [
        {
          "internalType": "address",
          "name": "wallet",
          "type": "address"
        },
        {
          "internalType": "string",
          "name": "policyId",
          "type": "string"
        },
        {
          "internalType": "string",
          "name": "doctorName",
          "type": "string"
        },
        {
          "internalType": "string",
          "name": "doctorContactNumber",
          "type": "string"
        },
        {
          "internalType": "string",
          "name": "doctorReportPath",
          "type": "string"
        },
        {
          "internalType": "string",
          "name": "doctorReportHash",
          "type": "string"
        }
      ],
      "name": "addHospitalDetails",
      "outputs": [],
      "stateMutability": "nonpayable",
      "type": "function"
    },
    {
      "inputs": [
        {
          "internalType": "address",
          "name": "wallet",
          "type": "address"
        }
      ],
      "name": "viewHospitalDetailsByWallet",
      "outputs": [
        {
          "components": [
            {
              "internalType": "address",
              "name": "_wallet",
              "type": "address"
            },
            {
              "internalType": "string",
              "name": "_policyId",
              "type": "string"
            },
            {
              "internalType": "string",
              "name": "_doctorName",
              "type": "string"
            },
            {
              "internalType": "string",
              "name": "_doctorContactNumber",
              "type": "string"
            },
            {
              "internalType": "string",
              "name": "_doctorreportPath",
              "type": "string"
            },
            {
              "internalType": "string",
              "name": "_doctorreportHash",
              "type": "string"
            },
            {
              "internalType": "bool",
              "name": "_exist",
              "type": "bool"
            }
          ],
          "internalType": "struct InsuranceClaim.HospitalDetails",
          "name": "",
          "type": "tuple"
        }
      ],
      "stateMutability": "view",
      "type": "function",
      "constant": true
    },
    {
      "inputs": [],
      "name": "viewAllHospitalDetails",
      "outputs": [
        {
          "components": [
            {
              "internalType": "address",
              "name": "_wallet",
              "type": "address"
            },
            {
              "internalType": "string",
              "name": "_policyId",
              "type": "string"
            },
            {
              "internalType": "string",
              "name": "_doctorName",
              "type": "string"
            },
            {
              "internalType": "string",
              "name": "_doctorContactNumber",
              "type": "string"
            },
            {
              "internalType": "string",
              "name": "_doctorreportPath",
              "type": "string"
            },
            {
              "internalType": "string",
              "name": "_doctorreportHash",
              "type": "string"
            },
            {
              "internalType": "bool",
              "name": "_exist",
              "type": "bool"
            }
          ],
          "internalType": "struct InsuranceClaim.HospitalDetails[]",
          "name": "",
          "type": "tuple[]"
        }
      ],
      "stateMutability": "view",
      "type": "function",
      "constant": true
    }
  ],
  "bytecode": "0x608060405234801561001057600080fd5b50336000806101000a81548173ffffffffffffffffffffffffffffffffffffffff021916908373ffffffffffffffffffffffffffffffffffffffff16021790555061598780620000616000396000f3fe608060405234801561001057600080fd5b50600436106101165760003560e01c8063731fd675116100a2578063c6b6694c11610071578063c6b6694c146102f3578063d64a2a2414610323578063e7ebe53914610341578063f19b47aa1461035d578063fe340ccb1461037b57610116565b8063731fd6751461026b5780639783f70014610289578063bd9e6178146102b9578063bdba43d8146102d757610116565b806346eb141a116100e957806346eb141a1461018f5780634e1b2a6f146101ab57806350b4a379146101db5780635b1d16451461020b5780635b6952cc1461023b57610116565b806308959ec11461011b57806320abaf06146101375780632a2e9c5a146101535780634393ed9014610171575b600080fd5b61013560048036038101906101309190614385565b610397565b005b610151600480360381019061014c9190614385565b6105c1565b005b61015b6107eb565b6040516101689190614663565b60405180910390f35b610179610c66565b60405161018691906147e5565b60405180910390f35b6101a960048036038101906101a49190614807565b61104f565b005b6101c560048036038101906101c091906148f2565b611296565b6040516101d291906149d7565b60405180910390f35b6101f560048036038101906101f091906148f2565b6116c9565b6040516102029190614a97565b60405180910390f35b610225600480360381019061022091906148f2565b611a6a565b6040516102329190614b71565b60405180910390f35b610255600480360381019061025091906148f2565b611e9d565b6040516102629190614c4b565b60405180910390f35b6102736122d0565b6040516102809190614de7565b60405180910390f35b6102a3600480360381019061029e91906148f2565b61274b565b6040516102b09190614e8d565b60405180910390f35b6102c1612a5a565b6040516102ce9190614ff5565b60405180910390f35b6102f160048036038101906102ec9190614807565b612db1565b005b61030d600480360381019061030891906148f2565b613049565b60405161031a919061509b565b60405180910390f35b61032b613358565b6040516103389190615203565b60405180910390f35b61035b60048036038101906103569190615225565b6136af565b005b610365613913565b60405161037291906154b8565b60405180910390f35b61039560048036038101906103909190615225565b613d8e565b005b600560008573ffffffffffffffffffffffffffffffffffffffff1673ffffffffffffffffffffffffffffffffffffffff16815260200190815260200160002060040160009054906101000a900460ff1615610427576040517f08c379a000000000000000000000000000000000000000000000000000000000815260040161041e90615537565b60405180910390fd5b60006040518060a001604052808673ffffffffffffffffffffffffffffffffffffffff16815260200185815260200184815260200183815260200160011515815250905080600560008773ffffffffffffffffffffffffffffffffffffffff1673ffffffffffffffffffffffffffffffffffffffff16815260200190815260200160002060008201518160000160006101000a81548173ffffffffffffffffffffffffffffffffffffffff021916908373ffffffffffffffffffffffffffffffffffffffff1602179055506020820151816001019081610507919061576d565b50604082015181600201908161051d919061576d565b506060820151816003019081610533919061576d565b5060808201518160040160006101000a81548160ff0219169083151502179055509050506006859080600181540180825580915050600190039060005260206000200160009091909190916101000a81548173ffffffffffffffffffffffffffffffffffffffff021916908373ffffffffffffffffffffffffffffffffffffffff1602179055505050505050565b600360008573ffffffffffffffffffffffffffffffffffffffff1673ffffffffffffffffffffffffffffffffffffffff16815260200190815260200160002060040160009054906101000a900460ff1615610651576040517f08c379a000000000000000000000000000000000000000000000000000000000815260040161064890615537565b60405180910390fd5b60006040518060a001604052808673ffffffffffffffffffffffffffffffffffffffff16815260200185815260200184815260200183815260200160011515815250905080600360008773ffffffffffffffffffffffffffffffffffffffff1673ffffffffffffffffffffffffffffffffffffffff16815260200190815260200160002060008201518160000160006101000a81548173ffffffffffffffffffffffffffffffffffffffff021916908373ffffffffffffffffffffffffffffffffffffffff1602179055506020820151816001019081610731919061576d565b506040820151816002019081610747919061576d565b50606082015181600301908161075d919061576d565b5060808201518160040160006101000a81548160ff0219169083151502179055509050506004859080600181540180825580915050600190039060005260206000200160009091909190916101000a81548173ffffffffffffffffffffffffffffffffffffffff021916908373ffffffffffffffffffffffffffffffffffffffff1602179055505050505050565b60606000600a8054905067ffffffffffffffff81111561080e5761080d61425a565b5b60405190808252806020026020018201604052801561084757816020015b610834613ff2565b81526020019060019003908161082c5790505b50905060005b600a80549050811015610c5e5760096000600a83815481106108725761087161583f565b5b9060005260206000200160009054906101000a900473ffffffffffffffffffffffffffffffffffffffff1673ffffffffffffffffffffffffffffffffffffffff1673ffffffffffffffffffffffffffffffffffffffff1681526020019081526020016000206040518060e00160405290816000820160009054906101000a900473ffffffffffffffffffffffffffffffffffffffff1673ffffffffffffffffffffffffffffffffffffffff1673ffffffffffffffffffffffffffffffffffffffff16815260200160018201805461094890615586565b80601f016020809104026020016040519081016040528092919081815260200182805461097490615586565b80156109c15780601f10610996576101008083540402835291602001916109c1565b820191906000526020600020905b8154815290600101906020018083116109a457829003601f168201915b505050505081526020016002820180546109da90615586565b80601f0160208091040260200160405190810160405280929190818152602001828054610a0690615586565b8015610a535780601f10610a2857610100808354040283529160200191610a53565b820191906000526020600020905b815481529060010190602001808311610a3657829003601f168201915b50505050508152602001600382018054610a6c90615586565b80601f0160208091040260200160405190810160405280929190818152602001828054610a9890615586565b8015610ae55780601f10610aba57610100808354040283529160200191610ae5565b820191906000526020600020905b815481529060010190602001808311610ac857829003601f168201915b50505050508152602001600482018054610afe90615586565b80601f0160208091040260200160405190810160405280929190818152602001828054610b2a90615586565b8015610b775780601f10610b4c57610100808354040283529160200191610b77565b820191906000526020600020905b815481529060010190602001808311610b5a57829003601f168201915b50505050508152602001600582018054610b9090615586565b80601f0160208091040260200160405190810160405280929190818152602001828054610bbc90615586565b8015610c095780601f10610bde57610100808354040283529160200191610c09565b820191906000526020600020905b815481529060010190602001808311610bec57829003601f168201915b505050505081526020016006820160009054906101000a900460ff161515151581525050828281518110610c4057610c3f61583f565b5b60200260200101819052508080610c569061589d565b91505061084d565b508091505090565b6060600060088054905067ffffffffffffffff811115610c8957610c8861425a565b5b604051908082528060200260200182016040528015610cc257816020015b610caf614047565b815260200190600190039081610ca75790505b50905060005b600880549050811015611047576007600060088381548110610ced57610cec61583f565b5b9060005260206000200160009054906101000a900473ffffffffffffffffffffffffffffffffffffffff1673ffffffffffffffffffffffffffffffffffffffff1673ffffffffffffffffffffffffffffffffffffffff1681526020019081526020016000206040518060c00160405290816000820160009054906101000a900473ffffffffffffffffffffffffffffffffffffffff1673ffffffffffffffffffffffffffffffffffffffff1673ffffffffffffffffffffffffffffffffffffffff168152602001600182018054610dc390615586565b80601f0160208091040260200160405190810160405280929190818152602001828054610def90615586565b8015610e3c5780601f10610e1157610100808354040283529160200191610e3c565b820191906000526020600020905b815481529060010190602001808311610e1f57829003601f168201915b50505050508152602001600282018054610e5590615586565b80601f0160208091040260200160405190810160405280929190818152602001828054610e8190615586565b8015610ece5780601f10610ea357610100808354040283529160200191610ece565b820191906000526020600020905b815481529060010190602001808311610eb157829003601f168201915b50505050508152602001600382018054610ee790615586565b80601f0160208091040260200160405190810160405280929190818152602001828054610f1390615586565b8015610f605780601f10610f3557610100808354040283529160200191610f60565b820191906000526020600020905b815481529060010190602001808311610f4357829003601f168201915b50505050508152602001600482018054610f7990615586565b80601f0160208091040260200160405190810160405280929190818152602001828054610fa590615586565b8015610ff25780601f10610fc757610100808354040283529160200191610ff2565b820191906000526020600020905b815481529060010190602001808311610fd557829003601f168201915b505050505081526020016005820160009054906101000a900460ff1615151515815250508282815181106110295761102861583f565b5b6020026020010181905250808061103f9061589d565b915050610cc8565b508091505090565b600760008673ffffffffffffffffffffffffffffffffffffffff1673ffffffffffffffffffffffffffffffffffffffff16815260200190815260200160002060050160009054906101000a900460ff16156110df576040517f08c379a00000000000000000000000000000000000000000000000000000000081526004016110d690615537565b60405180910390fd5b60006040518060c001604052808773ffffffffffffffffffffffffffffffffffffffff16815260200186815260200185815260200184815260200183815260200160011515815250905080600760008873ffffffffffffffffffffffffffffffffffffffff1673ffffffffffffffffffffffffffffffffffffffff16815260200190815260200160002060008201518160000160006101000a81548173ffffffffffffffffffffffffffffffffffffffff021916908373ffffffffffffffffffffffffffffffffffffffff16021790555060208201518160010190816111c5919061576d565b5060408201518160020190816111db919061576d565b5060608201518160030190816111f1919061576d565b506080820151816004019081611207919061576d565b5060a08201518160050160006101000a81548160ff0219169083151502179055509050506008869080600181540180825580915050600190039060005260206000200160009091909190916101000a81548173ffffffffffffffffffffffffffffffffffffffff021916908373ffffffffffffffffffffffffffffffffffffffff160217905550505050505050565b61129e614095565b600b60008373ffffffffffffffffffffffffffffffffffffffff1673ffffffffffffffffffffffffffffffffffffffff16815260200190815260200160002060060160009054906101000a900460ff1661132d576040517f08c379a000000000000000000000000000000000000000000000000000000000815260040161132490615931565b60405180910390fd5b600b60008373ffffffffffffffffffffffffffffffffffffffff1673ffffffffffffffffffffffffffffffffffffffff1681526020019081526020016000206040518060e00160405290816000820160009054906101000a900473ffffffffffffffffffffffffffffffffffffffff1673ffffffffffffffffffffffffffffffffffffffff1673ffffffffffffffffffffffffffffffffffffffff1681526020016001820180546113dd90615586565b80601f016020809104026020016040519081016040528092919081815260200182805461140990615586565b80156114565780601f1061142b57610100808354040283529160200191611456565b820191906000526020600020905b81548152906001019060200180831161143957829003601f168201915b5050505050815260200160028201805461146f90615586565b80601f016020809104026020016040519081016040528092919081815260200182805461149b90615586565b80156114e85780601f106114bd576101008083540402835291602001916114e8565b820191906000526020600020905b8154815290600101906020018083116114cb57829003601f168201915b5050505050815260200160038201805461150190615586565b80601f016020809104026020016040519081016040528092919081815260200182805461152d90615586565b801561157a5780601f1061154f5761010080835404028352916020019161157a565b820191906000526020600020905b81548152906001019060200180831161155d57829003601f168201915b5050505050815260200160048201805461159390615586565b80601f01602080910402602001604051908101604052809291908181526020018280546115bf90615586565b801561160c5780601f106115e15761010080835404028352916020019161160c565b820191906000526020600020905b8154815290600101906020018083116115ef57829003601f168201915b5050505050815260200160058201805461162590615586565b80601f016020809104026020016040519081016040528092919081815260200182805461165190615586565b801561169e5780601f106116735761010080835404028352916020019161169e565b820191906000526020600020905b81548152906001019060200180831161168157829003601f168201915b505050505081526020016006820160009054906101000a900460ff1615151515815250509050919050565b6116d1614047565b600760008373ffffffffffffffffffffffffffffffffffffffff1673ffffffffffffffffffffffffffffffffffffffff16815260200190815260200160002060050160009054906101000a900460ff16611760576040517f08c379a000000000000000000000000000000000000000000000000000000000815260040161175790615931565b60405180910390fd5b600760008373ffffffffffffffffffffffffffffffffffffffff1673ffffffffffffffffffffffffffffffffffffffff1681526020019081526020016000206040518060c00160405290816000820160009054906101000a900473ffffffffffffffffffffffffffffffffffffffff1673ffffffffffffffffffffffffffffffffffffffff1673ffffffffffffffffffffffffffffffffffffffff16815260200160018201805461181090615586565b80601f016020809104026020016040519081016040528092919081815260200182805461183c90615586565b80156118895780601f1061185e57610100808354040283529160200191611889565b820191906000526020600020905b81548152906001019060200180831161186c57829003601f168201915b505050505081526020016002820180546118a290615586565b80601f01602080910402602001604051908101604052809291908181526020018280546118ce90615586565b801561191b5780601f106118f05761010080835404028352916020019161191b565b820191906000526020600020905b8154815290600101906020018083116118fe57829003601f168201915b5050505050815260200160038201805461193490615586565b80601f016020809104026020016040519081016040528092919081815260200182805461196090615586565b80156119ad5780601f10611982576101008083540402835291602001916119ad565b820191906000526020600020905b81548152906001019060200180831161199057829003601f168201915b505050505081526020016004820180546119c690615586565b80601f01602080910402602001604051908101604052809291908181526020018280546119f290615586565b8015611a3f5780601f10611a1457610100808354040283529160200191611a3f565b820191906000526020600020905b815481529060010190602001808311611a2257829003601f168201915b505050505081526020016005820160009054906101000a900460ff1615151515815250509050919050565b611a726140ea565b600160008373ffffffffffffffffffffffffffffffffffffffff1673ffffffffffffffffffffffffffffffffffffffff16815260200190815260200160002060050160009054906101000a900460ff16611b01576040517f08c379a0000000000000000000000000000000000000000000000000000000008152600401611af890615931565b60405180910390fd5b600160008373ffffffffffffffffffffffffffffffffffffffff1673ffffffffffffffffffffffffffffffffffffffff1681526020019081526020016000206040518060e00160405290816000820160009054906101000a900473ffffffffffffffffffffffffffffffffffffffff1673ffffffffffffffffffffffffffffffffffffffff1673ffffffffffffffffffffffffffffffffffffffff168152602001600182018054611bb190615586565b80601f0160208091040260200160405190810160405280929190818152602001828054611bdd90615586565b8015611c2a5780601f10611bff57610100808354040283529160200191611c2a565b820191906000526020600020905b815481529060010190602001808311611c0d57829003601f168201915b50505050508152602001600282018054611c4390615586565b80601f0160208091040260200160405190810160405280929190818152602001828054611c6f90615586565b8015611cbc5780601f10611c9157610100808354040283529160200191611cbc565b820191906000526020600020905b815481529060010190602001808311611c9f57829003601f168201915b50505050508152602001600382018054611cd590615586565b80601f0160208091040260200160405190810160405280929190818152602001828054611d0190615586565b8015611d4e5780601f10611d2357610100808354040283529160200191611d4e565b820191906000526020600020905b815481529060010190602001808311611d3157829003601f168201915b50505050508152602001600482018054611d6790615586565b80601f0160208091040260200160405190810160405280929190818152602001828054611d9390615586565b8015611de05780601f10611db557610100808354040283529160200191611de0565b820191906000526020600020905b815481529060010190602001808311611dc357829003601f168201915b505050505081526020016005820160009054906101000a900460ff16151515158152602001600682018054611e1490615586565b80601f0160208091040260200160405190810160405280929190818152602001828054611e4090615586565b8015611e8d5780601f10611e6257610100808354040283529160200191611e8d565b820191906000526020600020905b815481529060010190602001808311611e7057829003601f168201915b5050505050815250509050919050565b611ea5613ff2565b600960008373ffffffffffffffffffffffffffffffffffffffff1673ffffffffffffffffffffffffffffffffffffffff16815260200190815260200160002060060160009054906101000a900460ff16611f34576040517f08c379a0000000000000000000000000000000000000000000000000000000008152600401611f2b90615931565b60405180910390fd5b600960008373ffffffffffffffffffffffffffffffffffffffff1673ffffffffffffffffffffffffffffffffffffffff1681526020019081526020016000206040518060e00160405290816000820160009054906101000a900473ffffffffffffffffffffffffffffffffffffffff1673ffffffffffffffffffffffffffffffffffffffff1673ffffffffffffffffffffffffffffffffffffffff168152602001600182018054611fe490615586565b80601f016020809104026020016040519081016040528092919081815260200182805461201090615586565b801561205d5780601f106120325761010080835404028352916020019161205d565b820191906000526020600020905b81548152906001019060200180831161204057829003601f168201915b5050505050815260200160028201805461207690615586565b80601f01602080910402602001604051908101604052809291908181526020018280546120a290615586565b80156120ef5780601f106120c4576101008083540402835291602001916120ef565b820191906000526020600020905b8154815290600101906020018083116120d257829003601f168201915b5050505050815260200160038201805461210890615586565b80601f016020809104026020016040519081016040528092919081815260200182805461213490615586565b80156121815780601f1061215657610100808354040283529160200191612181565b820191906000526020600020905b81548152906001019060200180831161216457829003601f168201915b5050505050815260200160048201805461219a90615586565b80601f01602080910402602001604051908101604052809291908181526020018280546121c690615586565b80156122135780601f106121e857610100808354040283529160200191612213565b820191906000526020600020905b8154815290600101906020018083116121f657829003601f168201915b5050505050815260200160058201805461222c90615586565b80601f016020809104026020016040519081016040528092919081815260200182805461225890615586565b80156122a55780601f1061227a576101008083540402835291602001916122a5565b820191906000526020600020905b81548152906001019060200180831161228857829003601f168201915b505050505081526020016006820160009054906101000a900460ff1615151515815250509050919050565b6060600060028054905067ffffffffffffffff8111156122f3576122f261425a565b5b60405190808252806020026020018201604052801561232c57816020015b6123196140ea565b8152602001906001900390816123115790505b50905060005b6002805490508110156127435760016000600283815481106123575761235661583f565b5b9060005260206000200160009054906101000a900473ffffffffffffffffffffffffffffffffffffffff1673ffffffffffffffffffffffffffffffffffffffff1673ffffffffffffffffffffffffffffffffffffffff1681526020019081526020016000206040518060e00160405290816000820160009054906101000a900473ffffffffffffffffffffffffffffffffffffffff1673ffffffffffffffffffffffffffffffffffffffff1673ffffffffffffffffffffffffffffffffffffffff16815260200160018201805461242d90615586565b80601f016020809104026020016040519081016040528092919081815260200182805461245990615586565b80156124a65780601f1061247b576101008083540402835291602001916124a6565b820191906000526020600020905b81548152906001019060200180831161248957829003601f168201915b505050505081526020016002820180546124bf90615586565b80601f01602080910402602001604051908101604052809291908181526020018280546124eb90615586565b80156125385780601f1061250d57610100808354040283529160200191612538565b820191906000526020600020905b81548152906001019060200180831161251b57829003601f168201915b5050505050815260200160038201805461255190615586565b80601f016020809104026020016040519081016040528092919081815260200182805461257d90615586565b80156125ca5780601f1061259f576101008083540402835291602001916125ca565b820191906000526020600020905b8154815290600101906020018083116125ad57829003601f168201915b505050505081526020016004820180546125e390615586565b80601f016020809104026020016040519081016040528092919081815260200182805461260f90615586565b801561265c5780601f106126315761010080835404028352916020019161265c565b820191906000526020600020905b81548152906001019060200180831161263f57829003601f168201915b505050505081526020016005820160009054906101000a900460ff1615151515815260200160068201805461269090615586565b80601f01602080910402602001604051908101604052809291908181526020018280546126bc90615586565b80156127095780601f106126de57610100808354040283529160200191612709565b820191906000526020600020905b8154815290600101906020018083116126ec57829003601f168201915b5050505050815250508282815181106127255761272461583f565b5b6020026020010181905250808061273b9061589d565b915050612332565b508091505090565b61275361413f565b600360008373ffffffffffffffffffffffffffffffffffffffff1673ffffffffffffffffffffffffffffffffffffffff16815260200190815260200160002060040160009054906101000a900460ff166127e2576040517f08c379a00000000000000000000000000000000000000000000000000000000081526004016127d990615931565b60405180910390fd5b600360008373ffffffffffffffffffffffffffffffffffffffff1673ffffffffffffffffffffffffffffffffffffffff1681526020019081526020016000206040518060a00160405290816000820160009054906101000a900473ffffffffffffffffffffffffffffffffffffffff1673ffffffffffffffffffffffffffffffffffffffff1673ffffffffffffffffffffffffffffffffffffffff16815260200160018201805461289290615586565b80601f01602080910402602001604051908101604052809291908181526020018280546128be90615586565b801561290b5780601f106128e05761010080835404028352916020019161290b565b820191906000526020600020905b8154815290600101906020018083116128ee57829003601f168201915b5050505050815260200160028201805461292490615586565b80601f016020809104026020016040519081016040528092919081815260200182805461295090615586565b801561299d5780601f106129725761010080835404028352916020019161299d565b820191906000526020600020905b81548152906001019060200180831161298057829003601f168201915b505050505081526020016003820180546129b690615586565b80601f01602080910402602001604051908101604052809291908181526020018280546129e290615586565b8015612a2f5780601f10612a0457610100808354040283529160200191612a2f565b820191906000526020600020905b815481529060010190602001808311612a1257829003601f168201915b505050505081526020016004820160009054906101000a900460ff1615151515815250509050919050565b6060600060048054905067ffffffffffffffff811115612a7d57612a7c61425a565b5b604051908082528060200260200182016040528015612ab657816020015b612aa361413f565b815260200190600190039081612a9b5790505b50905060005b600480549050811015612da9576003600060048381548110612ae157612ae061583f565b5b9060005260206000200160009054906101000a900473ffffffffffffffffffffffffffffffffffffffff1673ffffffffffffffffffffffffffffffffffffffff1673ffffffffffffffffffffffffffffffffffffffff1681526020019081526020016000206040518060a00160405290816000820160009054906101000a900473ffffffffffffffffffffffffffffffffffffffff1673ffffffffffffffffffffffffffffffffffffffff1673ffffffffffffffffffffffffffffffffffffffff168152602001600182018054612bb790615586565b80601f0160208091040260200160405190810160405280929190818152602001828054612be390615586565b8015612c305780601f10612c0557610100808354040283529160200191612c30565b820191906000526020600020905b815481529060010190602001808311612c1357829003601f168201915b50505050508152602001600282018054612c4990615586565b80601f0160208091040260200160405190810160405280929190818152602001828054612c7590615586565b8015612cc25780601f10612c9757610100808354040283529160200191612cc2565b820191906000526020600020905b815481529060010190602001808311612ca557829003601f168201915b50505050508152602001600382018054612cdb90615586565b80601f0160208091040260200160405190810160405280929190818152602001828054612d0790615586565b8015612d545780601f10612d2957610100808354040283529160200191612d54565b820191906000526020600020905b815481529060010190602001808311612d3757829003601f168201915b505050505081526020016004820160009054906101000a900460ff161515151581525050828281518110612d8b57612d8a61583f565b5b60200260200101819052508080612da19061589d565b915050612abc565b508091505090565b600160008673ffffffffffffffffffffffffffffffffffffffff1673ffffffffffffffffffffffffffffffffffffffff16815260200190815260200160002060050160009054906101000a900460ff1615612e41576040517f08c379a0000000000000000000000000000000000000000000000000000000008152600401612e3890615537565b60405180910390fd5b60006040518060e001604052808773ffffffffffffffffffffffffffffffffffffffff1681526020018681526020018581526020018481526020018381526020016001151581526020016040518060400160405280600781526020017f50656e64696e6700000000000000000000000000000000000000000000000000815250815250905080600160008873ffffffffffffffffffffffffffffffffffffffff1673ffffffffffffffffffffffffffffffffffffffff16815260200190815260200160002060008201518160000160006101000a81548173ffffffffffffffffffffffffffffffffffffffff021916908373ffffffffffffffffffffffffffffffffffffffff1602179055506020820151816001019081612f62919061576d565b506040820151816002019081612f78919061576d565b506060820151816003019081612f8e919061576d565b506080820151816004019081612fa4919061576d565b5060a08201518160050160006101000a81548160ff02191690831515021790555060c0820151816006019081612fda919061576d565b509050506002869080600181540180825580915050600190039060005260206000200160009091909190916101000a81548173ffffffffffffffffffffffffffffffffffffffff021916908373ffffffffffffffffffffffffffffffffffffffff160217905550505050505050565b613051614186565b600560008373ffffffffffffffffffffffffffffffffffffffff1673ffffffffffffffffffffffffffffffffffffffff16815260200190815260200160002060040160009054906101000a900460ff166130e0576040517f08c379a00000000000000000000000000000000000000000000000000000000081526004016130d790615931565b60405180910390fd5b600560008373ffffffffffffffffffffffffffffffffffffffff1673ffffffffffffffffffffffffffffffffffffffff1681526020019081526020016000206040518060a00160405290816000820160009054906101000a900473ffffffffffffffffffffffffffffffffffffffff1673ffffffffffffffffffffffffffffffffffffffff1673ffffffffffffffffffffffffffffffffffffffff16815260200160018201805461319090615586565b80601f01602080910402602001604051908101604052809291908181526020018280546131bc90615586565b80156132095780601f106131de57610100808354040283529160200191613209565b820191906000526020600020905b8154815290600101906020018083116131ec57829003601f168201915b5050505050815260200160028201805461322290615586565b80601f016020809104026020016040519081016040528092919081815260200182805461324e90615586565b801561329b5780601f106132705761010080835404028352916020019161329b565b820191906000526020600020905b81548152906001019060200180831161327e57829003601f168201915b505050505081526020016003820180546132b490615586565b80601f01602080910402602001604051908101604052809291908181526020018280546132e090615586565b801561332d5780601f106133025761010080835404028352916020019161332d565b820191906000526020600020905b81548152906001019060200180831161331057829003601f168201915b505050505081526020016004820160009054906101000a900460ff1615151515815250509050919050565b6060600060068054905067ffffffffffffffff81111561337b5761337a61425a565b5b6040519080825280602002602001820160405280156133b457816020015b6133a1614186565b8152602001906001900390816133995790505b50905060005b6006805490508110156136a75760056000600683815481106133df576133de61583f565b5b9060005260206000200160009054906101000a900473ffffffffffffffffffffffffffffffffffffffff1673ffffffffffffffffffffffffffffffffffffffff1673ffffffffffffffffffffffffffffffffffffffff1681526020019081526020016000206040518060a00160405290816000820160009054906101000a900473ffffffffffffffffffffffffffffffffffffffff1673ffffffffffffffffffffffffffffffffffffffff1673ffffffffffffffffffffffffffffffffffffffff1681526020016001820180546134b590615586565b80601f01602080910402602001604051908101604052809291908181526020018280546134e190615586565b801561352e5780601f106135035761010080835404028352916020019161352e565b820191906000526020600020905b81548152906001019060200180831161351157829003601f168201915b5050505050815260200160028201805461354790615586565b80601f016020809104026020016040519081016040528092919081815260200182805461357390615586565b80156135c05780601f10613595576101008083540402835291602001916135c0565b820191906000526020600020905b8154815290600101906020018083116135a357829003601f168201915b505050505081526020016003820180546135d990615586565b80601f016020809104026020016040519081016040528092919081815260200182805461360590615586565b80156136525780601f1061362757610100808354040283529160200191613652565b820191906000526020600020905b81548152906001019060200180831161363557829003601f168201915b505050505081526020016004820160009054906101000a900460ff1615151515815250508282815181106136895761368861583f565b5b6020026020010181905250808061369f9061589d565b9150506133ba565b508091505090565b600b60008773ffffffffffffffffffffffffffffffffffffffff1673ffffffffffffffffffffffffffffffffffffffff16815260200190815260200160002060060160009054906101000a900460ff161561373f576040517f08c379a000000000000000000000000000000000000000000000000000000000815260040161373690615537565b60405180910390fd5b60006040518060e001604052808873ffffffffffffffffffffffffffffffffffffffff16815260200187815260200186815260200185815260200184815260200183815260200160011515815250905080600b60008973ffffffffffffffffffffffffffffffffffffffff1673ffffffffffffffffffffffffffffffffffffffff16815260200190815260200160002060008201518160000160006101000a81548173ffffffffffffffffffffffffffffffffffffffff021916908373ffffffffffffffffffffffffffffffffffffffff160217905550602082015181600101908161382b919061576d565b506040820151816002019081613841919061576d565b506060820151816003019081613857919061576d565b50608082015181600401908161386d919061576d565b5060a0820151816005019081613883919061576d565b5060c08201518160060160006101000a81548160ff021916908315150217905550905050600c879080600181540180825580915050600190039060005260206000200160009091909190916101000a81548173ffffffffffffffffffffffffffffffffffffffff021916908373ffffffffffffffffffffffffffffffffffffffff16021790555050505050505050565b60606000600c8054905067ffffffffffffffff8111156139365761393561425a565b5b60405190808252806020026020018201604052801561396f57816020015b61395c614095565b8152602001906001900390816139545790505b50905060005b600c80549050811015613d8657600b6000600c838154811061399a5761399961583f565b5b9060005260206000200160009054906101000a900473ffffffffffffffffffffffffffffffffffffffff1673ffffffffffffffffffffffffffffffffffffffff1673ffffffffffffffffffffffffffffffffffffffff1681526020019081526020016000206040518060e00160405290816000820160009054906101000a900473ffffffffffffffffffffffffffffffffffffffff1673ffffffffffffffffffffffffffffffffffffffff1673ffffffffffffffffffffffffffffffffffffffff168152602001600182018054613a7090615586565b80601f0160208091040260200160405190810160405280929190818152602001828054613a9c90615586565b8015613ae95780601f10613abe57610100808354040283529160200191613ae9565b820191906000526020600020905b815481529060010190602001808311613acc57829003601f168201915b50505050508152602001600282018054613b0290615586565b80601f0160208091040260200160405190810160405280929190818152602001828054613b2e90615586565b8015613b7b5780601f10613b5057610100808354040283529160200191613b7b565b820191906000526020600020905b815481529060010190602001808311613b5e57829003601f168201915b50505050508152602001600382018054613b9490615586565b80601f0160208091040260200160405190810160405280929190818152602001828054613bc090615586565b8015613c0d5780601f10613be257610100808354040283529160200191613c0d565b820191906000526020600020905b815481529060010190602001808311613bf057829003601f168201915b50505050508152602001600482018054613c2690615586565b80601f0160208091040260200160405190810160405280929190818152602001828054613c5290615586565b8015613c9f5780601f10613c7457610100808354040283529160200191613c9f565b820191906000526020600020905b815481529060010190602001808311613c8257829003601f168201915b50505050508152602001600582018054613cb890615586565b80601f0160208091040260200160405190810160405280929190818152602001828054613ce490615586565b8015613d315780601f10613d0657610100808354040283529160200191613d31565b820191906000526020600020905b815481529060010190602001808311613d1457829003601f168201915b505050505081526020016006820160009054906101000a900460ff161515151581525050828281518110613d6857613d6761583f565b5b60200260200101819052508080613d7e9061589d565b915050613975565b508091505090565b600960008773ffffffffffffffffffffffffffffffffffffffff1673ffffffffffffffffffffffffffffffffffffffff16815260200190815260200160002060060160009054906101000a900460ff1615613e1e576040517f08c379a0000000000000000000000000000000000000000000000000000000008152600401613e1590615537565b60405180910390fd5b60006040518060e001604052808873ffffffffffffffffffffffffffffffffffffffff16815260200187815260200186815260200185815260200184815260200183815260200160011515815250905080600960008973ffffffffffffffffffffffffffffffffffffffff1673ffffffffffffffffffffffffffffffffffffffff16815260200190815260200160002060008201518160000160006101000a81548173ffffffffffffffffffffffffffffffffffffffff021916908373ffffffffffffffffffffffffffffffffffffffff1602179055506020820151816001019081613f0a919061576d565b506040820151816002019081613f20919061576d565b506060820151816003019081613f36919061576d565b506080820151816004019081613f4c919061576d565b5060a0820151816005019081613f62919061576d565b5060c08201518160060160006101000a81548160ff021916908315150217905550905050600a879080600181540180825580915050600190039060005260206000200160009091909190916101000a81548173ffffffffffffffffffffffffffffffffffffffff021916908373ffffffffffffffffffffffffffffffffffffffff16021790555050505050505050565b6040518060e00160405280600073ffffffffffffffffffffffffffffffffffffffff16815260200160608152602001606081526020016060815260200160608152602001606081526020016000151581525090565b6040518060c00160405280600073ffffffffffffffffffffffffffffffffffffffff168152602001606081526020016060815260200160608152602001606081526020016000151581525090565b6040518060e00160405280600073ffffffffffffffffffffffffffffffffffffffff16815260200160608152602001606081526020016060815260200160608152602001606081526020016000151581525090565b6040518060e00160405280600073ffffffffffffffffffffffffffffffffffffffff16815260200160608152602001606081526020016060815260200160608152602001600015158152602001606081525090565b6040518060a00160405280600073ffffffffffffffffffffffffffffffffffffffff1681526020016060815260200160608152602001606081526020016000151581525090565b6040518060a00160405280600073ffffffffffffffffffffffffffffffffffffffff1681526020016060815260200160608152602001606081526020016000151581525090565b6000604051905090565b600080fd5b600080fd5b600073ffffffffffffffffffffffffffffffffffffffff82169050919050565b600061420c826141e1565b9050919050565b61421c81614201565b811461422757600080fd5b50565b60008135905061423981614213565b92915050565b600080fd5b600080fd5b6000601f19601f8301169050919050565b7f4e487b7100000000000000000000000000000000000000000000000000000000600052604160045260246000fd5b61429282614249565b810181811067ffffffffffffffff821117156142b1576142b061425a565b5b80604052505050565b60006142c46141cd565b90506142d08282614289565b919050565b600067ffffffffffffffff8211156142f0576142ef61425a565b5b6142f982614249565b9050602081019050919050565b82818337600083830152505050565b6000614328614323846142d5565b6142ba565b90508281526020810184848401111561434457614343614244565b5b61434f848285614306565b509392505050565b600082601f83011261436c5761436b61423f565b5b813561437c848260208601614315565b91505092915050565b6000806000806080858703121561439f5761439e6141d7565b5b60006143ad8782880161422a565b945050602085013567ffffffffffffffff8111156143ce576143cd6141dc565b5b6143da87828801614357565b935050604085013567ffffffffffffffff8111156143fb576143fa6141dc565b5b61440787828801614357565b925050606085013567ffffffffffffffff811115614428576144276141dc565b5b61443487828801614357565b91505092959194509250565b600081519050919050565b600082825260208201905092915050565b6000819050602082019050919050565b61447581614201565b82525050565b600081519050919050565b600082825260208201905092915050565b60005b838110156144b557808201518184015260208101905061449a565b60008484015250505050565b60006144cc8261447b565b6144d68185614486565b93506144e6818560208601614497565b6144ef81614249565b840191505092915050565b60008115159050919050565b61450f816144fa565b82525050565b600060e08301600083015161452d600086018261446c565b506020830151848203602086015261454582826144c1565b9150506040830151848203604086015261455f82826144c1565b9150506060830151848203606086015261457982826144c1565b9150506080830151848203608086015261459382826144c1565b91505060a083015184820360a08601526145ad82826144c1565b91505060c08301516145c260c0860182614506565b508091505092915050565b60006145d98383614515565b905092915050565b6000602082019050919050565b60006145f982614440565b614603818561444b565b9350836020820285016146158561445c565b8060005b85811015614651578484038952815161463285826145cd565b945061463d836145e1565b925060208a01995050600181019050614619565b50829750879550505050505092915050565b6000602082019050818103600083015261467d81846145ee565b905092915050565b600081519050919050565b600082825260208201905092915050565b6000819050602082019050919050565b600060c0830160008301516146c9600086018261446c565b50602083015184820360208601526146e182826144c1565b915050604083015184820360408601526146fb82826144c1565b9150506060830151848203606086015261471582826144c1565b9150506080830151848203608086015261472f82826144c1565b91505060a083015161474460a0860182614506565b508091505092915050565b600061475b83836146b1565b905092915050565b6000602082019050919050565b600061477b82614685565b6147858185614690565b935083602082028501614797856146a1565b8060005b858110156147d357848403895281516147b4858261474f565b94506147bf83614763565b925060208a0199505060018101905061479b565b50829750879550505050505092915050565b600060208201905081810360008301526147ff8184614770565b905092915050565b600080600080600060a08688031215614823576148226141d7565b5b60006148318882890161422a565b955050602086013567ffffffffffffffff811115614852576148516141dc565b5b61485e88828901614357565b945050604086013567ffffffffffffffff81111561487f5761487e6141dc565b5b61488b88828901614357565b935050606086013567ffffffffffffffff8111156148ac576148ab6141dc565b5b6148b888828901614357565b925050608086013567ffffffffffffffff8111156148d9576148d86141dc565b5b6148e588828901614357565b9150509295509295909350565b600060208284031215614908576149076141d7565b5b60006149168482850161422a565b91505092915050565b600060e083016000830151614937600086018261446c565b506020830151848203602086015261494f82826144c1565b9150506040830151848203604086015261496982826144c1565b9150506060830151848203606086015261498382826144c1565b9150506080830151848203608086015261499d82826144c1565b91505060a083015184820360a08601526149b782826144c1565b91505060c08301516149cc60c0860182614506565b508091505092915050565b600060208201905081810360008301526149f1818461491f565b905092915050565b600060c083016000830151614a11600086018261446c565b5060208301518482036020860152614a2982826144c1565b91505060408301518482036040860152614a4382826144c1565b91505060608301518482036060860152614a5d82826144c1565b91505060808301518482036080860152614a7782826144c1565b91505060a0830151614a8c60a0860182614506565b508091505092915050565b60006020820190508181036000830152614ab181846149f9565b905092915050565b600060e083016000830151614ad1600086018261446c565b5060208301518482036020860152614ae982826144c1565b91505060408301518482036040860152614b0382826144c1565b91505060608301518482036060860152614b1d82826144c1565b91505060808301518482036080860152614b3782826144c1565b91505060a0830151614b4c60a0860182614506565b5060c083015184820360c0860152614b6482826144c1565b9150508091505092915050565b60006020820190508181036000830152614b8b8184614ab9565b905092915050565b600060e083016000830151614bab600086018261446c565b5060208301518482036020860152614bc382826144c1565b91505060408301518482036040860152614bdd82826144c1565b91505060608301518482036060860152614bf782826144c1565b91505060808301518482036080860152614c1182826144c1565b91505060a083015184820360a0860152614c2b82826144c1565b91505060c0830151614c4060c0860182614506565b508091505092915050565b60006020820190508181036000830152614c658184614b93565b905092915050565b600081519050919050565b600082825260208201905092915050565b6000819050602082019050919050565b600060e083016000830151614cb1600086018261446c565b5060208301518482036020860152614cc982826144c1565b91505060408301518482036040860152614ce382826144c1565b91505060608301518482036060860152614cfd82826144c1565b91505060808301518482036080860152614d1782826144c1565b91505060a0830151614d2c60a0860182614506565b5060c083015184820360c0860152614d4482826144c1565b9150508091505092915050565b6000614d5d8383614c99565b905092915050565b6000602082019050919050565b6000614d7d82614c6d565b614d878185614c78565b935083602082028501614d9985614c89565b8060005b85811015614dd55784840389528151614db68582614d51565b9450614dc183614d65565b925060208a01995050600181019050614d9d565b50829750879550505050505092915050565b60006020820190508181036000830152614e018184614d72565b905092915050565b600060a083016000830151614e21600086018261446c565b5060208301518482036020860152614e3982826144c1565b91505060408301518482036040860152614e5382826144c1565b91505060608301518482036060860152614e6d82826144c1565b9150506080830151614e826080860182614506565b508091505092915050565b60006020820190508181036000830152614ea78184614e09565b905092915050565b600081519050919050565b600082825260208201905092915050565b6000819050602082019050919050565b600060a083016000830151614ef3600086018261446c565b5060208301518482036020860152614f0b82826144c1565b91505060408301518482036040860152614f2582826144c1565b91505060608301518482036060860152614f3f82826144c1565b9150506080830151614f546080860182614506565b508091505092915050565b6000614f6b8383614edb565b905092915050565b6000602082019050919050565b6000614f8b82614eaf565b614f958185614eba565b935083602082028501614fa785614ecb565b8060005b85811015614fe35784840389528151614fc48582614f5f565b9450614fcf83614f73565b925060208a01995050600181019050614fab565b50829750879550505050505092915050565b6000602082019050818103600083015261500f8184614f80565b905092915050565b600060a08301600083015161502f600086018261446c565b506020830151848203602086015261504782826144c1565b9150506040830151848203604086015261506182826144c1565b9150506060830151848203606086015261507b82826144c1565b91505060808301516150906080860182614506565b508091505092915050565b600060208201905081810360008301526150b58184615017565b905092915050565b600081519050919050565b600082825260208201905092915050565b6000819050602082019050919050565b600060a083016000830151615101600086018261446c565b506020830151848203602086015261511982826144c1565b9150506040830151848203604086015261513382826144c1565b9150506060830151848203606086015261514d82826144c1565b91505060808301516151626080860182614506565b508091505092915050565b600061517983836150e9565b905092915050565b6000602082019050919050565b6000615199826150bd565b6151a381856150c8565b9350836020820285016151b5856150d9565b8060005b858110156151f157848403895281516151d2858261516d565b94506151dd83615181565b925060208a019950506001810190506151b9565b50829750879550505050505092915050565b6000602082019050818103600083015261521d818461518e565b905092915050565b60008060008060008060c08789031215615242576152416141d7565b5b600061525089828a0161422a565b965050602087013567ffffffffffffffff811115615271576152706141dc565b5b61527d89828a01614357565b955050604087013567ffffffffffffffff81111561529e5761529d6141dc565b5b6152aa89828a01614357565b945050606087013567ffffffffffffffff8111156152cb576152ca6141dc565b5b6152d789828a01614357565b935050608087013567ffffffffffffffff8111156152f8576152f76141dc565b5b61530489828a01614357565b92505060a087013567ffffffffffffffff811115615325576153246141dc565b5b61533189828a01614357565b9150509295509295509295565b600081519050919050565b600082825260208201905092915050565b6000819050602082019050919050565b600060e083016000830151615382600086018261446c565b506020830151848203602086015261539a82826144c1565b915050604083015184820360408601526153b482826144c1565b915050606083015184820360608601526153ce82826144c1565b915050608083015184820360808601526153e882826144c1565b91505060a083015184820360a086015261540282826144c1565b91505060c083015161541760c0860182614506565b508091505092915050565b600061542e838361536a565b905092915050565b6000602082019050919050565b600061544e8261533e565b6154588185615349565b93508360208202850161546a8561535a565b8060005b858110156154a657848403895281516154878582615422565b945061549283615436565b925060208a0199505060018101905061546e565b50829750879550505050505092915050565b600060208201905081810360008301526154d28184615443565b905092915050565b600082825260208201905092915050565b7f44657461696c7320416c72656164792045786973746564000000000000000000600082015250565b60006155216017836154da565b915061552c826154eb565b602082019050919050565b6000602082019050818103600083015261555081615514565b9050919050565b7f4e487b7100000000000000000000000000000000000000000000000000000000600052602260045260246000fd5b6000600282049050600182168061559e57607f821691505b6020821081036155b1576155b0615557565b5b50919050565b60008190508160005260206000209050919050565b60006020601f8301049050919050565b600082821b905092915050565b6000600883026156197fffffffffffffffffffffffffffffffffffffffffffffffffffffffffffffffff826155dc565b61562386836155dc565b95508019841693508086168417925050509392505050565b6000819050919050565b6000819050919050565b600061566a6156656156608461563b565b615645565b61563b565b9050919050565b6000819050919050565b6156848361564f565b61569861569082615671565b8484546155e9565b825550505050565b600090565b6156ad6156a0565b6156b881848461567b565b505050565b5b818110156156dc576156d16000826156a5565b6001810190506156be565b5050565b601f821115615721576156f2816155b7565b6156fb846155cc565b8101602085101561570a578190505b61571e615716856155cc565b8301826156bd565b50505b505050565b600082821c905092915050565b600061574460001984600802615726565b1980831691505092915050565b600061575d8383615733565b9150826002028217905092915050565b6157768261447b565b67ffffffffffffffff81111561578f5761578e61425a565b5b6157998254615586565b6157a48282856156e0565b600060209050601f8311600181146157d757600084156157c5578287015190505b6157cf8582615751565b865550615837565b601f1984166157e5866155b7565b60005b8281101561580d578489015182556001820191506020850194506020810190506157e8565b8683101561582a5784890151615826601f891682615733565b8355505b6001600288020188555050505b505050505050565b7f4e487b7100000000000000000000000000000000000000000000000000000000600052603260045260246000fd5b7f4e487b7100000000000000000000000000000000000000000000000000000000600052601160045260246000fd5b60006158a88261563b565b91507fffffffffffffffffffffffffffffffffffffffffffffffffffffffffffffffff82036158da576158d961586e565b5b600182019050919050565b7f4e6f207265636f7264207769746820746869732077616c6c6574000000000000600082015250565b600061591b601a836154da565b9150615926826158e5565b602082019050919050565b6000602082019050818103600083015261594a8161590e565b905091905056fea2646970667358221220e0cbf58f9f8e17ea829733e7a7a92ac9b95960d1f516f5e3054134e99b111f8964736f6c63430008130033",
  "immutableReferences": {},
  "source": "// SPDX-License-Identifier: MIT\npragma solidity >=0.4.22 <0.9.0;\n\ncontract InsuranceClaim {\n    address admin;\n\n    constructor() {\n        admin = msg.sender;\n    }\n\n    struct UserDetails {\n        address _wallet;\n        string _insuranceType;\n        string _policyId;\n        string _adharNumber;\n        string _phoneNumber;\n        bool _exist;\n        string _status;\n    }\n\n    mapping(address => UserDetails) userDetails;\n    address[] userAddresses;\n\n    struct NomineeDetails {\n        address _wallet;\n        string _nomineeName;\n        string _nomineeAdhar;\n        string _nomineePhoneNumber;\n        bool _exist;\n    }\n\n    mapping(address => NomineeDetails) nomineeDetails;\n    address[] nomineeAddresses;\n\n    struct BankDetails {\n        address _wallet;\n        string _bankName;\n        string _accountNumber;\n        string _ifscCode;\n        bool _exist;\n    }\n\n    mapping(address => BankDetails) bankDetails;\n    address[] bankAddresses;\n\n    struct certificateDetails {\n        address _wallet;\n        string _policyPaperPath;\n        string _policyPaperHash;\n        string _reportPaperPath;\n        string _reportPaperHash;\n        bool _exist;\n    }\n\n    mapping(address => certificateDetails) certificates;\n    address[] certificateAddresses;\n\n    struct PoliceDetails{\n      address _wallet;\n      string _policyId;\n      string _policeName;\n      string _policeContactNumber;\n      string _policeFIRPath;\n      string _policeFIRHash;\n      bool _exist;\n    }\n\n    mapping(address => PoliceDetails) policeDetails;\n    address[] policeAddresses;\n\n    struct HospitalDetails{\n      address _wallet;\n      string _policyId;\n      string _doctorName;\n      string _doctorContactNumber;\n      string _doctorreportPath;\n      string _doctorreportHash; \n      bool _exist;\n    }\n\n    mapping(address => HospitalDetails) hospitalDetails;\n    address[] hospitalAddresses;\n\n    // UserDetails Functions\n    function addUserDetails(\n        address wallet,\n        string memory insuranceType,\n        string memory policyId,\n        string memory adharNumber,\n        string memory phoneNumber\n    ) public {\n        require(!userDetails[wallet]._exist, \"Details Already Existed\");\n\n        UserDetails memory new_user = UserDetails(wallet, insuranceType, policyId, adharNumber, phoneNumber, true,\"Pending\");\n        userDetails[wallet] = new_user;\n        userAddresses.push(wallet);\n    }\n\n    function viewUserDetailsByWallet(address wallet) public view returns (UserDetails memory) {\n        require(userDetails[wallet]._exist, \"No record with this wallet\");\n        return userDetails[wallet];\n    }\n\n    function viewAllUserDetails() public view returns (UserDetails[] memory) {\n        UserDetails[] memory userArray = new UserDetails[](userAddresses.length);\n\n        for (uint i = 0; i < userAddresses.length; i++) {\n            userArray[i] = userDetails[userAddresses[i]];\n        }\n        return userArray;\n    }\n\n    // NomineeDetails Functions\n    function addNomineeDetails(\n        address wallet,\n        string memory nomineeName,\n        string memory nomineeAdhar,\n        string memory nomineePhoneNumber\n    ) public {\n        require(!nomineeDetails[wallet]._exist, \"Details Already Existed\");\n\n        NomineeDetails memory new_nominee = NomineeDetails(wallet, nomineeName, nomineeAdhar, nomineePhoneNumber, true);\n        nomineeDetails[wallet] = new_nominee;\n        nomineeAddresses.push(wallet);\n    }\n\n    function viewNomineeDetailsByWallet(address wallet) public view returns (NomineeDetails memory) {\n        require(nomineeDetails[wallet]._exist, \"No record with this wallet\");\n        return nomineeDetails[wallet];\n    }\n\n    function viewAllNomineeDetails() public view returns (NomineeDetails[] memory) {\n        NomineeDetails[] memory nomineeArray = new NomineeDetails[](nomineeAddresses.length);\n\n        for (uint i = 0; i < nomineeAddresses.length; i++) {\n            nomineeArray[i] = nomineeDetails[nomineeAddresses[i]];\n        }\n        return nomineeArray;\n    }\n\n    // BankDetails Functions\n    function addBankDetails(\n        address wallet,\n        string memory bankName,\n        string memory accountNumber,\n        string memory ifscCode\n    ) public {\n        require(!bankDetails[wallet]._exist, \"Details Already Existed\");\n\n        BankDetails memory new_bank = BankDetails(wallet, bankName, accountNumber, ifscCode, true);\n        bankDetails[wallet] = new_bank;\n        bankAddresses.push(wallet);\n    }\n\n    function viewBankDetailsByWallet(address wallet) public view returns (BankDetails memory) {\n        require(bankDetails[wallet]._exist, \"No record with this wallet\");\n        return bankDetails[wallet];\n    }\n\n    function viewAllBankDetails() public view returns (BankDetails[] memory) {\n        BankDetails[] memory bankArray = new BankDetails[](bankAddresses.length);\n\n        for (uint i = 0; i < bankAddresses.length; i++) {\n            bankArray[i] = bankDetails[bankAddresses[i]];\n        }\n        return bankArray;\n    }\n\n    // CertificateDetails Functions\n    function addCertificateDetails(\n        address wallet,\n        string memory policyPaperPath,\n        string memory policyPaperHash,\n        string memory reportPaperPath,\n        string memory reportPaperHash\n    ) public {\n        require(!certificates[wallet]._exist, \"Details Already Existed\");\n\n        certificateDetails memory new_certificate = certificateDetails(\n            wallet,\n            policyPaperPath,\n            policyPaperHash,\n            reportPaperPath,\n            reportPaperHash,\n            true\n        );\n        certificates[wallet] = new_certificate;\n        certificateAddresses.push(wallet);\n    }\n\n    function viewCertificateDetailsByWallet(address wallet) public view returns (certificateDetails memory) {\n        require(certificates[wallet]._exist, \"No record with this wallet\");\n        return certificates[wallet];\n    }\n\n    function viewAllCertificateDetails() public view returns (certificateDetails[] memory) {\n        certificateDetails[] memory certificateArray = new certificateDetails[](certificateAddresses.length);\n\n        for (uint i = 0; i < certificateAddresses.length; i++) {\n            certificateArray[i] = certificates[certificateAddresses[i]];\n        }\n        return certificateArray;\n    }\n\n    function addPoliceDetails(\n        address wallet,\n        string memory policyId,\n        string memory policeName,\n        string memory policeContactNumber,\n        string memory policeFIRPath,\n        string memory policeFIRHash\n    ) public {\n        require(!policeDetails[wallet]._exist, \"Details Already Existed\");\n\n        PoliceDetails memory new_police = PoliceDetails(\n            wallet,\n            policyId,\n            policeName,\n            policeContactNumber,\n            policeFIRPath,\n            policeFIRHash,\n            true\n        );\n        policeDetails[wallet] = new_police;\n        policeAddresses.push(wallet);\n    }\n\n    function viewPoliceDetailsByWallet(address wallet) public view returns (PoliceDetails memory) {\n        require(policeDetails[wallet]._exist, \"No record with this wallet\");\n        return policeDetails[wallet];\n    }\n\n    function viewAllPoliceDetails() public view returns (PoliceDetails[] memory) {\n        PoliceDetails[] memory policeArray = new PoliceDetails[](policeAddresses.length);\n\n        for (uint i = 0; i < policeAddresses.length; i++) {\n            policeArray[i] = policeDetails[policeAddresses[i]];\n        }\n        return policeArray;\n    }\n\n    // HospitalDetails Functions\n    function addHospitalDetails(\n        address wallet,\n        string memory policyId,\n        string memory doctorName,\n        string memory doctorContactNumber,\n        string memory doctorReportPath,\n        string memory doctorReportHash\n    ) public {\n        require(!hospitalDetails[wallet]._exist, \"Details Already Existed\");\n\n        HospitalDetails memory new_hospital = HospitalDetails(\n            wallet,\n            policyId,\n            doctorName,\n            doctorContactNumber,\n            doctorReportPath,\n            doctorReportHash,\n            true\n        );\n        hospitalDetails[wallet] = new_hospital;\n        hospitalAddresses.push(wallet);\n    }\n\n    function viewHospitalDetailsByWallet(address wallet) public view returns (HospitalDetails memory) {\n        require(hospitalDetails[wallet]._exist, \"No record with this wallet\");\n        return hospitalDetails[wallet];\n    }\n\n    function viewAllHospitalDetails() public view returns (HospitalDetails[] memory) {\n        HospitalDetails[] memory hospitalArray = new HospitalDetails[](hospitalAddresses.length);\n\n        for (uint i = 0; i < hospitalAddresses.length; i++) {\n            hospitalArray[i] = hospitalDetails[hospitalAddresses[i]];\n        }\n        return hospitalArray;\n    }\n}\n\n",
  "sourcePath": "C:\\Users\\Sudheer\\Downloads\\Blockchain-KT-Project\\Blockchain-KT-Project\\contracts\\InsuranceClaim.sol",
  "compiler": {
    "name": "solc",
    "version": "0.8.19+commit.7dd6d404.Emscripten.clang"
  },
  "schemaVersion": "3.4.16",
  "updatedAt": "2025-01-11T08:05:07.447Z",
  "networkType": "ethereum",
  "devdoc": {
    "kind": "dev",
    "methods": {},
    "version": 1
  },
  "userdoc": {
    "kind": "user",
    "methods": {},
    "version": 1
  }
}