{
  "contractName": "userManagement",
  "abi": [
    {
      "inputs": [],
      "stateMutability": "nonpayable",
      "type": "constructor"
    },
    {
      "inputs": [
        {
          "internalType": "string",
          "name": "username",
          "type": "string"
        },
        {
          "internalType": "string",
          "name": "password",
          "type": "string"
        }
      ],
      "name": "validateAdmin",
      "outputs": [
        {
          "internalType": "bool",
          "name": "",
          "type": "bool"
        }
      ],
      "stateMutability": "view",
      "type": "function",
      "constant": true
    },
    {
      "inputs": [
        {
          "internalType": "address",
          "name": "wallet",
          "type": "address"
        },
        {
          "internalType": "string",
          "name": "username",
          "type": "string"
        },
        {
          "internalType": "string",
          "name": "password",
          "type": "string"
        },
        {
          "internalType": "string",
          "name": "role",
          "type": "string"
        },
        {
          "internalType": "string",
          "name": "email",
          "type": "string"
        }
      ],
      "name": "userSignUp",
      "outputs": [],
      "stateMutability": "nonpayable",
      "type": "function"
    },
    {
      "inputs": [],
      "name": "viewAllUsers",
      "outputs": [
        {
          "components": [
            {
              "internalType": "address",
              "name": "_userAddress",
              "type": "address"
            },
            {
              "internalType": "string",
              "name": "_userName",
              "type": "string"
            },
            {
              "internalType": "string",
              "name": "_userPassword",
              "type": "string"
            },
            {
              "internalType": "string",
              "name": "_userRole",
              "type": "string"
            },
            {
              "internalType": "string",
              "name": "_userEmail",
              "type": "string"
            },
            {
              "internalType": "bool",
              "name": "_exist",
              "type": "bool"
            }
          ],
          "internalType": "struct userManagement.User[]",
          "name": "",
          "type": "tuple[]"
        }
      ],
      "stateMutability": "view",
      "type": "function",
      "constant": true
    },
    {
      "inputs": [
        {
          "internalType": "string",
          "name": "username",
          "type": "string"
        }
      ],
      "name": "viewUserByUsername",
      "outputs": [
        {
          "components": [
            {
              "internalType": "address",
              "name": "_userAddress",
              "type": "address"
            },
            {
              "internalType": "string",
              "name": "_userName",
              "type": "string"
            },
            {
              "internalType": "string",
              "name": "_userPassword",
              "type": "string"
            },
            {
              "internalType": "string",
              "name": "_userRole",
              "type": "string"
            },
            {
              "internalType": "string",
              "name": "_userEmail",
              "type": "string"
            },
            {
              "internalType": "bool",
              "name": "_exist",
              "type": "bool"
            }
          ],
          "internalType": "struct userManagement.User",
          "name": "",
          "type": "tuple"
        }
      ],
      "stateMutability": "view",
      "type": "function",
      "constant": true
    },
    {
      "inputs": [
        {
          "internalType": "address",
          "name": "wallet",
          "type": "address"
        }
      ],
      "name": "viewUserByWallet",
      "outputs": [
        {
          "components": [
            {
              "internalType": "address",
              "name": "_userAddress",
              "type": "address"
            },
            {
              "internalType": "string",
              "name": "_userName",
              "type": "string"
            },
            {
              "internalType": "string",
              "name": "_userPassword",
              "type": "string"
            },
            {
              "internalType": "string",
              "name": "_userRole",
              "type": "string"
            },
            {
              "internalType": "string",
              "name": "_userEmail",
              "type": "string"
            },
            {
              "internalType": "bool",
              "name": "_exist",
              "type": "bool"
            }
          ],
          "internalType": "struct userManagement.User",
          "name": "",
          "type": "tuple"
        }
      ],
      "stateMutability": "view",
      "type": "function",
      "constant": true
    },
    {
      "inputs": [
        {
          "internalType": "string",
          "name": "username",
          "type": "string"
        },
        {
          "internalType": "string",
          "name": "password",
          "type": "string"
        }
      ],
      "name": "userLogin",
      "outputs": [
        {
          "internalType": "bool",
          "name": "",
          "type": "bool"
        }
      ],
      "stateMutability": "view",
      "type": "function",
      "constant": true
    },
    {
      "inputs": [],
      "name": "viewAdmin",
      "outputs": [
        {
          "internalType": "address",
          "name": "",
          "type": "address"
        },
        {
          "internalType": "string",
          "name": "",
          "type": "string"
        }
      ],
      "stateMutability": "view",
      "type": "function",
      "constant": true
    }
  ],
  "bytecode": "0x60806040526040518060400160405280600581526020017f61646d696e000000000000000000000000000000000000000000000000000000815250600190816200004a919062000360565b506040518060400160405280600881526020017f61646d696e3132330000000000000000000000000000000000000000000000008152506002908162000091919062000360565b503480156200009f57600080fd5b50336000806101000a81548173ffffffffffffffffffffffffffffffffffffffff021916908373ffffffffffffffffffffffffffffffffffffffff16021790555062000447565b600081519050919050565b7f4e487b7100000000000000000000000000000000000000000000000000000000600052604160045260246000fd5b7f4e487b7100000000000000000000000000000000000000000000000000000000600052602260045260246000fd5b600060028204905060018216806200016857607f821691505b6020821081036200017e576200017d62000120565b5b50919050565b60008190508160005260206000209050919050565b60006020601f8301049050919050565b600082821b905092915050565b600060088302620001e87fffffffffffffffffffffffffffffffffffffffffffffffffffffffffffffffff82620001a9565b620001f48683620001a9565b95508019841693508086168417925050509392505050565b6000819050919050565b6000819050919050565b6000620002416200023b62000235846200020c565b62000216565b6200020c565b9050919050565b6000819050919050565b6200025d8362000220565b620002756200026c8262000248565b848454620001b6565b825550505050565b600090565b6200028c6200027d565b6200029981848462000252565b505050565b5b81811015620002c157620002b560008262000282565b6001810190506200029f565b5050565b601f8211156200031057620002da8162000184565b620002e58462000199565b81016020851015620002f5578190505b6200030d620003048562000199565b8301826200029e565b50505b505050565b600082821c905092915050565b6000620003356000198460080262000315565b1980831691505092915050565b600062000350838362000322565b9150826002028217905092915050565b6200036b82620000e6565b67ffffffffffffffff811115620003875762000386620000f1565b5b6200039382546200014f565b620003a0828285620002c5565b600060209050601f831160018114620003d85760008415620003c3578287015190505b620003cf858262000342565b8655506200043f565b601f198416620003e88662000184565b60005b828110156200041257848901518255600182019150602085019450602081019050620003eb565b868310156200043257848901516200042e601f89168262000322565b8355505b6001600288020188555050505b505050505050565b61204e80620004576000396000f3fe608060405234801561001057600080fd5b506004361061007d5760003560e01c8063a150fa721161005b578063a150fa72146100ed578063ba81636c1461011d578063c58d70341461014d578063ec046fc71461017d5761007d565b80635b4a3abe146100825780639910ed9a146100b25780639a66c0d7146100d1575b600080fd5b61009c600480360381019061009791906113f8565b61019b565b6040516100a9919061148b565b60405180910390f35b6100ba6102ae565b6040516100c8929190611566565b60405180910390f35b6100eb60048036038101906100e691906115c2565b610369565b005b610107600480360381019061010291906116ad565b610700565b60405161011491906117e0565b60405180910390f35b61013760048036038101906101329190611802565b610aa1565b60405161014491906117e0565b60405180910390f35b610167600480360381019061016291906113f8565b610e00565b604051610174919061148b565b60405180910390f35b610185610e67565b60405161019291906119ab565b60405180910390f35b60006004836040516101ad9190611a09565b908152602001604051809103902060050160009054906101000a900460ff1661020b576040517f08c379a000000000000000000000000000000000000000000000000000000000815260040161020290611a6c565b60405180910390fd5b60048360405161021b9190611a09565b90815260200160405180910390206001016040516102399190611b8f565b60405180910390208380519060200120036102a35760048360405161025e9190611a09565b908152602001604051809103902060020160405161027c9190611b8f565b604051809103902082805190602001200361029a57600190506102a8565b600090506102a8565b600090505b92915050565b6000606060008054906101000a900473ffffffffffffffffffffffffffffffffffffffff1660018080546102e190611abb565b80601f016020809104026020016040519081016040528092919081815260200182805461030d90611abb565b801561035a5780601f1061032f5761010080835404028352916020019161035a565b820191906000526020600020905b81548152906001019060200180831161033d57829003601f168201915b50505050509050915091509091565b600360008673ffffffffffffffffffffffffffffffffffffffff1673ffffffffffffffffffffffffffffffffffffffff16815260200190815260200160002060050160009054906101000a900460ff16156103f9576040517f08c379a00000000000000000000000000000000000000000000000000000000081526004016103f090611bf2565b60405180910390fd5b6004846040516104099190611a09565b908152602001604051809103902060050160009054906101000a900460ff1615610468576040517f08c379a000000000000000000000000000000000000000000000000000000000815260040161045f90611c5e565b60405180910390fd5b60006040518060c001604052808773ffffffffffffffffffffffffffffffffffffffff16815260200186815260200185815260200184815260200183815260200160011515815250905080600360008873ffffffffffffffffffffffffffffffffffffffff1673ffffffffffffffffffffffffffffffffffffffff16815260200190815260200160002060008201518160000160006101000a81548173ffffffffffffffffffffffffffffffffffffffff021916908373ffffffffffffffffffffffffffffffffffffffff160217905550602082015181600101908161054e9190611e34565b5060408201518160020190816105649190611e34565b50606082015181600301908161057a9190611e34565b5060808201518160040190816105909190611e34565b5060a08201518160050160006101000a81548160ff021916908315150217905550905050806004866040516105c59190611a09565b908152602001604051809103902060008201518160000160006101000a81548173ffffffffffffffffffffffffffffffffffffffff021916908373ffffffffffffffffffffffffffffffffffffffff160217905550602082015181600101908161062f9190611e34565b5060408201518160020190816106459190611e34565b50606082015181600301908161065b9190611e34565b5060808201518160040190816106719190611e34565b5060a08201518160050160006101000a81548160ff0219169083151502179055509050506005869080600181540180825580915050600190039060005260206000200160009091909190916101000a81548173ffffffffffffffffffffffffffffffffffffffff021916908373ffffffffffffffffffffffffffffffffffffffff160217905550505050505050565b610708611250565b600360008373ffffffffffffffffffffffffffffffffffffffff1673ffffffffffffffffffffffffffffffffffffffff16815260200190815260200160002060050160009054906101000a900460ff16610797576040517f08c379a000000000000000000000000000000000000000000000000000000000815260040161078e90611f52565b60405180910390fd5b600360008373ffffffffffffffffffffffffffffffffffffffff1673ffffffffffffffffffffffffffffffffffffffff1681526020019081526020016000206040518060c00160405290816000820160009054906101000a900473ffffffffffffffffffffffffffffffffffffffff1673ffffffffffffffffffffffffffffffffffffffff1673ffffffffffffffffffffffffffffffffffffffff16815260200160018201805461084790611abb565b80601f016020809104026020016040519081016040528092919081815260200182805461087390611abb565b80156108c05780601f10610895576101008083540402835291602001916108c0565b820191906000526020600020905b8154815290600101906020018083116108a357829003601f168201915b505050505081526020016002820180546108d990611abb565b80601f016020809104026020016040519081016040528092919081815260200182805461090590611abb565b80156109525780601f1061092757610100808354040283529160200191610952565b820191906000526020600020905b81548152906001019060200180831161093557829003601f168201915b5050505050815260200160038201805461096b90611abb565b80601f016020809104026020016040519081016040528092919081815260200182805461099790611abb565b80156109e45780601f106109b9576101008083540402835291602001916109e4565b820191906000526020600020905b8154815290600101906020018083116109c757829003601f168201915b505050505081526020016004820180546109fd90611abb565b80601f0160208091040260200160405190810160405280929190818152602001828054610a2990611abb565b8015610a765780601f10610a4b57610100808354040283529160200191610a76565b820191906000526020600020905b815481529060010190602001808311610a5957829003601f168201915b505050505081526020016005820160009054906101000a900460ff1615151515815250509050919050565b610aa9611250565b600482604051610ab99190611a09565b908152602001604051809103902060050160009054906101000a900460ff16610b17576040517f08c379a0000000000000000000000000000000000000000000000000000000008152600401610b0e90611a6c565b60405180910390fd5b600482604051610b279190611a09565b90815260200160405180910390206040518060c00160405290816000820160009054906101000a900473ffffffffffffffffffffffffffffffffffffffff1673ffffffffffffffffffffffffffffffffffffffff1673ffffffffffffffffffffffffffffffffffffffff168152602001600182018054610ba690611abb565b80601f0160208091040260200160405190810160405280929190818152602001828054610bd290611abb565b8015610c1f5780601f10610bf457610100808354040283529160200191610c1f565b820191906000526020600020905b815481529060010190602001808311610c0257829003601f168201915b50505050508152602001600282018054610c3890611abb565b80601f0160208091040260200160405190810160405280929190818152602001828054610c6490611abb565b8015610cb15780601f10610c8657610100808354040283529160200191610cb1565b820191906000526020600020905b815481529060010190602001808311610c9457829003601f168201915b50505050508152602001600382018054610cca90611abb565b80601f0160208091040260200160405190810160405280929190818152602001828054610cf690611abb565b8015610d435780601f10610d1857610100808354040283529160200191610d43565b820191906000526020600020905b815481529060010190602001808311610d2657829003601f168201915b50505050508152602001600482018054610d5c90611abb565b80601f0160208091040260200160405190810160405280929190818152602001828054610d8890611abb565b8015610dd55780601f10610daa57610100808354040283529160200191610dd5565b820191906000526020600020905b815481529060010190602001808311610db857829003601f168201915b505050505081526020016005820160009054906101000a900460ff1615151515815250509050919050565b60006001604051610e119190611b8f565b6040518091039020838051906020012003610e5c576002604051610e359190611b8f565b6040518091039020828051906020012003610e535760019050610e61565b60009050610e61565b600090505b92915050565b6060600060058054905067ffffffffffffffff811115610e8a57610e896112cd565b5b604051908082528060200260200182016040528015610ec357816020015b610eb0611250565b815260200190600190039081610ea85790505b50905060005b600580549050811015611248576003600060058381548110610eee57610eed611f72565b5b9060005260206000200160009054906101000a900473ffffffffffffffffffffffffffffffffffffffff1673ffffffffffffffffffffffffffffffffffffffff1673ffffffffffffffffffffffffffffffffffffffff1681526020019081526020016000206040518060c00160405290816000820160009054906101000a900473ffffffffffffffffffffffffffffffffffffffff1673ffffffffffffffffffffffffffffffffffffffff1673ffffffffffffffffffffffffffffffffffffffff168152602001600182018054610fc490611abb565b80601f0160208091040260200160405190810160405280929190818152602001828054610ff090611abb565b801561103d5780601f106110125761010080835404028352916020019161103d565b820191906000526020600020905b81548152906001019060200180831161102057829003601f168201915b5050505050815260200160028201805461105690611abb565b80601f016020809104026020016040519081016040528092919081815260200182805461108290611abb565b80156110cf5780601f106110a4576101008083540402835291602001916110cf565b820191906000526020600020905b8154815290600101906020018083116110b257829003601f168201915b505050505081526020016003820180546110e890611abb565b80601f016020809104026020016040519081016040528092919081815260200182805461111490611abb565b80156111615780601f1061113657610100808354040283529160200191611161565b820191906000526020600020905b81548152906001019060200180831161114457829003601f168201915b5050505050815260200160048201805461117a90611abb565b80601f01602080910402602001604051908101604052809291908181526020018280546111a690611abb565b80156111f35780601f106111c8576101008083540402835291602001916111f3565b820191906000526020600020905b8154815290600101906020018083116111d657829003601f168201915b505050505081526020016005820160009054906101000a900460ff16151515158152505082828151811061122a57611229611f72565b5b6020026020010181905250808061124090611fd0565b915050610ec9565b508091505090565b6040518060c00160405280600073ffffffffffffffffffffffffffffffffffffffff168152602001606081526020016060815260200160608152602001606081526020016000151581525090565b6000604051905090565b600080fd5b600080fd5b600080fd5b600080fd5b6000601f19601f8301169050919050565b7f4e487b7100000000000000000000000000000000000000000000000000000000600052604160045260246000fd5b611305826112bc565b810181811067ffffffffffffffff82111715611324576113236112cd565b5b80604052505050565b600061133761129e565b905061134382826112fc565b919050565b600067ffffffffffffffff821115611363576113626112cd565b5b61136c826112bc565b9050602081019050919050565b82818337600083830152505050565b600061139b61139684611348565b61132d565b9050828152602081018484840111156113b7576113b66112b7565b5b6113c2848285611379565b509392505050565b600082601f8301126113df576113de6112b2565b5b81356113ef848260208601611388565b91505092915050565b6000806040838503121561140f5761140e6112a8565b5b600083013567ffffffffffffffff81111561142d5761142c6112ad565b5b611439858286016113ca565b925050602083013567ffffffffffffffff81111561145a576114596112ad565b5b611466858286016113ca565b9150509250929050565b60008115159050919050565b61148581611470565b82525050565b60006020820190506114a0600083018461147c565b92915050565b600073ffffffffffffffffffffffffffffffffffffffff82169050919050565b60006114d1826114a6565b9050919050565b6114e1816114c6565b82525050565b600081519050919050565b600082825260208201905092915050565b60005b83811015611521578082015181840152602081019050611506565b60008484015250505050565b6000611538826114e7565b61154281856114f2565b9350611552818560208601611503565b61155b816112bc565b840191505092915050565b600060408201905061157b60008301856114d8565b818103602083015261158d818461152d565b90509392505050565b61159f816114c6565b81146115aa57600080fd5b50565b6000813590506115bc81611596565b92915050565b600080600080600060a086880312156115de576115dd6112a8565b5b60006115ec888289016115ad565b955050602086013567ffffffffffffffff81111561160d5761160c6112ad565b5b611619888289016113ca565b945050604086013567ffffffffffffffff81111561163a576116396112ad565b5b611646888289016113ca565b935050606086013567ffffffffffffffff811115611667576116666112ad565b5b611673888289016113ca565b925050608086013567ffffffffffffffff811115611694576116936112ad565b5b6116a0888289016113ca565b9150509295509295909350565b6000602082840312156116c3576116c26112a8565b5b60006116d1848285016115ad565b91505092915050565b6116e3816114c6565b82525050565b600082825260208201905092915050565b6000611705826114e7565b61170f81856116e9565b935061171f818560208601611503565b611728816112bc565b840191505092915050565b61173c81611470565b82525050565b600060c08301600083015161175a60008601826116da565b506020830151848203602086015261177282826116fa565b9150506040830151848203604086015261178c82826116fa565b915050606083015184820360608601526117a682826116fa565b915050608083015184820360808601526117c082826116fa565b91505060a08301516117d560a0860182611733565b508091505092915050565b600060208201905081810360008301526117fa8184611742565b905092915050565b600060208284031215611818576118176112a8565b5b600082013567ffffffffffffffff811115611836576118356112ad565b5b611842848285016113ca565b91505092915050565b600081519050919050565b600082825260208201905092915050565b6000819050602082019050919050565b600060c08301600083015161188f60008601826116da565b50602083015184820360208601526118a782826116fa565b915050604083015184820360408601526118c182826116fa565b915050606083015184820360608601526118db82826116fa565b915050608083015184820360808601526118f582826116fa565b91505060a083015161190a60a0860182611733565b508091505092915050565b60006119218383611877565b905092915050565b6000602082019050919050565b60006119418261184b565b61194b8185611856565b93508360208202850161195d85611867565b8060005b85811015611999578484038952815161197a8582611915565b945061198583611929565b925060208a01995050600181019050611961565b50829750879550505050505092915050565b600060208201905081810360008301526119c58184611936565b905092915050565b600081905092915050565b60006119e3826114e7565b6119ed81856119cd565b93506119fd818560208601611503565b80840191505092915050565b6000611a1582846119d8565b915081905092915050565b7f4e6f206163636f756e742077697468207468617420757365726e616d65000000600082015250565b6000611a56601d836114f2565b9150611a6182611a20565b602082019050919050565b60006020820190508181036000830152611a8581611a49565b9050919050565b7f4e487b7100000000000000000000000000000000000000000000000000000000600052602260045260246000fd5b60006002820490506001821680611ad357607f821691505b602082108103611ae657611ae5611a8c565b5b50919050565b600081905092915050565b60008190508160005260206000209050919050565b60008154611b1981611abb565b611b238186611aec565b94506001821660008114611b3e5760018114611b5357611b86565b60ff1983168652811515820286019350611b86565b611b5c85611af7565b60005b83811015611b7e57815481890152600182019150602081019050611b5f565b838801955050505b50505092915050565b6000611b9b8284611b0c565b915081905092915050565b7f416c726561647920657869737400000000000000000000000000000000000000600082015250565b6000611bdc600d836114f2565b9150611be782611ba6565b602082019050919050565b60006020820190508181036000830152611c0b81611bcf565b9050919050565b7f416c726561647920757365726e616d652074616b656e00000000000000000000600082015250565b6000611c486016836114f2565b9150611c5382611c12565b602082019050919050565b60006020820190508181036000830152611c7781611c3b565b9050919050565b60008190508160005260206000209050919050565b60006020601f8301049050919050565b600082821b905092915050565b600060088302611ce07fffffffffffffffffffffffffffffffffffffffffffffffffffffffffffffffff82611ca3565b611cea8683611ca3565b95508019841693508086168417925050509392505050565b6000819050919050565b6000819050919050565b6000611d31611d2c611d2784611d02565b611d0c565b611d02565b9050919050565b6000819050919050565b611d4b83611d16565b611d5f611d5782611d38565b848454611cb0565b825550505050565b600090565b611d74611d67565b611d7f818484611d42565b505050565b5b81811015611da357611d98600082611d6c565b600181019050611d85565b5050565b601f821115611de857611db981611c7e565b611dc284611c93565b81016020851015611dd1578190505b611de5611ddd85611c93565b830182611d84565b50505b505050565b600082821c905092915050565b6000611e0b60001984600802611ded565b1980831691505092915050565b6000611e248383611dfa565b9150826002028217905092915050565b611e3d826114e7565b67ffffffffffffffff811115611e5657611e556112cd565b5b611e608254611abb565b611e6b828285611da7565b600060209050601f831160018114611e9e5760008415611e8c578287015190505b611e968582611e18565b865550611efe565b601f198416611eac86611c7e565b60005b82811015611ed457848901518255600182019150602085019450602081019050611eaf565b86831015611ef15784890151611eed601f891682611dfa565b8355505b6001600288020188555050505b505050505050565b7f4e6f206163636f756e74207769746820746861742077616c6c65740000000000600082015250565b6000611f3c601b836114f2565b9150611f4782611f06565b602082019050919050565b60006020820190508181036000830152611f6b81611f2f565b9050919050565b7f4e487b7100000000000000000000000000000000000000000000000000000000600052603260045260246000fd5b7f4e487b7100000000000000000000000000000000000000000000000000000000600052601160045260246000fd5b6000611fdb82611d02565b91507fffffffffffffffffffffffffffffffffffffffffffffffffffffffffffffffff820361200d5761200c611fa1565b5b60018201905091905056fea2646970667358221220d328b163251d758686bf96c923163697440f8a068d7f0c64aee788fbb1b1a5b964736f6c63430008130033",
  "immutableReferences": {},
  "source": "// SPDX-License-Identifier: MIT\npragma solidity >=0.4.22 <0.9.0;\n\ncontract userManagement {\n  address admin;\n  string adminUsername=\"admin\";\n  string adminPassword=\"admin123\";\n\n  struct User{\n    address _userAddress; // Mandatory\n    string _userName;\n    string _userPassword;\n    string _userRole; // Mandatory\n    string _userEmail;\n    bool _exist;\n  }\n\n  // mapping variables\n  mapping(address=>User) users; // user wallet address is pointing a structure of user -> users[_users[0]]\n  mapping(string=>User) usernames; // _usernames[username]\n  address[] userAddresses; // user dynamic array of wallet addresses, _users[0], _users[1]\n  \n\n  // you can find out length of array (_users.length) -> Number of users registered\n  // you can't find out the length of mapping variable (1) = array (1)\n\n  constructor() {\n    admin=msg.sender; // msg.sender is a global variable where it is holding the address of contract invoker\n  }\n\n  // ValidateAdmin will verify login details of admin passed by frontend\n  function validateAdmin(string memory username,string memory password) public view returns(bool) {\n    if(keccak256(bytes(username))==keccak256(bytes(adminUsername))){\n      if(keccak256(bytes(password))==keccak256(bytes(adminPassword))){\n        return true;\n      } else {\n        return false;\n      }\n    } else {\n      return false;\n    }\n  }\n\n  // It will create an account of user\n  function userSignUp(address wallet,string memory username,string memory password,string memory role,string memory email) public {\n    require(!users[wallet]._exist,\"Already exist\"); // require condition should be always false\n    require(!usernames[username]._exist,\"Already username taken\"); \n\n    // Structure Member\n    User memory new_user=User(wallet,username,password,role,email,true);\n    users[wallet]=new_user;\n    usernames[username]=new_user; // new_user is a structure of records\n    userAddresses.push(wallet); // it will push wallet address\n  }\n\n  // It will return all the registered Users\n  function viewAllUsers() public view returns(User[] memory){\n    User[] memory _userArray = new User[] (userAddresses.length); // 100 chairs (empty)\n    // empty structures create -> the length of userAddress (1)\n\n    for (uint256 i = 0; i < userAddresses.length; i++) { // 0<1 // 100 students one-by-one seating\n            _userArray[i] = users[userAddresses[i]]; // users[wallet]\n    }\n\n    return _userArray; \n  }\n\n  // It will return only one record of user based on username\n  function viewUserByUsername(string memory username) public view returns(User memory) {\n    require(usernames[username]._exist,\"No account with that username\"); // true\n    return usernames[username];\n  }\n\n  // It will return only one record of user based on wallet\n  function viewUserByWallet(address wallet) public view returns(User memory) {\n    require(users[wallet]._exist,\"No account with that wallet\");\n    return users[wallet];\n  }\n\n  // It will validate the login details of user\n  function userLogin(string memory username,string memory password) public view returns(bool){\n    require(usernames[username]._exist,\"No account with that username\"); \n\n    if(keccak256(bytes(username))==keccak256(bytes(usernames[username]._userName))){\n      if(keccak256(bytes(password))==keccak256(bytes(usernames[username]._userPassword))){\n        return true;\n      } else {\n        return false;\n      }\n    } else {\n      return false;\n    }\n  }\n\n  // It has to return admin wallet address, admin username\n  function viewAdmin() public view returns(address,string memory) {\n    // Read Operation only\n    return (admin,adminUsername);\n  }\n}\n",
  "sourcePath": "C:\\Users\\Sudheer\\Downloads\\Blockchain-KT-Project\\Blockchain-KT-Project\\contracts\\userManagement.sol",
  "compiler": {
    "name": "solc",
    "version": "0.8.19+commit.7dd6d404.Emscripten.clang"
  },
  "schemaVersion": "3.4.16",
  "updatedAt": "2025-01-11T08:05:07.162Z",
  "networkType": "ethereum",
  "devdoc": {
    "kind": "dev",
    "methods": {},
    "version": 1
  },
  "userdoc": {
    "kind": "user",
    "methods": {},
    "version": 1
  }
}